:020000040800F2
:1000000048D8002051A1000811A500080D8E000855
:1000100019A500081DA5000821A500080000000082
:100020000000000000000000000000002B26000877
:1000300029A5000800000000D9250008F1240008C7
:1000400035A5000839A500083DA5000841A5000810
:1000500045A5000849A500084DA5000851A50008C0
:1000600055A5000859A500085DA5000861A5000870
:1000700065A5000869A500086DA5000871A5000820
:1000800075A5000879A500087DA5000881A50008D0
:10009000E158000889A500088DA5000891A5000871
:1000A00095A50008CF4500089DA50008A1A500085A
:1000B000A5A50008A9A50008ADA50008B1A50008E0
:1000C000B5A50008B9A50008BDA50008C1A5000890
:1000D000C5A500080F6B00081B6B0008276B000804
:1000E000D5A50008D9A50008DDA50008000000007E
:1000F0000000000000000000000000000000000000
:100100000000000000000000E1A50008E5A50008CF
:10011000E9A50008EDA50008F1A50008F5A500086F
:10012000F9A50008FDA5000801A6000805A600081D
:1001300009A600080DA6000811A6000815A60008CB
:1001400019A600081DA6000821A6000825A600087B
:100150002DE9F04FA1B08046002017461D460291C0
:100160000B900DF1440A6FF000490AE017F8011BEB
:100170000298C0470028029000F0AB820B98401C08
:100180000B90387808B90B98A5E22528EED100200D
:10019000059006900790089009900A9001E040F0C1
:1001A000010017F8011F2029F9D023290DD02B2990
:1001B00004D02D2906D030290AD00CE040F00200EE
:1001C00080B2EEE740F00400FAE740F00800F7E7FD
:1001D00040F01000F4E72A290ED12968296051F86F
:1001E000042B2960002A0D9204D5514240F00400EE
:1001F0000D9180B27F1C11E000210D9109E00D9955
:10020000494505D001EB810302EB430130390D91E3
:100210007F1C3A78A2F130010A29F0D339782E29CF
:1002200003D04FF0FF310C911DE017F8011F2A2970
:1002300007D1296829607F1C51F8042B29600C9292
:1002400011E000210C9109E00C99494505D001EB22
:10025000810302EB430130390C917F1C3A78A2F103
:1002600030010A29F0D3ADF838000FF6784039781C
:1002700000F046FE08B117F8010B8DF83A009DF822
:100280003A00682802BF39786829622005D06C28B6
:1002900004BF38786C2803D171208DF83A007F1C98
:1002A00011A8049017F8014BB4F1250029D01C388F
:1002B00000F0C280001F022840F2BE80133800F018
:1002C000E380093800F0B880801E00F04A81401EAB
:1002D00000F02381401E022840F2AE80001F00F093
:1002E0001C81401F79D0401E00F0CE80401E24D0DB
:1002F000C01E0BD0801E00F0C780C01E00F0C4805E
:1003000039E125208DF8440001203DE1286828606E
:1003100050F8046B286003960C9C002C04D53046E2
:1003200000F0FAFD044606E022460021304600F0C7
:100330000FFE00B1841B069427E1296829603C2444
:1003400051F8040B29600021CDE9000111A80390A8
:10035000DDE90001049E11B908B90C9AB2B1020698
:10036000120FA0EB02123032D2B2631E3A2AA8BF9B
:100370002732000940EA017009099A5508BF002890
:100380001C4603D0039AA3199A42E8D3A0190390FC
:10039000C4F13C010C980691814209DA401A089098
:1003A0004FF6EF71BDF838000840ADF83800ECE0CA
:1003B000002840F1EA809DF8380000F01400102871
:1003C00040F0E3800D98059A801A089A801A441A22
:1003D000012CC0F2DA800894D7E09DF83A00622838
:1003E0001AD0682806D06A280CD06C281CD0712836
:1003F00008D019E02868286050F8041B28600B9882
:100400000880C2E02868286050F8042B28600B9808
:10041000C117C2E90001B8E02868286050F8041B41
:1004200028600B980870B0E02868286050F8041B1A
:1004300028600B980860A8E02868C01D20F007021B
:100440002A60D2E9000108322A60CDE900010029C2
:1004500002D505982D210AE0BDF83800810702D5A4
:1004600005982B2103E0C00705D50598202100F849
:100470000A10401C059011A8059908180390214600
:1004800000A800F0E5F980E09DF83A006C280DD056
:10049000712818BF6A2809D12868C01D20F00702FA
:1004A0002A60D2E9000108322A6005E02968296043
:1004B00051F8040B29600021CDE900019DF83A00B4
:1004C000682803D1DDE9000180B20BE0622803D186
:1004D000DDE90001C0B205E0742818BF7A2804D114
:1004E000DDE900010021CDE900019DF83800000799
:1004F0002ED5DDE90001002908BF002828D044F0EE
:100500002000782824D10598302100F80A10401CDA
:10051000411C059100F80A401AE09DF83A0029466E
:1005200000F0DCF8CDE90001002902DA05982D2160
:100530000AE0BDF83800810702D505982B2103E0B9
:10054000C00705D50598202100F80A10401C059029
:1005500011A8059908180390214600A800F0F5F8A5
:1005600013E0012005902868286050F8041B2860DB
:100570008DF8441009E025208DF8440001200590F5
:100580001CB18AF80140022005900D980599401A87
:100590000899401A0699401A0999401A0799401A71
:1005A0000A99441A9DF83800400710D420208DF88D
:1005B0004000002609E0012310AA00A9404600F0EF
:1005C0007AFC002840F08580761CA642F3DB059E6D
:1005D0000DF1440B0AE01BF8011B0298C0470028EC
:1005E000029076D00B98401C0B90761E002EF2D114
:1005F00030208DF840004FF0000B089E09E00123E9
:1006000010AA00A9404600F056FC002861D10BF169
:10061000010BB345F3DB069EDDF80CB00AE01BF8D6
:10062000011B0298C0470028029052D00B98401C32
:100630000B90761E002EF2D130208DF840004FF046
:10064000000B099E09E0012310AA00A9404600F012
:1006500032FC00283DD10BF1010BB345F3DB0398CD
:100660000699079E01EB000B09E01BF8011B02989D
:10067000C047029068B30B98401C0B90761E002E6A
:10068000F3D130208DF840004FF0000B0A9E08E0B7
:10069000012310AA00A9404600F00DFCC8B90BF1D7
:1006A000010BB345F4DB9DF8380040077FF569ADD9
:1006B00020208DF84000002600E0761CA642BFF600
:1006C00060AD012310AA00A9404600F0F4FB002809
:1006D000F3D04FF0FF3021B0BDE8F08F622826D074
:1006E00068281DD06A2808D06C2827D0712804D02B
:1006F000742823D07A280CD020E00868C01D20F090
:1007000007000860D0E90023083008601946104649
:1007100070470A680A6052F8040B0A6000217047AB
:100720000A680A6052F8040B0A6000B20BE00A681B
:100730000A6052F8040B0A6040B204E00A680A60DA
:1007400052F8040B0A60C11770472DE9FA4E0546AE
:100750000A462F696F2A08BF082405D041F02000FF
:10076000782814BF0A2410243C26D5E90001642A05
:1007700018BF692A81468A4605D1002903DAD9F1D2
:1007800000096AEB4A0ABAF1000F08BFB9F1000F7D
:100790000CD1286B50B9082C36D195F838000007D9
:1007A00032D530203B2687F83B002DE0E317484642
:1007B0005146224600F0F8FBA4FB0023A9EB0202FD
:1007C0003032D2B2A6F1010B3A2A5E4603DB9DF825
:1007D0000030513B9A1881465FEA010A0BF8072066
:1007E00008BFB9F1000F03D0E868F1198842DDD3E2
:1007F000082C09D195F83800000705D5F05D3028A0
:1008000002D0761E3020F055C6F13C00A861F119E7
:10081000E960296B884208DA081A28624FF6EF71FE
:10082000288F08402887BDE8F38E00290ED595F85B
:10083000381001F01401102908D1696B6A69891A0E
:100840002A6A891A0E1A012EA8BF2E62BDE8F38EFD
:100850002DE9F24F04468EB0D4E90001CDE9020142
:1008600004AF9DF8380040F0200BBBF1610F0AD0B7
:10087000206B002848BF062004D408BFBBF1670FD7
:1008800001D1012020636168C1F30A5040F2FF7278
:1008900090421CD1080304BF2068002809D103201E
:1008A000A0619DF8380061381A2836D30FF24861EC
:1008B00008E00320A0619DF8380061381A2829D388
:1008C0000FF22C61E068032200F0E6FBBEE1012894
:1008D00016DA204600F01BFC012811DB0025002061
:1008E000BBF1610F20D1E168302201F8012B4A1CD5
:1008F000E2609DF83820612A0CBF782258220FE070
:10090000626840F2FE3161F31E52451A62604FF098
:10091000FF30E5E70FF2D451D4E70FF2D851D1E719
:100920000A706169891C616110B90026002584E1A3
:10093000BBF1610F40F09780206BD4E900AB002839
:100940004CBF2126461CDDE902010022002300F0F5
:10095000FFFB36B23ABF8BF00040CDE902A0CDE9F3
:1009600002AB06F101082D1F8DF810200DF11107C3
:1009700000E0C71DB8F1010F33DBDDE90201002201
:10098000002300F0FDFB2CD21C2102A800F010FC7B
:10099000DDE9020100F094FCA8F10708B8F1010FAD
:1009A000814609DB00F0B8FC02460B46DDE9020196
:1009B00000F0CAFCCDE90201F81D072105E009F0AD
:1009C0000F0200F8012D4FEA2919B9F1010F01DBDF
:1009D000491EF4D5491E5CBF002200F8012DF9D54F
:1009E000C7E70DF11100391AB142B8BF0E4636B251
:1009F00030000DF111072FD4884206DA04A94118FE
:100A000049780829A8BF0F2100DA002104AA82181A
:100A100000E0761E12F80139401E8B42F9D00F29F2
:100A200004D104A941184A78521C4A70002802D502
:100A300004AF761C2D1D36B2701E0DD4C1190A7874
:100A40003032D2B23A2A03DB9DF838303A3B9A185A
:100A5000401E01F80129F2D5206B002840F1ED80FD
:100A6000701E2063E9E0DDE902010022002300F0AE
:100A70006FFB3CBF81F00041CDE902012DB247F28E
:100A8000975068434B49DFF8309190FBF1F52DB258
:100A9000C5F1070ABAF1010F90461CDBDDE90267D8
:100AA0005FEACA7007D542464B463046394600F0E9
:100AB0000BFD06460F464046494642464B464FEA26
:100AC0006A0A00F001FDBAF1000F80468946E7D1BD
:100AD000CDE9026724E0CAF1000A0026374F14E08E
:100AE0005FEACA7007D542464B463046394600F0A9
:100AF000EBFC06460F464046494642464B4600F050
:100B0000E3FC4FEA6A0A80468946BAF1000FE7D152
:100B1000DDE9020132463B4600F0A8FDCDE90201C5
:100B2000BBF1660F216BDFF898900CBF05F10A004E
:100B300006204618142EA8BF132630208DF810006A
:100B40000DF11107012E3DDBDDE9020100F0CEFBC6
:100B500007F1080104220A23B0FBF3F303EB830738
:100B6000A0EB4700303001F8010C0A20B3FBF0F095
:100B700000EB8007A3EB47033033521E01F8023D20
:100B8000E9D1083E012E01F10807DBDBDDE90201B6
:100B900000F0ACFB00F0CAFB02460B46DDE90201A7
:100BA00000F0D2FB00224B4600F08EFCCDE90201A2
:100BB000CAE700BFA0860100000024400000F03F0B
:100BC00084D797410DF11100381A0DF1110702E099
:100BD000401E6D1E7F1C39783029F9D0BBF1660F9D
:100BE00002D12DB2691C04E0BBF1650F0CBF0121DD
:100BF0000021226B8E1836B2B042B8BF064636B21C
:100C000031001AD4814204DAC85D3528A8BF3920E2
:100C100000DA3020CA19521E00E0761E12F801399F
:100C2000491E8342F9D0392802D1C85D401CC855FD
:100C3000002902D57F1E761C6D1C2DB29DF8381040
:100C4000009533B23A46204600F003F80FB0BDE8F5
:100C5000F08F2DE9F04305461E46D5F83080012E71
:100C600085B08946174602DA01260FF2902749F02F
:100C70002000BDF93040662808BF641C17D06728E3
:100C800040F0828014F1040FC0F28480444580F269
:100C9000818095F83800641C000702D44645B8BF2F
:100CA000B04624B2B8EB040848BF4FF0000824B2A5
:100CB000E868A969012C25DA4A1C30230B54B8F1E5
:100CC000010F03DA95F83810090702D52E211154C7
:100CD000521C18EB040FB8BFC8F1000424B2A044A2
:100CE0006142B045AA616962B8BF4646AB6936B297
:100CF000EE6132463946181800F0CEF9A8EB06002E
:100D0000A862C1E00818A64218DA3246394600F057
:100D1000C3F9A9697118A01BB8F1010FA961686234
:100D200003DA95F83800000705D5EA682E208854C4
:100D3000E869401CE861C5F82880A5E022463946EC
:100D400000F0AAF9A8692018361BB8F1010F03DAE0
:100D500095F83810090703D5EA682E218154401C04
:100D6000A86136B2B045B8BF4646E868AB6936B24E
:100D70003246E119181800F08FF9A8693018A861F7
:100D8000A8EB060068627FE0B9F1610F16D14FF061
:100D9000700918E0464504DA95F83810090758BF7D
:100DA000B046B8F1010848BF4FF00008B9F1670F2D
:100DB00014BF4FF045094FF0650904E0B9F1410F48
:100DC00008BF4FF05009A969E86817F8013B0B54B8
:100DD0004A1CB8F1010F05DA95F83810090758BF19
:100DE000AA6117D52E211154531CB8F1010FAB6124
:100DF00010DB761E36B2B045B8BF464636B2324634
:100E00003946181800F048F9A8693018A861A8EB0D
:100E100006006862E868A9690918200081F8009056
:100E200003D42B2048708F1C03E02D224A708F1CA6
:100E3000644200260DF1080808E00A2200A800F02C
:100E400040FD019808F8010B761C009C21B2012995
:100E5000F3DA022E06DA49F02000652804BF3020BC
:100E600007F8010B4EB9302007F8010B07E0761E9A
:100E700002A8305C303007F8010B012EF7DAE86881
:100E8000A9690818381AE86195F8380000F01400CC
:100E900010280DD16869A9690818696A0818E969F4
:100EA0000818A96A0818696B8842BCBF081A28622A
:100EB00005B0BDE8F083F8B504460D4616461F465A
:100EC000002004E0E86A401CE8627F1E002047B171
:100ED00016F8011BA868A0470028A860F2D14FF0BF
:100EE000FF30F2BD686A6C747A4C00006E616E006F
:100EF0004E414E00696E6600494E460030000000CB
:100F00000278C9B28A421AB11CBF10F8012FF9E762
:100F100018BF00207047000000F10103810704D0D2
:100F200010F8011B89B18107FAD10268B2F10131D1
:100F3000914311F0803F04BF50F8042FF6E710F8FA
:100F4000011B11B110F8011BFBE7C01A704700002C
:100F5000C9B2830706D0521E22D310F8013B994232
:100F6000F7D11FE0083A13D302F1040241EA01214C
:100F700041EA014150F8043B121F21BF4B40A3F14D
:100F8000013C2CEA030C1CF0803FF3D0C9B2001FD7
:100F9000083210F8013B521E28BF91EA030FF8D81F
:100FA00018BF0120401E70471B4213D1094236D1A1
:100FB0002AB18446B0FBF2F002FB10C2704700F089
:100FC00087BCFCD30022002370470B0002000021E5
:100FD00000207047904271EB030CF6D370B5B1FA64
:100FE00081F4B3FA83F52C1BA340C4F1200532FA37
:100FF00005F63343A2405FF00046E64002E05B089E
:101000005FEA3202841A71EB030524BF20462946A9
:101010007641F4D302000B003000002170BD012A9C
:10102000CFD970B5140C20D0B1FA81F4B2FA82F5A0
:10103000C4F120046419B4F12006D6D3B2405FF0A5
:101040000044F440002502E052085FEA3303C61A68
:1010500071EB020E24BF3046714664416D41F3D3FB
:1010600002000B002000290070BD0C46B1FBF2F11C
:1010700002FB11452D0445EA1045B5FBF2F402FBD5
:10108000145580B240EA0545B5FBF2F002FB105260
:1010900040EA044070BD000062B38B0708D0521EC6
:1010A00011F8013B00F8013B00F024808B07F6D1DA
:1010B000830740F0208000BF103A07D330B4B1E876
:1010C0003810103AA0E83810F9D230BC530724BFCA
:1010D000B1E80810A0E8081044BF51F8043B40F8FC
:1010E000043BD20724BF31F8022B20F8022B44BF67
:1010F0000B7803707047083A07D3B1E80810083A34
:1011000040F8043B40F804CBF7D25307E4E730B48F
:10111000436803F0004201211B031B0B436004BF23
:101120000368002B08D10DE00368DD0F45EA440495
:1011300044605B000360491E4468E302F4D5230366
:101140001B0B436043681A434260084630BC70473B
:101150004FF4001C1CEB410F94BF1CEB430F09E044
:1011600041EA030C50EA4C0C52EA0C0C03D29942AF
:1011700008BF9042704714BF8B4282427047000004
:101180004FF4001C1CEB410F94BF1CEB430F09E014
:1011900041EA030C50EA4C0C52EA0C0C03D28B428D
:1011A00008BF8242704714BF9942904270470000C6
:1011B00070B504460D466068C0F30A5040F2FF71F6
:1011C000884207D16068000304BF2068002817D058
:1011D000022070BD20B92046FFF799FF012868DA88
:1011E000012D0FDB40F2FF71091A8D420AD36068AE
:1011F000002847BF0020304900203049C4E90001E1
:10120000012070BD4142A942616806DA6FF31E51A8
:10121000401941EA0050606042E0401E6368451991
:10122000012205F1350062F31F53352801F000411A
:10123000636003D361600020206070BD002215F15F
:101240001F0F04DA226823600020203560606842A6
:1012500014D0521E25689241C0F12003D2439D4014
:1012600045EAD272256825FA00F6656805FA03F3A7
:1012700033432360636823FA00F5656060680843C0
:10128000B2F1004F606003D80DD12078C0070AD5B5
:101290002068401C2060206828B96068401C60609D
:1012A0004FF0FF3070BD6068884204BF206800289E
:1012B000F6D1002070BD00BF0000F0FF0000F07FFD
:1012C000F446400D40EAC120490006D200F014F86F
:1012D000004248BF6FF00040604700F00DF84FF04B
:1012E000004188428CBF084640426047400D40EABA
:1012F000C120490080F00D8040F00040490DA1F56B
:101300008061491C05D4D1F11F0154BFC840C017EA
:1013100070474FF000007047010040F10980F4462B
:10132000404200F005F851F000416047010000BF65
:1013300009D0B0FA80F18840C91CC1F58461090563
:1013400001EBD02140057047F0B44FF0004591EA21
:10135000030F44BF6B4000F0BDBA00BF841A71EBAD
:10136000030604D26E40001BB141121973414FF4C1
:10137000001C1CEB410F34BF7CEB430684E00C0DDA
:10138000A4EB1356362E7DDC012E43DC45EAC32345
:1013900043EA525312BFD20292025B08240545EA87
:1013A000C12141EA5051D2EBC020994125D407D147
:1013B000B0FA80F610FA06F164D00020203608E07A
:1013C000B1FA81F6B140C6F1200220FA02F21143CF
:1013D000B0404FEAF474B4EB465434F001064FEADF
:1013E00074040AD8D6F50016760D04F00044F040D7
:1013F00061FA06F25040F1404840C00A40EA4150CC
:1014000021F0004128BF5FEA500550F1000044EB95
:10141000D12137E045EAC323DB0A45EAC121C90AE5
:10142000B6F120050EDD42EA0242120CC5F120069B
:1014300003FA06F6EB4042EA06056D42984161F177
:1014400000010DE062FA06F5F240554063FA06FC31
:1014500082EA0C02F3405A406D42904161EB030175
:1014600011F4801F05D1641E620502D06D00404159
:10147000494121F48011430875F1004350F1000007
:1014800041EB0451F0BC70471CEB410F15D223F027
:10149000004352EA43060BD04FEA4C0CBCEB410F21
:1014A00004D80C0D661E342EB7DDEBE7801A994187
:1014B00050EA410608BF0021E4E708BF1CEB430FD8
:1014C00028BF6FF00001DDE7B0B581EA030C0CF036
:1014D000004C40F2FF7515EA11541DBF15EA135771
:1014E000AC42AF4239E0E41923EA455343F4801398
:1014F000C90241F0004141EA505EC7021100A7FB5A
:10150000020200284FF00000EEFB01204FF0000126
:10151000E3FB072118BF42F00102401800214941B6
:10152000E3FB0E01A4F580640F0302D25200404198
:10153000494154F101046CDD470872F1004250F159
:10154000000051EB0451A1F580115CBF41EA0C0190
:10155000B0BD4CEA05510020B0BD05EA1357AC42BE
:1015600014BFAF4241E050EA410E1CBF52EA430EA5
:1015700002E061460020B0BD24423C441BD15FEA3A
:10158000070EF6D0090302BF01460020AEF1140E8B
:10159000B1FA81F7AEEB070401FA07FE0C37C7F189
:1015A000200100FA07F7C8404EEA000E23EA45532F
:1015B00043F48013A2E733F00043B3FA83F704BF88
:1015C000B2FA82FE77440B3FE41BB7F1200E2FBF27
:1015D00002FA0EF3BB40C7F1200E22FA0EFE38BF0E
:1015E00043EA0E03BA40641C82E750EA410E14BF7E
:1015F00052EA430E6FF000014FF4001717EB430F50
:101600008ABF194617EB410FB5E74CEA0551002098
:10161000B0BDD4F10104B4F120070FDAC4F1200702
:10162000520828BF42F0010210FA07F501FA07F745
:10163000E1BF2A43E0403843E1400FE0352C98DC1D
:10164000C7F1200452EA400220FA07F218BF42F024
:10165000010231FA07F0A1400A43002172F1004271
:1016600050F1000051EB0C01B0BD00002DE9F0413C
:1016700040F2FF7581EA030C0CF0004C15EA11549E
:101680001DBF15EA1357AC42AF42E9E0BC41C1F3BC
:101690001301C3F31303801A994143F4801304D256
:1016A000641E4000494180185941C90241EA505125
:1016B000B1FBF3F603FB1611A2FB0675D7EBC020B6
:1016C000A94102D2761E80185941C90241EA5051FF
:1016D000B1FBF3FE03FB1E11A2FB0E75D7EBC0207E
:1016E000A94103D2AEF1010E80185941890241EAA5
:1016F0009051760546EA8E2EB1FBF3F603FB1611E8
:10170000A2FB0675D7EB8020A94102D2761E801875
:101710005941C90241EA50514EEA060EB1FBF3F6B7
:1017200003FB1611A2FB0675D7EBC020A94102D21C
:10173000761E80185941C90241EA5051B1FBF3F7B6
:1017400003FB1711A2FB0735D3EBC020A94167F1BA
:1017500000070CBF004247F0010766F3D5274FEAA8
:101760001E31B80814F5806414DDBD0775F1004220
:1017700050EB0E5051EB045111F5801F5CBF41EA54
:101780000C01BDE8F0814CF07F6141F0E0410020A8
:10179000BDE8F081BD076D0840EA0E5041F48011AC
:1017A000D4F10104B4F120060ADAC4F120060200E3
:1017B000E04001FA06F3E1401843B24015430EE061
:1017C000342C14DCC6F1200445EA40056D0820FAEB
:1017D00006F2154321FA06F0A1400D43002175F1F0
:1017E000004250F1000051EB0C01BDE8F0810020F7
:1017F0005FEA0C01BDE8F081CFB992185B41B3FA02
:1018000083F704BFB2FA82F6BF190B3FB7F1200687
:101810002FBF02FA06F3BB40C7F1200622FA06F6F4
:1018200038BF3343BA401CB1E419641E2FE77F422E
:1018300031F00041B1FA81F404BFB0FA80F6A41986
:101840000B3CB4F120062FBF00FA06F1A140C4F111
:10185000200620FA06F638BF3143A0403C1B16E7AD
:10186000AC421ABF05EA1357AF4214E050EA4106F2
:101870001CBF52EA4306BFE750EA410730466146C3
:101880001CBF41EA0551BDE8F08152EA430C08BF94
:10189000C143BDE8F08100204FF4001616EB410F64
:1018A00098BF16EB430F08BF16EB410F24BFC1438F
:1018B00005E016EB430F0CBF61464CEA0551BDE84D
:1018C000F08191FBF2F303FB1211C0E90031704784
:1018D00070470000841A71EB030603D2001BB1416C
:1018E000121973414FF4001C1CEB410F34BF7CEB09
:1018F000430443E00C0DA4EB1356352E50DC45EAAF
:10190000C323DB0A45EAC121C912B6F120050DDD6A
:1019100063FA05F6EB4086EA0305124218BF45F06C
:101920000105C01851F100010CD213E062FA06F56E
:10193000F2405540F3415A40B340F3405A408018BA
:10194000594107D349085FEA30005FEA350528BFEF
:1019500045F0010501F58011420875F1004250F192
:10196000000041EB0451F0BC4FF4001C1CEB410F94
:1019700038BF70470020090D090570471CEB410F67
:1019800010D252EA43060BD0BCEB410F05D80C0D28
:10199000AB43661E342EB5DD02E0AB4380185941DF
:1019A000F0BC7047F0BC70472DE9F34F83B01400D2
:1019B0001D000E9E0F9FDDF84080DDF844904146EB
:1019C000200080B200F028FC8246BAF1000F6ED0F1
:1019D000DAF83000A4B210EB8400001F83465FEAFF
:1019E000DB0B5FEACB0B200080B200904B4632004D
:1019F0000499504600F04EFB2A000399584600F027
:101A00002BFDCAF80000002F01D0C7F800A000F09D
:101A100054FDDFF870060068401CDFF868160860A7
:101A2000DFF8F007006800280BD1DFF8E807C0F8FE
:101A300000A0DFF850060068012811D100F060FB1B
:101A40000EE0DFF844060068002809D1DFF8C4077B
:101A50000068C06A864203D3DFF8B807C0F800A068
:101A6000DFF828060068401CDFF820160860DFF861
:101A70001C060068CAF84400DFF81406006801215B
:101A8000DAF82C2091400843DFF8041608601AF1B8
:101A90000401DFF8C006DAF82C20142303FB02004F
:101AA00000F05DFD0120019000F014FD02E05FF008
:101AB000FF300190019801280CD1DFF8CC050068B7
:101AC000002807D0DFF84C070068C06AB04201D296
:101AD00000F0EAFC019805B0BDE8F08F38B50400CD
:101AE00000F0EBFC002C03D1DFF82807056800E0CC
:101AF0002500281D00F05CFD002812D1DFF85406F7
:101B0000E96A142202FB01000068002809D1DFF80D
:101B1000800500680121EA6A91408843DFF870156A
:101B20000860A86A002803D015F1180000F040FDF5
:101B3000291DDFF8240600F012FDDFF820060068FA
:101B4000401CDFF818160860DFF840050068401CEC
:101B5000DFF83815086000F0BDFCDFF82C050068E0
:101B600000280DD0DFF8AC060068854202D100F0F5
:101B70009BFC05E000F0A1FC00F084FB00F0AAFC57
:101B800031BD2DE9F84304000D005FF0000800F0BE
:101B900066F8DFF83406D0F80090206828180600B0
:101BA0002068814507D2206886420BD2B14509D210
:101BB0000120804606E02068864201D3B14501D26B
:101BC000012080462660B8F1000F19D0DFF84406E6
:101BD0000068001D00F0ECFC00280ED1DFF8340690
:101BE0000068DFF8AC1409680122C06A12FA00F03C
:101BF00031EA0000DFF898140860300000F0E6FADF
:101C000000F035F80700002F01D100F04DFCBDE8D1
:101C1000F1831FB500200390002002900020019066
:101C20000020009000236022DFF8E4170FF2394013
:101C3000FFF7BAFE0400012C10D100F0ECFC5FF0BD
:101C4000FF30DFF8D01708600120DFF83C1408608F
:101C50000020DFF87415086000F010FC1FBDDFF8ED
:101C60008C070068401CDFF884170860704738B59F
:101C7000002500F022FCDFF874070068401EDFF842
:101C80006C170860DFF864070068002857D1DFF898
:101C9000F4030068002852D0DFF87C0700680028B1
:101CA0002AD0DFF87407C068C068040014F1180077
:101CB00000F07EFC201D00F07BFCDFF8D403006800
:101CC0000121E26A91400843DFF8C4130860211D36
:101CD000DFF88004E26A142303FB020000F03FFCFB
:101CE000E06ADFF830150968C96A8842D4D3012058
:101CF000DFF830170860CFE7DFF82007006800281A
:101D000014D0DFF81807006800280FD000F027F87B
:101D1000002803D00120DFF80C170860DFF8FC066C
:101D20000068401EDFF8F4160860EAE7DFF8F40602
:101D30000068012803D10120050000F0B5FB00F088
:101D4000C9FB280032BDDFF880140968080070471D
:101D500000221100DFF870241268100070472DE98E
:101D6000F0410026DFF88406006800287CD1DFF807
:101D700058040068401CDFF850140860DFF848047D
:101D80000768002F16D1DFF8A00600688046DFF84C
:101D900090060068DFF890160860DFF88406C0F847
:101DA0000080DFF888060068401CDFF880160860B5
:101DB00000F068FADFF85C06006887423ED3DFF87F
:101DC000680600680068002805D15FF0FF30DFF882
:101DD0004416086032E0DFF850060068C068C0684A
:101DE000040060680500AF4203D2DFF828060560F2
:101DF00024E0201D00F0DCFBA06A002803D014F1D1
:101E0000180000F0D5FBA24800680121E26A914069
:101E100008439F490860211DDFF83803E26A142354
:101E200003FB020000F09BFBE06ADFF8E81309689F
:101E3000C96A8842C3D301200600C0E7DFF8140353
:101E4000DFF8D0130968C96A142202FB0100006898
:101E5000022801D301200600DFF8C0050068002831
:101E60000BD100F003FC08E0DFF8B0050068401C6F
:101E7000DFF8A815086000F0F9FBDFF8A805006896
:101E8000002801D0012006003000BDE8F08180B5B7
:101E9000DFF858050068002804D00120DFF8841519
:101EA000086033E00020DFF87C150860DFF8640389
:101EB0000068006BDFF85C1309680968884209D381
:101EC000DFF85003006810F13401DFF848030068C0
:101ED00000F0F8FB6E490968B1FA81F1D1F11F01F8
:101EE00008009C4A142303FB002211004A68526830
:101EF0004A604A6811F108039A4202D14A6852685E
:101F00004A604968C968DFF80C23116001BD70B5EB
:101F100004000D00DFF8FC02006810F11801200039
:101F200000F029FBDFF8EC020068001D00F040FB28
:101F300000280CD1DFF8DC0200685549096801224D
:101F4000C06A12FA00F031EA00005149086015F148
:101F5000010F08D1DFF8BC020068011DDFF8FC03A7
:101F600000F0FDFA07E0DFF8CC040068281806004E
:101F7000300000F02BF970BD70B50400E068C06857
:101F8000050015F1180000F013FBDFF8600400688D
:101F9000002813D1281D00F00BFB3D4800680121EB
:101FA000EA6A914008433A490860291D6948EA6A8B
:101FB000142303FB020000F0D2FA05E015F118012A
:101FC000DFF8540400F0CBFA92480068C06AE96A6E
:101FD000884206D2012006000120DFF85414086070
:101FE00001E000200600300070BDDFF840140968F1
:101FF0000160DFF84014096841607047F8B50400DB
:102000000D0000F05AFA70480768286810F1010FB7
:1020100002D1002006001DE0DFF8100400682168EE
:10202000884205D06068874202D30120060011E093
:102030006068381A296888420AD22868C01B61681B
:10204000081828602000FFF7D0FF0020060001E0FC
:102050000120060000F03EFA3000F2BD0120DFF85A
:10206000D01308607047000010B5040000F078F845
:10207000DFF8C4030068022801D300F015FA00F06D
:102080002FFBF3E70CD3002018D3002028D3002027
:1020900014D300202DE9F04104000D0016001F00AC
:1020A00000208046B8F1100F0CD218F8050018EB8C
:1020B000040181F8340018F90500002802D018F155
:1020C0000108EFE7002084F843000C2E01D30B2019
:1020D0000600E662E66400202065201D0021016103
:1020E00014F11800002101612461D6F10C00A061F7
:1020F000646200206065002084F85800BDE8F0812B
:1021000010B5002004000C2C07D21248142101FB4A
:10211000040000F015FA641CF5E7DFF8200300F076
:102120000FFADFF81C0300F00BFADFF8EC0200F006
:1021300007FA094800F004FA884800F001FADFF8CD
:10214000FC02DFF8E4120860DFF8F402DFF8D012D6
:10215000086010BD70CE002070D2002008D300208F
:1021600038B5DFF8E002006800282BD0FFF777FDD4
:10217000DFF8D4020068002801D1012400E0002427
:10218000FFF775FD002CECD100F097F9DFF8B802ED
:10219000C068C0680500281D00F00AFADFF8AC022C
:1021A0000068401EDFF8A4120860DFF8980200689B
:1021B000401EDFF89012086000F08CF9280000F053
:1021C00058F8CEE731BD000010D3002010B5040050
:1021D000104800684460DFF85C020068844208D25E
:1021E0000C480068011DDFF83802006800F0C3F9F0
:1021F0000FE008480068011DDFF82C02006800F0BD
:10220000BAF9DFF810020068844202D2DFF8040253
:10221000046010BDFCD200202DE9F84304000D003D
:10222000002D04D1A4B2A00000F0FCFA00E02800C8
:102230000700002F0BD05C2000F0F4FA0600002EFF
:1022400001D0376305E0380000F055FB01E00020C5
:102250000600002E0AD0A4B2A7005FF0A508D6F8A9
:10226000309042463900484600F0E0FB3000BDE8BF
:10227000F28310B50400206B00F03DFB200000F05D
:102280003AFB10BDDFF8A01109680968002904D1E4
:102290005FF0FF315F4A116008E0DFF88C110968D8
:1022A000C968C968080041685A4A1160704738B562
:1022B00004002500002C4FD0E86ADFF8941109686B
:1022C000C96A884248D2A869002806D4DFF880018C
:1022D0000068C06AD0F10C00A8616869DFF8581185
:1022E000EA6A142303FB0211884230D1281D00F052
:1022F0005FF9002812D1DFF84001E96A142202FBDD
:1023000001000068002809D1DFF8480100680121B8
:10231000EA6A91408843DFF83C110860DFF8300139
:102320000068C06AE862DFF82C0100680121EA6AEF
:1023300091400843DFF81C110860291DDFF8F80000
:10234000EA6A142303FB020000F009F904E0DFF855
:1023500000010068C06AE86231BD000084D200203C
:1023600070B5040025000026002C3CD0286D401ECE
:102370002865E86AE96C884235D0286D002832D19A
:10238000281D00F015F9002812D1DFF8AC00E96A29
:10239000142202FB01000068002809D1DFF8B40014
:1023A00000680121EA6A91408843DFF8A8100860BC
:1023B000E86CE862E86AD0F10C00A861DFF89400EC
:1023C00000680121EA6A91400843DFF8881008603C
:1023D000291DDFF86400EA6A142303FB020000F001
:1023E000BEF801200600300070BD000030D3002090
:1023F000DFF85C000068002805D0DFF854000068B2
:10240000016D491C0165DFF8480000687047000055
:10241000DCA400082CD300205CD200201CD30020B8
:1024200004D3002020D3002000D3002024D3002098
:1024300020D3002010D3002070CE002034D2002002
:1024400048D2002008D3002070D200200CD30020F6
:10245000FCD2002014D30020001F5FF080730360C3
:10246000001F0160001F0FF20D03036014380260AB
:102470002038704780B500F0CEF8FEE780B52A48D6
:10248000006850F47F00284908602748006850F031
:102490007F402549086000F03AF800202349086091
:1024A00000F0D3F8002002BD5FF0805020490860A2
:1024B000BFF34F8FBFF36F8F704780B500F0ABF85D
:1024C0001A480068401C19490860BFF34F8FBFF3DA
:1024D0006F8F01BD80B515480068401E1349086024
:1024E00012480068002802D1002080F3118801BD45
:1024F00080B500F090F8FFF732FC002803D05FF0C1
:1025000080500B490860002080F3118801BD094804
:1025100000686421B0FBF1F0401E07490860072005
:10252000064908607047000020ED00E048020020E6
:1025300004ED00E05002002014E000E010E000E0B4
:1025400010F1080141605FF0FF31816010F1080176
:10255000C16010F10801016100210160704742680B
:102560004A6093688B609368596091600861036862
:102570005B1C0360704710B40B6813F1010F02D1AC
:102580000469220008E010F108042200546824685D
:10259000A34201D35268F9E754684C604C68A160CB
:1025A0008A60516008610468641C046010BC704754
:1025B000010008698A684B689A604A688B685A60AB
:1025C00042688A4201D18A68426000220A61026838
:1025D000521E026000687047EFF30980BFF36F8FEF
:1025E000204B1A6820E9F00F106008B54FF0BF00CB
:1025F00080F31188FFF74BFC4FF0000080F3118847
:10260000BDE8084019680868B0E8F00F80F3098851
:10261000BFF36F8F7047EFF311804FF0BF0181F36D
:102620001188704780F3118870470E4B196808684D
:10263000B0E8F00F80F30988BFF36F8F4FF0000010
:1026400080F311884EF00D0E70470748006800684F
:1026500080F3088862B661B6BFF34F8FBFF36F8F08
:1026600000DF0000FCD2002008ED00E010B51248A9
:102670000068401C1049086000F02DFA0F480468FB
:10268000002C03D0206880476468F9E710BD00B5CE
:1026900085B000A800F056FA00984FF47A71B0FBAC
:1026A000F1F06421B0FBF1F00549088005B000BDF0
:1026B0000148006870470000F4D20020F8D20020E2
:1026C0005802002038B504000D002900034800F02E
:1026D00071FB2000FFF702FA31BD0000589E000890
:1026E00030BF704710B584B000A847491CC91CC052
:1026F0000C390C384FF496710A2000F06DFB022063
:1027000000F0CAFC00A9012001F00FFAFF233F4AA4
:102710000521002001F0FAFAFF233C4A052101209F
:1027200001F0F4FAFF23394A0521092001F0EEFAFD
:10273000FF23364A05211F2001F0E8FA02214FF459
:10274000407001F0BEFC022001F048FD042001F0C1
:1027500045FD052001F042FD1FBD2DE9F8430400B1
:102760004FF4807000F0C9FC05002021280001F022
:1027700085FD4FF47A71280000F0BAFD0600002EA6
:10278000F7D0300001F00EFE0128F2D1D6F80A0091
:10279000C0F3853009280ED1378916F10E08DFF80D
:1027A00070903A0041464846FEF776FC3089194958
:1027B000486001F0D9FE300000F0DFFBD9E7F0B54A
:1027C0008BB004000D0002F0A4FAFFF78BFF05A800
:1027D00011491422FEF770FC002105A802F09EFBAF
:1027E000060000A80D491422FEF766FC002100A88F
:1027F00002F094FB07000A4800F0DCFA02F07EFBCE
:1028000000200BB0F0BD00009CA100088801002052
:1028100070CD002068CD002034A0000848A000083A
:1028200020A000082DE9F04104005FF00008FFF748
:1028300016FA77480068002801D100F080F8754842
:102840000068044252D1002C0AD073480068041971
:1028500014F0070F04D014F1080014F00701441A13
:10286000002C43D06D480068A0423FD36C4806005E
:102870006B48006805006868A04205D228680028F7
:1028800002D02E002D68F6E76148006885422DD001
:1028900030686149096808188046286830605E48D9
:1028A000006840006968091B884208D26019070067
:1028B0006868001B78606C60380000F077F8574853
:1028C00000686968401A55490860544800685549CD
:1028D0000968884203D25148006852490860686814
:1028E0004C4909680843686000202860FFF7BFF979
:1028F0004046BDE8F08170B504002600002C1DD0D4
:1029000045480068361A3500686842490968084237
:1029100014D02868002811D168683E4909688843A6
:102920006860FFF79CF93D480068696808183B49F2
:102930000860280000F03AF8FFF799F970BD30B44C
:102940004FF44843384C220012F0070F05D0D21D37
:10295000D208D2009B1A344CE3181100304C21608D
:1029600000242F4D6C605C1822002B4C2468121B35
:10297000D208D200264C22600024254D2D686C60C0
:102980000024234D2D682C600800141A4460204C4C
:10299000246804604468234D2C6044681F4D2C60FB
:1029A0005FF000441B4D2C6030BC704710B41C4BD2
:1029B0001A001368834201D21268FAE711005368C3
:1029C0005B18834204D153684468E31853601000D5
:1029D000010043685B181468A34211D113680C4CC2
:1029E0002468A34208D0436814686468E31843600D
:1029F00013681B68036005E0054B1B68036001E07A
:102A000013680360824200D0106010BC7047000061
:102A1000E4D20020F0D2002004A50008E8D2002073
:102A200098D20020ECD200206002002062F30F2236
:102A300062F31F42401810F0030308D0C91A1FD3D5
:102A4000DB0748BF00F8012D28BF20F8022D130036
:102A500030B414461546103928BF20E93C00FAD896
:102A6000490728BF20E90C0048BF40F8042D890021
:102A700028BF20F8022D48BF00F8012D30BC704758
:102A8000C91818BF00F8012DCB0728BF00F8012D89
:102A90007047000000200100C9B2202919DA21483E
:102AA000C9B2085C50F004001E4AC9B288541D48DF
:102AB000C9B2085C10F0FE001A4AC9B2885419481D
:102AC000C9B2085C10F0FD00164AC9B28854491C0E
:102AD000E2E70120704738B500200400E4B2202C62
:102AE0001EDA1048E4B2205CC00717D50E48E4B2E5
:102AF00050F82450FFF7DCFD85420FD10948E4B2BD
:102B0000205C50F004000749E4B260540548E4B288
:102B1000205C10F0FE000349E4B26054641CDDE761
:102B200031BD000014D20020A8D000200021DFF821
:102B300054221268110031F440410143DFF844226D
:102B4000116070472DE9F04100210022002300248C
:102B50000025002600275FF0000CDFF828E2DEF8F1
:102B600000E01EF00C0E71468E46BEF1000F06D03E
:102B7000BEF1040F08D0BEF1080F0AD062E0DFF802
:102B80000CE2C0F800E061E0DFF804E2C0F800E029
:102B90005CE0DFF8F0E1DEF800E01EF4701E724643
:102BA000DFF8E0E1DEF800E01EF4803E7346920CB0
:102BB0000D2A01D0921C02E05FF0060E7246002B37
:102BC00006D1DFF8D0E10EFB02FEC0F800E038E0ED
:102BD000DFF8B4E1DEF800E01EF4803E7546DFF871
:102BE000A8E1DEF800E01EF00F0E1EF1010E7646A1
:102BF000002D08D1DFF898E1BEFBF6FE02FB0EFEC9
:102C0000C0F800E01DE0DFF880E1DEF800E0CEF380
:102C1000031E1EF1010E7746DFF86CE1DEF800E0DE
:102C2000CEF3032E1EF1020EF446DFF864E1BEFB84
:102C3000F7FE0CFB0EFEBEFBF6FE02FB0EFEC0F81E
:102C400000E003E0DFF844E1C0F800E0DFF834E141
:102C5000DEF800E01EF0F00E71460909DFF838E1F9
:102C600011F80EE07446D0F800E0F04638FA04F8A7
:102C7000C0F80480DFF80CE1DEF800E01EF4E06E3E
:102C80007146090ADFF810E111F80EE07446D0F839
:102C900004E0F04638FA04F8C0F80880DFF8E4E011
:102CA000DEF800E01EF4605E7146C90ADFF8E8E075
:102CB00011F80EE07446D0F804E0F04638FA04F853
:102CC000C0F80C80DFF8BCE0DEF800E01EF4404EF7
:102CD0007146890BDFF8C4E011F80EE07446D0F8B5
:102CE0000CE0BEFBF4FEC0F810E0BDE8F08149B294
:102CF000002905D02A4A12680243294B1A6004E0D1
:102D0000274A12688243264B1A60704749B200294D
:102D100005D0244A12680243224B1A6004E0214A7B
:102D2000126882431F4B1A60704749B2002905D0D0
:102D30001D4A126802431C4B1A6004E01A4A1268CA
:102D40008243194B1A60704749B2002905D0174ACF
:102D500012680243154B1A6004E0144A1268824359
:102D6000124B1A60704749B2002905D0104A126808
:102D700002430F4B1A6004E00D4A126882430C4B69
:102D80001A607047041002402C10024000127A00B2
:102D90000024F40000093D00300200204C02002015
:102DA00014100240181002401C1002400C10024087
:102DB000101002400EB400B582B003A90091024683
:102DC00000AB0121034878440A30FDF7C1F906BC85
:102DD0005DF810FB817100002DE9F04782B004001E
:102DE0000D009A48046015F112009949086098484E
:102DF000006810F10807F81C8008870093480068F5
:102E000007FB00F8404602F0B6F892490860914886
:102E10000068002834D004218C48006802F0B7F81C
:102E20008D4908608C480068002804D189480068F2
:102E300002F0A7F824E05FF000098648D0F800A06F
:102E40004A4641465046FFF7F1FD002006007F4804
:102E50000068864212D27F48006807FB0600009097
:102E6000002000990860009800994860002200A99D
:102E70007948006802F094F8761CE8E7002001E049
:102E80005FF0FF30BDE8F68710B582B00400002087
:102E900000906F48006814F1120188420AD26F480E
:102EA0000078002804D022006D49002001F046F986
:102EB000002033E0002200A96748006802F08CF887
:102EC0000098002809D165480078002803D065499A
:102ED000002001F033F9002020E06048C07800288D
:102EE00006D000984368009A5F49032001F026F954
:102EF000009800994968884209D05848007800280D
:102F000003D05A49002001F019F9002006E000988A
:102F10000068401C009908600098083016BD1CB578
:102F2000040000200190002C26D0B4F1080000908D
:102F300000980421B0FBF1F202FB1102002A1BD120
:102F4000009840680099884216D1009800680028CF
:102F500012D000980068022805D300980068401E2F
:102F60000099086008E000200099086001AA00A903
:102F70003948006802F025F813BD10B582B004008E
:102F8000002C08D135480078002803D038490020AB
:102F900001F0D4F858E0B4F1080000900098042142
:102FA000B0FBF1F202FB1102002A09D02B48007895
:102FB000002804D022002F49002001F0BFF843E090
:102FC000009840680099884209D024480078002879
:102FD00004D022002849002001F0B0F834E0009825
:102FE0000068002809D11D480078002804D0009A04
:102FF0002249002001F0A2F826E00098006802288B
:1030000010D300980068401E0099086013480078AB
:10301000002806D000980368009A1949002001F0A2
:103020008DF811E00020009908600C48C078002855
:1030300004D0009A1349032001F080F8002200A96F
:103040000548006801F0ACFF13BD0000B4D20020B9
:10305000B8D20020B0D20020ACD200204002002024
:103060002098000880A0000860A100086C9F00085C
:10307000F89B000848980008889A0008189C0008E7
:10308000AC9A00086CA10008DFF89813087070472C
:10309000DFF890030078704738B504002000C0B214
:1030A000FFF7F2FF01F0E5FF0500002D01D0280039
:1030B00022E001F0D7F80500002D01D028001BE028
:1030C00002F034F90500002D01D0280014E0DFF8EB
:1030D000580302F0BDF9FFF7DBFFFF23DFF84823B9
:1030E0000521C0B200F012FEFF23DFF83C230521CA
:1030F000202000F00BFE002032BD38B50400E007B0
:103100000BD5DFF828030078002804D0DFF820135F
:10311000002001F013F8002043E0E0060BD5DFF8B3
:103120000C030078002804D0DFF80813002001F019
:1031300005F8002035E060070BD5DFF8F0020078D5
:10314000002804D0DFF8F012002000F0F7FF002084
:1031500027E0DFF8E80204420BD0DFF8D002007865
:10316000002804D0DFF8D812002000F0E7FF00208C
:1031700017E0012002F023F80500002D01D1002006
:103180000FE0E00509D50421642001F000FF68612B
:103190006869002803D1002003E000206861EC6129
:1031A000280032BD2DE9F04387B006000F0090469D
:1031B0009946002F0AD1DFF874020078002804D065
:1031C000DFF88012002000F0B9FF8CE0B8F1000FAA
:1031D00003D0D8F8080000280BD1DFF8500200789F
:1031E000002805D03200DFF86012002000F0A6FFB2
:1031F00079E0DFF838020079002817D0D8F800000D
:10320000059038890490F0B20390B00F0290C6F395
:1032100005200190C6F385300090C6F30453C6F331
:103220004462DFF82812042000F088FFC7F80A6023
:10323000FFF72EFFC6F34461C9B2C0B281422ED15E
:10324000300000070AD5DFF8E4014078002804D0F8
:10325000DFF8FC11012000F071FF3FE03000C007F3
:1032600010D50021380002F02BF900280AD0DFF831
:10327000BC014078002804D0DFF8D811012000F00C
:103280005DFF2BE03000400709D5684840780028F2
:1032900004D0DFF8C411012000F050FF1EE03C898B
:1032A000B8F80C50ADB2002D03D0ADB2A4B2A54217
:1032B00014D34A4639004046D8F8083098470028C9
:1032C0000CD1D8F81000401CC8F81000D8F82C0019
:1032D000A4B22018C8F82C00002006E0D8F8180086
:1032E000401CC8F818007FF0090007B0BDE8F08363
:1032F00038B504000D00002C02D0E069C00501D4EF
:10330000002007E0002000902A0000A9606901F079
:1033100063FE009832BD2DE9F84F04000D00160041
:103320001F00DDF82880DDF82C90DDF830A0D9F8FA
:103330000A00000A0002C9F80A005FEAC8700AD54C
:103340003A480078002803D04449002000F0F6FEF7
:103350007FF0010063E05FEA48700AD533480078E7
:10336000002803D03E49002000F0E8FE7FF0040072
:1033700055E05FEAC8600AD52C480078002803D0E1
:103380003849002000F0DAFE7FF0040047E05FEAF1
:10339000486005D5D9F80A0050F00100C9F80A00C4
:1033A000EDB2D9F80A0065F31850C9F80A00F6B270
:1033B000D9F80A0066F39330C9F80A00FFF768FEEF
:1033C000C0B2D9F80A1060F35D61C9F80A10FFB203
:1033D000D9F80A0067F30D20C9F80A00E4B2D9F859
:1033E0000A0064F39F70C9F80A002800C0B200F018
:1033F00073FC8346002010EB0901897A00AA8154EE
:10340000401C0428F7D353465A4649460098FFF714
:10341000C9FE002802D07FF0040000E00020BDE8D3
:10342000F28F000039D30020C401002040020020A8
:10343000F49200084C930008A4930008AAFEFFFF32
:10344000C49E000838990008DC9E0008A495000876
:1034500034920008F49E0008D09100086496000899
:10346000FC930008AC940008FEB504000D001600A3
:103470001F00002C02D17FF0010017E00297019598
:103480000096D4F80A00800B10F03F03D4F80A002D
:10349000000A10F03F02D4F80A00400E10F01F019D
:1034A000D4F80A00800FC0B2FFF735FFFEBD000060
:1034B00080B502F069F802F06DF802F07BF8800543
:1034C000800DDFF874170860DFF8700702F0EFF87E
:1034D000012801D100200BE0DFF864070078002804
:1034E00004D0DFF86017002000F028FE5FF0FF3006
:1034F00002BD10B54FF47A71DFF8400702F0EAF828
:10350000012802D07FF0020017E0DFF82C070068E6
:103510000400DFF824070068401CDFF81C1708606F
:10352000DFF8140700688005800DDFF80C170860CD
:10353000DFF8080702F0ECF8200010BD00200100C1
:10354000052913DADFF80007182303FB0100020046
:1035500000201080002090600020D06000201074B7
:103560000020506100205060491CE9E700207047AE
:1035700010B5040002F008F8606110BD10B5040039
:10358000E068002802D0E068FFF7F7FC0020E06068
:1035900000202074002020800020A06000206061B6
:1035A00000206060002010BDF8B504000027002056
:1035B0000500052D15DADFF89006182101FB05003E
:1035C000060096F91000002809D101203074B4607B
:1035D000002070603000FFF7CBFF370001E06D1C6A
:1035E000E7E73800F2BD2DE9F04104000D005FF07F
:1035F000000800200600052E16DADFF84C06182118
:1036000001FB0600070097F9100001280AD1B868ED
:10361000284015EA0401884204D13800FFF7A8FFCA
:10362000B84601E0761CE6E74046BDE8F08170B59B
:1036300000200400052C21DADFF80C06182101FB1C
:103640000400050095F91000012815D101F09CFF38
:1036500006006869301A42F2117188420CD3DFF813
:10366000E0054078002804D0DFF8E015012000F0E4
:1036700065FD2800FFF782FF641CDBE770BD2DE9C4
:10368000F84F04002768DFF8C8153800FFF7ABFFD4
:103690000500002D31D1C7F38040002819D1380032
:1036A000FFF782FF0500002D27D1DFF89405407851
:1036B000002804D0DFF89C15012000F03FFDDFF862
:1036C0009805C069401CDFF89015C8615FF0FF30B5
:1036D00009E1DFF86C054078002804D0DFF87C159C
:1036E000012000F02BFDDFF87005806A401CDFF838
:1036F000681588627FF00100F5E000200600B80C34
:1037000010F00100002802D0012879D0DDE02079F6
:10371000062814D2DFF828054078002804D0DFF806
:103720004015012000F00AFDDFF82C05806A401CDE
:10373000DFF8241588622800FFF720FFD2E0E86850
:10374000002811D0DFF8F8044078002804D0DFF812
:103750001415012000F0F2FCDFF8FC04806A401C24
:10376000DFF8F41488621CE04FF48070FFF78CFBE4
:10377000E860E868002814D1DFF8C4040078002865
:1037800004D0DFF8E414002000F0D8FCDFF8C8040F
:10379000806A401CDFF8C01488622800FFF7EEFE44
:1037A000A0E05FF0040814F108000090E86810F150
:1037B0000A09424600994846FDF76EFCE868D0F8D1
:1037C0000A0001F0DCFFE968C1F80A005FF00209B5
:1037D00014F10C0AE86810F1080B4A4651465846A5
:1037E000FDF75AFCE868008901F0B6FFE968088136
:1037F0000020288006200600C7F38720401C686050
:10380000C7F387206968491E884214D0DFF8300466
:103810000078002804D0DFF85414002000F08EFC5B
:103820002800FFF7ABFEDFF83004806A401CDFF8A9
:103830002814886256E06868401E6860E86800895D
:10384000298822795118F6B2891B884214DADFF8E8
:10385000F0030078002804D0DFF81414002000F0F2
:103860006DFCDFF8F403806A401CDFF8EC1388621B
:103870002800FFF783FE35E02079F6B2B0EB0608AA
:10388000F6B2301910F10809E8682988081810F113
:103890000E0A424649465046FDF7FEFB288821792C
:1038A0000818F6B2801B28802888E96809898842B0
:1038B00018D10022DFF8A013E86801F064FD0020B1
:1038C000E8602800FFF75AFE0CE0DFF87403407848
:1038D000002804D0DFF89C13012000F02FFC280002
:1038E000FFF74CFE0020BDE8F28F30B585B0040034
:1038F0004FF47A7200A9DFF88003006801F06CFBD6
:103900000500012D02D0FFF792FEF1E700A8FFF7B6
:10391000B6FEEDE738B504000D002A002100D648B8
:10392000006801F04EFB012802D05FF0FF3000E09C
:10393000002032BD2DE9F54F89B00C00FFF7D9FD0D
:103940000600002E0AD5BE484078002803D0CB4997
:10395000012000F0F3FB7FF00100E3E006208DF88A
:103960000100D4F80A00000D10F01F0000F0C1F9AA
:103970008DF800009DF80000FF2806D1D4F80A0059
:10398000000D10F01F008DF800000027D4F80A0089
:10399000400810F0F85007439DF8000010F01F0099
:1039A00057EAC047B005800D074320899DF80110F4
:1039B0000818401E082190FBF1F0C0B257EA80279A
:1039C0009DF80100D0F108008DF802009DF802007A
:1039D000218980B2884202D3B4F808B001E09DF892
:1039E00002B0D4F80A0001F0BEFE0290208901F076
:1039F000ADFEADF804000420079002A806900DF17A
:103A00000C08079A06994046FDF746FB5FF002084E
:103A10000DF104090DF1100A424649465046FDF7E2
:103A20003BFB5FFA8BFB14F10E00059003A89DF899
:103A3000011011EB000A5A4605995046FDF72CFB80
:103A40005FFA8BFB5D469DF801001BEB0002D2B2D2
:103A500003A9380001F016FF00280AD07848407802
:103A6000002803D08649012000F068FB7FF00A009F
:103A700058E02089ADB2854250D22089ADB2401BBA
:103A8000082802DB5FF0080B02E02089B0EB050B91
:103A90005FF00008D4F80A00400810F0F85050EA2F
:103AA00008089DF8000010F01F0058EAC048B00553
:103AB000800D50EA080858F480282089ADB2401BD8
:103AC0005FFA8BFBB0EB0B00C01D082190FBF1F0FF
:103AD000C0B258EA80285FFA8BFB1BEB05055A46FB
:103AE000D2B2ADB228195FFA8BFBB0EB0B0010F12C
:103AF0000E01404601F0C6FE0028BAD0504840787A
:103B0000002803D05F49012000F018FB524880696B
:103B1000401C514988617FF00A0003E02000FFF754
:103B20002CFA00200BB0BDE8F08FF0B583B0040094
:103B30000D00FFF703FD00280AD041480078002857
:103B400003D05149002000F0F9FA5FF0FF306FE038
:103B5000FFF7AEFC00280AD039480078002803D0CF
:103B60004A49002000F0EAFA5FF0FF3060E0E4B27A
:103B7000002C03D15FF47800070010E0E4B2012CC0
:103B800002D1002007000AE02D480078002803D069
:103B90003F49002000F0D2FA7FF0010048E01021F8
:103BA000642001F0F4F934490860334800680028C3
:103BB0000AD123480078002803D03649002000F0BD
:103BC000BDFA5FF0FF3033E03348019003200090EE
:103BD000002340F2DC5217A1304801F0ADFE060090
:103BE000002E0AD016480078002803D02C49002067
:103BF00000F0A4FA5FF0FF301AE0FFF749FA2A005C
:103C00003900C0B210F01F00C00401F0CBFD002845
:103C10000AD00B480078002803D02249002000F089
:103C20008DFA7FF00A0003E00B4801F011FC002040
:103C3000FEBD000043414E00C8D20020CCD200207F
:103C4000400200207098000828D10020789C0008CD
:103C5000FF03F81F3C9B000888010020609B0008C0
:103C6000CC9D0008A89F00089C970008989C00081D
:103C7000BC9F0008849B0008D4D2002098980008BC
:103C8000C0980008E8980008109900083C970008C0
:103C9000D09F0008B89C0008D0D20020EB38000864
:103CA000E89D0008D89C000801002E48C9B20522F2
:103CB00002FB01000068002805D02A48C9B205228D
:103CC00002FB010007E02748D0F8A000002801D03F
:103CD000254800E00020704710B504002000C0B265
:103CE000FFF7E2FF0100002901D1002000E0086891
:103CF00010BD10B504002000C0B2FFF7D5FF0100D1
:103D0000002901D1FF2000E0087910BDF8B50400BA
:103D10000D0016001F00002E02D17FF001001FE0F1
:103D2000300001F095FBE4B2212C0DDA0D48E4B22D
:103D3000052101FB040006600A48E4B2052101FBED
:103D40000400077100200BE008480078002805D027
:103D5000E4B222000649002000F0F0F97FF00100F3
:103D6000F2BD000060CF002000D000204002002003
:103D70008899000838B504000D00A87A40070FD5CF
:103D8000DFF87C030078002804D0DFF878130020E7
:103D900000F0D4F9606A401C60627FF0040024E007
:103DA000A87A00070FD5DFF858030078002804D060
:103DB000DFF85413002000F0C1F9606A401C606213
:103DC0007FF0040011E0A87A80070DD5CC48007878
:103DD000002803D0CD49002000F0B0F9E069401C74
:103DE000E0617FF0040000E0002032BD70B5040007
:103DF0000D001600B07AC0071FD53089042808DAF4
:103E0000BF480078002804D03289C149002000F062
:103E100095F90021300001F083FB002817D0B84845
:103E20000078002803D0BB49002000F087F9E8693A
:103E3000401CE8617FF065000AE0600607D5B048E5
:103E40004078002803D0B449012000F077F9002021
:103E500070BDF0B58BB0040007A801F084FA00280B
:103E600002D05FF0FF3023E108980690A448007963
:103E7000002828D0079800680590069800890490CB
:103E80000698807AC0B203900698D0F80A00800F96
:103E900002900698D0F80A00C0F305200190069819
:103EA000D0F80A00C0F3853000900698D0F80A00D8
:103EB000C0F304530698D0F80A00C0F3446297494F
:103EC000042000F03BF9FFF7E3F80699D1F80A1057
:103ED000C1F30451C9B2C0B281423BD00698D0F8B8
:103EE0000A00C0F304501F2834D00698D0F80A0006
:103EF000000D10F01F00FFF7EFFE0700002F06D0A7
:103F00000798874208D10798807B002804D106983B
:103F1000FFF733F80020CBE0002006994118897A9A
:103F20000AAA8154401C0428F7D300233A000699BA
:103F30000A98FFF737F900280AD07148407800281E
:103F400003D07749012000F0F9F80698FFF715F83B
:103F50000020ADE006990798FFF70CFF002804D079
:103F60000698FFF70AF80020A2E00698D0F80A00A9
:103F7000C0F3853000F05AF90600002E24D0F06915
:103F8000C00521D5069A0799F069FFF72FFF002891
:103F900004D50698FEF7F1FF002089E0002206A96B
:103FA000706900F0FDFF01280CD05548007800280A
:103FB00003D05C49002000F0C1F80698FEF7DDFF51
:103FC000002075E0002073E057490698D0F80A00F9
:103FD00001F0BBF80500002D59D1002E04D1069840
:103FE000FEF7CBFF002063E0069A0799F069FFF720
:103FF000FDFE002804D50698FEF7BFFF002057E01D
:104000000698D0F80A00800F80070700FFF740F8F5
:10401000C0B260F35D670698D0F80A00C0F3446050
:1040200060F318570698D0F80A00C0F3052060F333
:1040300093370698D0F80A00C0F3853060F30D2757
:104040000698807AC0B260F30707002006994118ED
:10405000897A09AA8154401C0428F7D339000998A9
:1040600001F0FDF80500002D0CD12548007800284E
:1040700003D02E49002000F061F80698FEF77DFF7E
:10408000002015E070696861F069E8610BE0069A4C
:104090000799E869FFF7AAFE002804D50698FEF7FD
:1040A0006CFF002004E00699280001F069FC002064
:1040B0000BB0F0BD10B504005FF0FF30FFF7C9FE94
:1040C000FAE77CB504000D00194801900095002323
:1040D000220092B209A1174801F02EFC0600002E22
:1040E0000AD007480078002803D01349002000F0C8
:1040F00025F85FF0FF3000E0002076BD5254450007
:104100004002002094920008549400080095000892
:10411000189D0008F49700086C970008E4950008C3
:104120000C9F0008209E000800FFFF3F389D0008FC
:10413000E0D20020B54000083C9E00080CB4F8B561
:1041400004000D00F02664B2072C04DA344864B28F
:10415000205C002800D13EE064B2002C0CD0022C80
:1041600007D00CD3042C10D00CD3062C13D00FD3B3
:1041700014E01320060012E0122006000FE01420C5
:1041800006000CE00620060009E00320060006E019
:104190000520060003E00720060000E01BE006A85B
:1041A00007001E480068002807D03A0029002000B8
:1041B00040B21A4B1B6898470DE03000C0B201F0C6
:1041C00017FC3900280001F067FC13A0FEF7F2FD90
:1041D000F02001F00DFCF1BC5DF80CFB10B5040003
:1041E00064B2072C03DB0F48FEF7E4FD12E00C4835
:1041F00064B2205C002801D0002000E001200849C2
:1042000064B26054064864B2225C64B2210006487D
:10421000FEF7D0FD10BD00000D0A0000C4D2002042
:1042200040020020949F0008AC9E0008010000227C
:10423000202901D3002014E0314810F93100012871
:1042400005D12F4810EBC1004068020008E02C485F
:1042500090F90001012803D12948D0F80401020097
:104260001000704770B54FF484740025244E2A0066
:1042700021003000FEF7DAFB002070BD38B50400E5
:104280000D00002C02D17FF0010037E0EDB2212DAE
:104290000BDB1C480078002804D020221A4900209B
:1042A000FFF74CFF7FF0010028E01548EDB210F950
:1042B000350000280CD013480078002805D0EDB256
:1042C0002A0012490020FFF739FF7FF0030015E0B4
:1042D0000C488078002806D0EDB22B0022000C4953
:1042E0000220FFF72BFF0648EDB210EBC50044603B
:1042F00001200349EDB201F83500002032BD000075
:1043000060CC00204002002054950008049E000864
:10431000F89C000803B4BDF804000099086102B0DD
:10432000704738B504000D008148007A002804D099
:10433000804AD2E90001FFF7EDFF7D4880797E4990
:104340004988C9B2884205D07948817989B201206B
:1043500000F009FC012032BD3EB50400774800683A
:10436000774909680818FEF78FFD050015F10E0062
:1043700001F042FC714800687149096808182881F9
:104380004FF47A7002900195002000906D48036808
:10439000DBB26C480268D2B22100C9B20220FEF73B
:1043A000BAFF37BDF8B50400002C02D15FF0FF3032
:1043B000BCE0D4F80A00C0F385306249096888423D
:1043C00012D1208900280DD1D4F80A00400E10F037
:1043D0001F052800C0B2FFF7BFFF2000FEF7CDFD8C
:1043E0000020A3E00120A1E0D4F80A00C0F385304A
:1043F00055490968884201D0012097E020890028AA
:1044000005D12000FEF7B9FD5FF0FF308EE014F11A
:104410000E0528780A3806D0401E022819D9C01E79
:10442000012849D97EE0E67B2000FEF7A6FD208921
:10443000022802DA5FF0FF3078E0F6B2002E03D0F7
:104440001F20FFF789FF02E00920FFF785FF00200A
:104450006CE02089042805DA2000FEF78EFD5FF06D
:10446000FF3063E0E878FEF70FFD0600002E05D16F
:104470002000FEF782FD5FF0FF3057E02878B07330
:10448000E878401C3081338916F10F02B5F801102D
:1044900028780B38C0B201F00BFB0700002F06D4C0
:1044A0004FF47A73002231002000FEF7DDFF200078
:1044B000FEF763FD002039E02089042805DA20009A
:1044C000FEF75BFD5FF0FF3030E00220FEF7DCFC22
:1044D0000600002E05D12000FEF74FFD5FF0FF30F3
:1044E00024E02878B07301203081EB789BB22A1D3C
:1044F000B5F8011028780D38C0B201F029FB07008B
:10450000002F03D5FF20F073022030814FF47A731F
:10451000002231002000FEF7A7FF2000FEF72DFD4E
:10452000002003E02000FEF728FD0020F2BD00007F
:10453000A0D100200CA4000800F80108F0A4000895
:10454000F4A40008FCA40008F8A4000803B4BDF813
:1045500004000099086102B0704703B4BDF804007C
:104560000099486102B0704700B585B00020ADF8F1
:1045700004001020ADF8060041F26F70ADF808009D
:104580000020ADF80A0000208DF80C0001A9594860
:1045900001F058FB01220121564801F0ABFB192024
:1045A0008DF8000001208DF8030001208DF8010036
:1045B00000208DF8020000A801F0DEFB00204E492B
:1045C000088001214B4801F087FB05B000BD80B594
:1045D0000121484801F0B7FB48484068002816D53B
:1045E0000020474908705FF0FF30464908700020FE
:1045F00045490870002041490860444AD2E9000159
:10460000FFF7ABFF00213B4801F066FB70E03D483F
:1046100090F90000002813D538483849096808186F
:10462000007A3949087035480068401C33490860F1
:1046300032484068401E31494860002031490870C6
:10464000334890F90000002819D02F480078000660
:1046500009D5304AD2E90001FFF778FF4FF4207006
:104660002549088007E02C4AD2E90001FFF76EFFD8
:10467000A0202149088000202549087019E022481F
:104680000078000609D5254AD2E90001FFF765FF49
:104690004FF4FA701849088008E0214AD2E9000175
:1046A000FFF75BFF4FF43E60134908800120184973
:1046B000087013480078401C1149087010480078B1
:1046C000322815DB00200E4908700F4800784000A2
:1046D0000D4908700B480078401C0A4908700948C9
:1046E00090F90000082803DB5FF0FF3005490870EF
:1046F00001BD0000002C0140242C014068CD0020A9
:104700003BD300205A0200203CD3002014A4000810
:104710005B0200201CA4000824A400082CA40008AC
:1047200034A4000803B4BDF804000099086102B085
:10473000704703B4BDF804000099486102B07047A7
:1047400003B400988068BDF80410084201D001202D
:1047500000E0002040B202B0704738B504000D0000
:104760000221200001F0A8FB0028F9D0290089B21D
:1047700020008181C0460121200001F09DFB00281E
:10478000F9D020008089C04680B232BD80B50121B9
:104790000120FEF7BBFA01215FF48020FEF7C5FA85
:1047A00001214FF40060FEF7B1FA01BD10B50323FB
:1047B0000022DFF8D045D4E9000101F0DDFB03233E
:1047C0000022DFF8C445D4E9000101F0D5FB032342
:1047D0000022DFF8B845D4E9000101F0CDFB032346
:1047E0000022DFF8AC45D4E9000101F0C5FB03234A
:1047F0000022DFF8A045D4E9000101F0BDFB03234E
:104800000022DFF89445D4E9000101F0B5FB032351
:104810000022DFF88845D4E9000101F0ADFB032355
:104820000022DFF87C45D4E9000101F0A5FB032359
:104830000022DFF87045D4E9000101F09DFB03235D
:104840000022DFF86445D4E9000101F095FB032361
:104850000022DFF85845D4E9000101F08DFB032365
:104860000022DFF84C45D4E9000101F085FB032369
:104870000022DFF84045D4E9000101F07DFB03236D
:104880000022DFF83445D4E9000101F075FB032371
:104890000022DFF82845D4E9000101F06DFB032375
:1048A0000022DFF81C45D4E9000101F065FB032379
:1048B0001822DFF81045D4E9000101F05DFB032365
:1048C0001822DFF80445D4E9000101F055FB032369
:1048D0001822DFF8F844D4E9000101F04DFB03236E
:1048E0001822DFF8EC44D4E9000101F045FB032372
:1048F0001822DFF8E044D4E9000101F03DFB032376
:104900001822DFF8D444D4E9000101F035FB032379
:104910004822DFF8C844D4E9000101F02DFB03234D
:104920004822DFF8BC44D4E9000101F025FB032351
:104930000022DFF8B044D4E9000101F01DFB03239D
:104940000022DFF8A444D4E9000101F015FB0323A1
:104950000022DFF89844D4E9000101F00DFB0323A5
:104960000022DFF88C44D4E9000101F005FB0323A9
:104970000022DFF88044D4E9000101F0FDFA0323AE
:104980001022DFF87444D4E9000101F0F5FA0323A2
:104990001022DFF86844D4E9000101F0EDFA0323A6
:1049A0001022DFF85C44D4E9000101F0E5FA0121AE
:1049B000DFF8500401F091FB03231022DFF8484494
:1049C000D4E9000101F0D8FADFF84024D2E900016F
:1049D000FFF7AFFE03231022DFF83444D4E90001CF
:1049E00001F0CAFADFF82C24D2E90001FFF7A1FE9A
:1049F00003231022DFF82044D4E9000101F0BCFABF
:104A0000DFF81824D2E90001FFF793FE03231022F8
:104A1000DFF80C44D4E9000101F0AEFADFF8042419
:104A2000D2E90001FFF785FE03231822DFF8F843DF
:104A3000D4E9000101F0A0FA03231822DFF8EC43C7
:104A4000D4E9000101F098FA03232822DFF8E043BB
:104A5000D4E9000101F090FADFF8D823D2E900018F
:104A6000FFF760FE03230422DFF8CC43D4E9000102
:104A700001F082FA03231022DFF8C043D4E90001D9
:104A800001F07AFA03231022DFF8B443D4E90001DD
:104A900001F072FA03231822DFF8A843D4E90001D9
:104AA00001F06AFA03230422DFF89C43D4E90001F1
:104AB00001F062FA0121DFF8940301F00EFB0323F9
:104AC0000422DFF88C43D4E9000101F055FA0323F6
:104AD0001822DFF88043D4E9000101F04DFA0323E6
:104AE0004822DFF87443D4E9000101F045FA0323BA
:104AF0001022DFF86843D4E9000101F03DFADFF845
:104B00006023D2E90001FFF714FE03231022DFF82F
:104B10005443D4E9000101F02FFADFF84C23D2E925
:104B20000001FFF706FE03231022DFF84043D4E91B
:104B3000000101F021FADFF83823D2E90001FFF784
:104B4000F1FD10BDCB484088CB498871704780B5D6
:104B500001F00CFB342001F072FBC84801F01AFB95
:104B600001F00FFB01BD2DE9FC4104000D00002CFC
:104B700001D4032C01DB002033E00626BD4F0DF1EC
:104B80000008320039004046FCF786FA00A820F8F9
:104B9000145072B601F0EAFA342001F050FBADB2C5
:104BA000002D12D0B54801F0F5FABDF80010B34859
:104BB00001F01FFBBDF80210B14801F01AFBBDF86F
:104BC0000410B04801F015FB07E00021600000F17F
:104BD000006010F5FC3001F00CFB01F0D2FA62B677
:104BE0000120BDE8F68170B54FF47A7001F067FBE3
:104BF000A54AD2E90001FFF7A3FD0400A34AD2E9C8
:104C00000001FFF79DFD64B2844201D0012000E065
:104C10000020C0B2002806D09D4AD2E90001FFF76B
:104C20008FFD0400EAE764B2002C07D19948FEF733
:104C3000C1F89948FEF7BEF8FFF789FF012101206E
:104C4000FEF773F84FF4FA724FF4FA415FF08040C8
:104C500001F03AFB87480088002802D08F48FEF711
:104C6000A9F800258348008800284CD001215FF076
:104C7000804001F058F8002837D001215FF08040D3
:104C800001F05DF886480068401C854908600323F0
:104C90000422844ED6E9000101F06EF903231022AC
:104CA000814ED6E9000101F067F9804AD2E900019E
:104CB000FFF738FD0A2001F002FB7D4AD2E900012E
:104CC000FFF737FD032304227A4ED6E9000101F0F5
:104CD00053F903231022784ED6E9000101F04CF974
:104CE0006F4801687548FEF765F86D48006841F245
:104CF00070718842B6DB7248FEF75CF80021002034
:104D0000FFF731FFAEE700215FF0804000F0E4FFE5
:104D100070BD00B585B0FFF739FDFFF747FD0320F3
:104D200003900220029001200190102000900023A7
:104D300008220321634801F029FBFDF7A8FCFDF7D9
:104D4000A9FE6149022001F0DEFC0621022001F0EB
:104D50006BFCFFF748FFFFF7F5FE002210215B48D0
:104D600001F0ECFE5A4AD2E90001FFF7E2FC802193
:104D70005448FFF7F2FC574AD2E90001FFF7D2FC92
:104D800005B000BDDCA10008E4A10008ECA100080A
:104D9000F4A10008FCA1000804A200080CA200086D
:104DA00014A200081CA2000824A200082CA20008DB
:104DB00034A200083CA2000844A200084CA200084B
:104DC00054A200085CA2000864A200086CA20008BB
:104DD00074A200087CA2000884A200088CA200082B
:104DE00094A200089CA20008A4A20008ACA200089B
:104DF000B4A20008BCA20008C4A20008CCA200080B
:104E0000D4A2000800023000DCA20008E4A20008DE
:104E1000ECA20008F4A20008FCA2000804A3000809
:104E20000CA3000814A300081CA3000824A3000876
:104E30002CA3000834A300083CA3000844A30008E6
:104E40004CA3000854A300085CA300081000140041
:104E500064A300086CA3000874A300087CA30008E6
:104E600084A300088CA3000894A300089CA3000856
:104E7000A4A3000800F80108A0D1002000F8010850
:104E800002F8010804F80108ACA30008B4A3000864
:104E9000BCA3000870A00008789D0008409A000894
:104EA000A0D20020C4A30008CCA30008D4A300080B
:104EB000DCA30008E4A30008ECA30008D4A10008C8
:104EC000649A000800380040200200200002002000
:104ED000F4A30008FCA300080100002009B2842903
:104EE00002D009B2CA1C10187047EFF305800028E1
:104EF00001D0012000E00020C0B2704780B5FCF76F
:104F000088FE002002BD80B5FFF7EFFF002802D029
:104F1000FCF71EFF01E0FCF716FF02BD30B585B0BF
:104F200004000D00B4F90800FFF7D6FF002103913B
:104F30000021029104A9019100902B00226992B2F4
:104F400021686068FCF730FD012801D0002000E0F6
:104F5000049805B030BD70B504000D000A20B5FB03
:104F6000F0F6002E01D0310000E001212000FCF716
:104F700008FE002070BD10B504002000FDF752FCB3
:104F800010BD10B504002000FDF7B5FC10BD38B50C
:104F900004000D0000222900200001F0A4FE32BD13
:104FA00070B504000D00160016F1010F02D00A20A2
:104FB000B6FBF0F6002332002900200001F0EBFEE2
:104FC00070BD70B504000D001600002332002900EA
:104FD000200001F05CFF70BD70B504000D001600EC
:104FE00016F1010F02D00A20B6FBF0F600233200C2
:104FF0002900200001F086FF70BD10B504002000DC
:1050000002F01DF810BD000032B50400002C02D1E2
:105010007FF001002CE00098002807D00098D0F81D
:105020000A00800F01000020050001E000200500BB
:10503000002200A914EB85000069FFF7B1FF0128E9
:1050400015D0DFF8B002007800280DD014EB8500F1
:105050000069FFF7D2FF030014EB85000269DFF857
:1050600098120020FFF76AF85FF0FF3000E00020A0
:1050700032BD70B500F088FA00F08CFA00F09AFAB0
:10508000202190FBF1F202FB110212F12000DFF867
:105090006C120870DFF8680200F009FB01280CD0E0
:1050A000DFF850020078002804D0DFF85812002002
:1050B000FFF744F85FF0FF3046E000200400052CC5
:1050C0002EDA00200500012D0CDADFF83C0210EB8F
:1050D000441010EB850604216420FFF758FF30616F
:1050E0006D1CF0E70020DFF8201211EB441148702E
:1050F000DFF8140210EB4410001D00F0CBFA012879
:105100000CD0DFF8F0010078002804D0DFF8FC11A3
:105110000020FFF713F85FF0FF3015E0641CCEE7C6
:10512000DFF8EC0100F0C3FA01280CD0DFF8C4016D
:105130000078002804D0DFF8DC110020FEF7FEFF25
:105140005FF0FF3000E0002070BD30B402000020AE
:105150000300052B16DADFF8B00110EB4310040052
:1051600094F9010000280BD094F90000002807D121
:10517000A068084011EA0205A84201D1200002E01F
:105180005B1CE6E7002030BC704738B50400002007
:105190000500012D11DA002200A914EB8500006939
:1051A000FFF71AFF012806D100980028F3D00098D5
:1051B000FDF7E3FEEFE76D1CEBE7002032BDF8B52D
:1051C00004006421DFF8480100F084FA01280BD0C4
:1051D000DFF820010078002804D0DFF83C1100201F
:1051E000FEF7ACFF002039E0DFF83001007807005F
:1051F000781C052190FBF1F201FB1207002005004D
:10520000052D0FDA404810EB4710060096F9010013
:10521000002807D0781C052190FBF1F201FB120752
:105220006D1CEDE796F9010001280CD1314800789A
:10523000002803D03A490020FEF780FF344800F0F0
:1052400067FA00200AE0012070700020706134705D
:10525000324807702E4800F05BFA3000F2BD70B59E
:1052600004000D000020FFF7AAFF0600002E07D063
:10527000B460F56000F088F9B0613000FFF785FF99
:10528000300070BD10B50400002C0AD11948007818
:10529000002803D023490020FEF750FF7FF00100D3
:1052A00027E094F90100002809D11248407900282C
:1052B00003D01D490520FEF741FF002019E06421BD
:1052C000134800F007FA01280AD00A48007800289D
:1052D00003D011490020FEF731FF7FF0020008E003
:1052E000002060702000FFF750FF094800F010FA1E
:1052F000002010BD40020020389C000837D3002059
:10530000C0D20020D09A000808D00020F49A0008EB
:10531000BCD20020189B0008949D000838D30020C0
:10532000B09D0008589C0008809F000810B5002020
:105330000400012C15DA414850F8240000280ED151
:1053400008210A20FFF723FE3C4941F824003B488E
:1053500050F82400002802D15FF0FF3002E0641C06
:10536000E7E7002010BD10B504005FF0FF32210018
:1053700032480068FFF730FE012802D07FF00200BB
:1053800000E0002010BD2DE9FC4104000D001600D6
:10539000002C08D12A484078002803D02949012050
:1053A000FEF7CCFE48E0002D11D1254840780028BA
:1053B00003D025490120FEF7C1FE002E03D12000B5
:1053C000FDF7DBFD02E02000FDF7A9FD34E00095CC
:1053D00001945FF00008002E08D1002200A91748B0
:1053E00050F82800FFF7DCFD070007E0320000A9B5
:1053F000124850F82800FFF7E4FD0700012F14D0F1
:105400000F484078002803D010490120FEF796FE8F
:10541000286A401C2862002E03D12000FDF7ADFD54
:105420000AE02000FDF77BFD06E06869401C68612A
:10543000286B218908182863BDE8F381DCD200209D
:105440004002002060990008C8970008D496000820
:105450000D490968002904D10B49086000218163C6
:1054600010E009490968814204D08A6B002A01D002
:10547000896BF8E7814205D08A6B002A02D18863E4
:105480000022826370470000D8D2002010B40200CE
:105490005FF0FF3318000B00591E002B09D0074B9B
:1054A00014784440E4B253F8243093EA1020521C9C
:1054B000F1E75FF0FF33584010BC7047F0890008F7
:1054C0002DE9F04182B004000D00002C02D17FF0E4
:1054D000010023E06DB2002D07D02089011D14F1D9
:1054E0000A00FFF7D3FF009005E0218914F10E00B8
:1054F000FFF7CCFF0090009800F035F900900426EB
:1055000000AF2089001910F10E0832003900404622
:10551000FBF7C2FD2089001D20810020BDE8F68137
:1055200038B504000D00002C02D17FF001002AE004
:105530002089042802D27FF0010024E06DB2002D02
:1055400006D0218914F10A00FFF7A0FF009006E0C1
:105550002089011F14F10E00FFF798FF00900098BA
:1055600000F001F90090042200A9208900190A30F6
:1055700001F02AFE002802D07FF0010003E020891C
:10558000001F2081002032BD80B5FCF7DCFB0A2122
:10559000484302BD10B504460448C046C046002139
:1055A00001700348C046C046046010BD00000020E2
:1055B00004000020F8B5344F3846C046C0460446C3
:1055C000381DC046C046054607F10800C046C04623
:1055D000064607F10C00C046C04623782B492C4AEA
:1055E000002B40D12B6802FB03132B60082702FB22
:1055F00003132B6002FB03132B6002FB03132B60CE
:1056000002FB03132B6002FB03132B6002FB03134B
:105610002B6002FB03132B600346D5F800C002FB8E
:105620000C1CC5F800C043F804CB7F1ED5F800C0A1
:1056300002FB0C1CC5F800C043F804CBD5F800C031
:1056400002FB0C1CC5F800C043F804CBD5F800C021
:1056500002FB0C1CC5F800C043F804CBDDD1C36FBE
:105660003360012323702B6802FB0311296031781A
:1056700001F01F0150F8212032602A6840F82120F3
:10568000306880008008F2BD000000205FF36E3CAF
:105690000D66190010B50400012001F04EFB2060DA
:1056A0002068002801D0012000E0002010BD10B5C6
:1056B000040003220021012001F015FB2060206876
:1056C000002805D0002300220021206801F063FBA0
:1056D000012010BD38B504000D001948807900285C
:1056E00004D0220017490620FEF728FD15F1010F0E
:1056F00002D00A20B5FBF0F500232A000021206823
:1057000001F000FC012801D1012000E0002032BDA1
:1057100010B504000A488079002804D022000A4904
:105720000620FEF70BFD002300220021206801F077
:1057300032FB012801D1012000E0002010BD000053
:105740004002002078A1000884A1000880B2010274
:1057500051EA102080B2704710B50400200080B2DA
:10576000FFF7F4FF10BD010651EA106110F47F420B
:1057700051EA0221000A10F47F400843704710B537
:1057800004002000FFF7EFFF10BD000010B586B049
:10579000040000A8FDF7D6F90298B0FBF4F0C008A9
:1057A00006B010BD70B588B004000D00160030685A
:1057B0005E49086001215FF00070FDF7B6FA5C48B1
:1057C00001F034FD01A801F069FE00208DF80A0007
:1057D00001208DF80B0000208DF80C0001208DF8C1
:1057E0000D0000208DF80E0001208DF80F00002024
:1057F0008DF8060000208DF8070004208DF80800C1
:1058000001208DF8090049480068FFF7BFFFADF897
:10581000040001A9464801F025FD01220221444867
:1058200001F05AFF00208DF81A0000208DF81B00AF
:1058300001208DF81C000020ADF810000020ADF80C
:1058400012000020ADF814000020ADF81600002072
:10585000ADF8180001208DF81D0004A801F094FD9A
:1058600014208DF8000005208DF8010000208DF82F
:10587000020001208DF8030000A800F07DFA00204E
:1058800008B070BDF0B585B004000D001600002012
:105890000090019400208DF8090004208DF8080084
:1058A0008DF80A600020C0B2F6B2B04207D2C0B292
:1058B000415D00AAC0B28218D172401CF3E7FF20FC
:1058C000C0B2002801D0401EFAE700A9184801F034
:1058D000FCFD0700FFB2042FF1D0002005B0F0BDA1
:1058E00000B589B00221124801F001FF04AA00218D
:1058F0000F4801F07DFE059800909DF81A008DF884
:1059000004000020C0B2082809DA04A9C0B2411876
:10591000C97A00AAC0B282181172401CF2E7054988
:1059200000A8FDF7F7FF09B000BD0000A4D20020D9
:1059300000640040A8D200202DE9F04385B00400A7
:105940000D0016001F00DDF83080DDF834900020D7
:10595000039000200290CDF80490CDF800803B0029
:10596000320092B229002000FCF71EF80100012944
:1059700002D05FF0FF3000E0002005B0BDE8F0830A
:1059800011B581B00C0021000198FFF73DFB002804
:105990000BD514480078002803D013490020FEF7E7
:1059A000CDFB2000FDF7E9FA1AE0019840690028D4
:1059B00016D0002201A901984069FFF7F1FA0128E9
:1059C0000BD008484078002803D008490120FEF792
:1059D000B5FB0198FFF756FC02E0002001994861F1
:1059E00013BD00BF40020020589D0008B099000878
:1059F00070B50400E4B214F00F00C0B201280CD05E
:105A000023D303280FD00BD3052812D00ED3072899
:105A100015D011D3082815D017E01E20050016E078
:105A20001F20050013E02020050010E021200500C4
:105A30000DE0222005000AE02320050007E02420D5
:105A4000050004E02520050001E000200500E4B287
:105A500014F0F000C0B2102806D0202807D030285B
:105A600008D0402809D00BE0012006000AE00220FF
:105A7000060007E00320060004E00420060001E021
:105A8000002006002A0031000248FDF793F970BD9E
:105A90000000000090A1000802B5024600AB012101
:105AA00002487844801DFAF753FB02BDA944000068
:105AB0002DE9F04104000D0016001F00E4B2002C97
:105AC00003D0022C2BD015D33EE0ADB2BFB2781973
:105AD000002802D0D5F101000700BFB25348ADB293
