:020000040800F2
:10000000F0DD0020C19F0008C9950008CB950008CD
:10001000D3950008D5950008D7950008000000008A
:10002000000000000000000000000000C13F0008C8
:10003000D995000800000000693F0008ED3B00086A
:1000400089A100088DA1000891A1000895A10008D0
:1000500099A100089DA10008A1A10008A5A1000880
:10006000A9A10008ADA10008B1A10008B5A1000830
:10007000B9A10008BDA1000833250008C1A10008EE
:10008000C5A1000821250008C9A10008CDA10008CC
:10009000D1A10008D5A10008D9A10008DDA1000860
:1000A0004D82000805830008E1A10008A580000832
:1000B0000D81000875810008DD810008E5A10008B8
:1000C000E9A10008EDA10008F1A10008F5A10008D0
:1000D000F9A10008EB240008F72400080325000814
:1000E000FDA1000801A2000805A20008078300087E
:1000F000098300080B830008E58100080F2500082C
:1001000009A200080DA20008DF81000811A2000862
:1001100015A2000819A20008E1810008E381000887
:100120001DA2000821A2000825A2000829A200089B
:100130002DA2000831A2000835A2000839A200084B
:100140003DA200080152000841A2000845A2000893
:1001500049A200084DA2000851A2000855A20008BB
:1001600059A200085DA2000861A2000865A200086B
:1001700069A200086DA2000871A2000875A200081B
:1001800079A200087DA200082DE9F04FA1B08046B9
:10019000002017461D4602910B900DF1440A6FF0A6
:1001A00000490AE017F8011B0298C0470028029096
:1001B00000F0AB820B98401C0B90387808B90B9874
:1001C000A5E22528EED10020059006900790089022
:1001D00009900A9001E040F0010017F8011F202962
:1001E000F9D023290DD02B2904D02D2906D0302970
:1001F0000AD00CE040F0020080B2EEE740F00400CC
:10020000FAE740F00800F7E740F01000F4E72A2989
:100210000ED12968296051F8042B2960002A0D921B
:1002200004D5514240F004000D9180B27F1C11E0D2
:1002300000210D9109E00D99494505D001EB81039D
:1002400002EB430130390D917F1C3A78A2F1300165
:100250000A29F0D339782E2903D04FF0FF310C91C1
:100260001DE017F8011F2A2907D1296829607F1C82
:1002700051F8042B29600C9211E000210C9109E047
:100280000C99494505D001EB810302EB430130395C
:100290000C917F1C3A78A2F130010A29F0D3ADF815
:1002A00038000FF67840397800F04AFE08B117F8A8
:1002B000010B8DF83A009DF83A00682802BF3978A2
:1002C0006829622005D06C2804BF38786C2803D1D7
:1002D00071208DF83A007F1C11A8049017F8014B8B
:1002E000B4F1250029D01C3800F0C280001F02287C
:1002F00040F2BE80133800F0E380093800F0B88087
:10030000801E00F04A81401E00F02381401E02281A
:1003100040F2AE80001F00F01C81401F79D0401ECB
:1003200000F0CE80401E24D0C01E0BD0801E00F0F6
:10033000C780C01E00F0C48039E125208DF844003C
:1003400001203DE12868286050F8046B286003967E
:100350000C9C002C04D5304600F0FEFD044606E05F
:1003600022460021304600F013FE00B1841B0694A3
:1003700027E1296829603C2451F8040B29600021F9
:10038000CDE9000111A80390DDE90001049E11B937
:1003900008B90C9AB2B10206120FA0EB0212303269
:1003A000D2B2631E3A2AA8BF2732000940EA017080
:1003B00009099A5508BF00281C4603D0039AA319BF
:1003C0009A42E8D3A0190390C4F13C010C9806911D
:1003D000814209DA401A08904FF6EF71BDF83800F3
:1003E0000840ADF83800ECE0002840F1EA809DF8C4
:1003F000380000F01400102840F0E3800D98059AB2
:10040000801A089A801A441A012CC0F2DA800894E3
:10041000D7E09DF83A0062281AD0682806D06A28EA
:100420000CD06C281CD0712808D019E028682860EE
:1004300050F8041B28600B980880C2E028682860E8
:1004400050F8042B28600B98C117C2E90001B8E0EE
:100450002868286050F8041B28600B980870B0E0EA
:100460002868286050F8041B28600B980860A8E0F2
:100470002868C01D20F007022A60D2E90001083276
:100480002A60CDE90001002902D505982D210AE056
:10049000BDF83800810702D505982B2103E0C0077D
:1004A00005D50598202100F80A10401C059011A8D8
:1004B000059908180390214600A800F0E5F980E0AE
:1004C0009DF83A006C280DD0712818BF6A2809D110
:1004D0002868C01D20F007022A60D2E90001083216
:1004E0002A6005E02968296051F8040B2960002181
:1004F000CDE900019DF83A00682803D1DDE900014B
:1005000080B20BE0622803D1DDE90001C0B205E052
:10051000742818BF7A2804D1DDE900010021CDE953
:1005200000019DF8380000072ED5DDE90001002903
:1005300008BF002828D044F02000782824D105984E
:10054000302100F80A10401C411C059100F80A40B7
:100550001AE09DF83A00294600F0DCF8CDE90001E8
:10056000002902DA05982D210AE0BDF8380081073C
:1005700002D505982B2103E0C00705D50598202159
:1005800000F80A10401C059011A80599081803905E
:10059000214600A800F0F5F813E001200590286836
:1005A000286050F8041B28608DF8441009E02520CD
:1005B0008DF84400012005901CB18AF8014002200A
:1005C00005900D980599401A0899401A0699401A05
:1005D0000999401A0799401A0A99441A9DF8380057
:1005E000400710D420208DF84000002609E00123A8
:1005F00010AA00A9404600F07AFC002840F085804F
:10060000761CA642F3DB059E0DF1440B0AE01BF8B5
:10061000011B0298C0470028029076D00B98401C1E
:100620000B90761E002EF2D130208DF840004FF056
:10063000000B089E09E0012310AA00A9404600F023
:1006400056FC002861D10BF1010BB345F3DB069E8C
:10065000DDF80CB00AE01BF8011B0298C047002827
:10066000029052D00B98401C0B90761E002EF2D1B7
:1006700030208DF840004FF0000B099E09E0012367
:1006800010AA00A9404600F032FC00283DD10BF131
:10069000010BB345F3DB03980699079E01EB000BB2
:1006A00009E01BF8011B0298C047029068B30B9841
:1006B000401C0B90761E002EF3D130208DF84000A8
:1006C0004FF0000B0A9E08E0012310AA00A9404643
:1006D00000F00DFCC8B90BF1010BB345F4DB9DF83C
:1006E000380040077FF569AD20208DF840000026D6
:1006F00000E0761CA642BFF660AD012310AA00A957
:10070000404600F0F4FB0028F3D04FF0FF3021B05A
:10071000BDE8F08F622826D068281DD06A2808D04E
:100720006C2827D0712804D0742823D07A280CD0C4
:1007300020E00868C01D20F007000860D0E9002311
:10074000083008601946104670470A680A6052F877
:10075000040B0A60002170470A680A6052F8040B13
:100760000A6000B20BE00A680A6052F8040B0A60E3
:1007700040B204E00A680A6052F8040B0A60C1172C
:1007800070472DE9FA4E05460A462F696F2A08BFC1
:10079000082405D041F02000782814BF0A24102432
:1007A0003C26D5E90001642A18BF692A81468A4699
:1007B00005D1002903DAD9F100096AEB4A0ABAF136
:1007C000000F08BFB9F1000F0CD1286B50B9082CED
:1007D00036D195F83800000732D530203B2687F80F
:1007E0003B002DE0E31748465146224600F0FCFB53
:1007F000A4FB0023A9EB02023032D2B2A6F1010B16
:100800003A2A5E4603DB9DF80030513B9A18814638
:100810005FEA010A0BF8072008BFB9F1000F03D007
:10082000E868F1198842DDD3082C09D195F8380021
:10083000000705D5F05D302802D0761E3020F05537
:10084000C6F13C00A861F119E960296B884208DA19
:10085000081A28624FF6EF71288F08402887BDE8F4
:10086000F38E00290ED595F8381001F014011029E7
:1008700008D1696B6A69891A2A6A891A0E1A012EC7
:10088000A8BF2E62BDE8F38E2DE9F24F04468EB06C
:10089000D4E90001CDE9020104AF9DF8380040F031
:1008A000200BBBF1610F0AD0206B002848BF062047
:1008B00004D408BFBBF1670F01D101202063616838
:1008C000C1F30A5040F2FF7290421CD1080304BFEA
:1008D0002068002809D10320A0619DF83800613804
:1008E0001A2836D30FF2486108E00320A0619DF872
:1008F000380061381A2829D30FF22C61E0680322EE
:1009000000F0EAFBBEE1012816DA204600F01FFCE9
:10091000012811DB00250020BBF1610F20D1E16827
:10092000302201F8012B4A1CE2609DF83820612A30
:100930000CBF782258220FE0626840F2FE3161F36A
:100940001E52451A62604FF0FF30E5E70FF2D451B6
:10095000D4E70FF2D851D1E70A706169891C61614F
:1009600010B90026002584E1BBF1610F40F09780AB
:10097000206BD4E900AB00284CBF2126461CDDE9E2
:1009800002010022002300F003FC36B23ABF8BF0D4
:100990000040CDE902A0CDE902AB06F101082D1F10
:1009A0008DF810200DF1110700E0C71DB8F1010FFF
:1009B00033DBDDE902010022002300F001FC2CD230
:1009C0001C2102A800F014FCDDE9020100F09CFCEF
:1009D000A8F10708B8F1010F814609DB00F0C0FC5F
:1009E00002460B46DDE9020100F0D2FCCDE902012E
:1009F000F81D072105E009F00F0200F8012D4FEA6C
:100A00002919B9F1010F01DB491EF4D5491E5CBF5C
:100A1000002200F8012DF9D5C7E70DF11100391AB0
:100A2000B142B8BF0E4636B230000DF111072FD4D7
:100A3000884206DA04A9411849780829A8BF0F217D
:100A400000DA002104AA821800E0761E12F80139AB
:100A5000401E8B42F9D00F2904D104A941184A78CD
:100A6000521C4A70002802D504AF761C2D1D36B2E8
:100A7000701E0DD4C1190A783032D2B23A2A03DB83
:100A80009DF838303A3B9A18401E01F80129F2D5FA
:100A9000206B002840F1ED80701E2063E9E0DDE965
:100AA00002010022002300F073FB3CBF81F00041F3
:100AB000CDE902012DB247F2975068434B49DFF868
:100AC000309190FBF1F52DB2C5F1070ABAF1010F93
:100AD00090461CDBDDE902675FEACA7007D5424633
:100AE0004B463046394600F013FD06460F46404659
:100AF000494642464B464FEA6A0A00F009FDBAF100
:100B0000000F80468946E7D1CDE9026724E0CAF1AB
:100B1000000A0026374F14E05FEACA7007D5424644
:100B20004B463046394600F0F3FC06460F46404639
:100B3000494642464B4600F0EBFC4FEA6A0A8046C3
:100B40008946BAF1000FE7D1DDE9020132463B46A2
:100B500000F0B0FDCDE90201BBF1660F216BDFF8BB
:100B600098900CBF05F10A0006204618142EA8BF65
:100B7000132630208DF810000DF11107012E3DDBFA
:100B8000DDE9020100F0D6FB07F1080104220A2387
:100B9000B0FBF3F303EB8307A0EB4700303001F821
:100BA000010C0A20B3FBF0F000EB8007A3EB470336
:100BB0003033521E01F8023DE9D1083E012E01F109
:100BC0000807DBDBDDE9020100F0B4FB00F0D2FB3B
:100BD00002460B46DDE9020100F0DAFB00224B463B
:100BE00000F096FCCDE90201CAE700BFA086010033
:100BF000000024400000F03F84D797410DF1110020
:100C0000381A0DF1110702E0401E6D1E7F1C397865
:100C10003029F9D0BBF1660F02D12DB2691C04E076
:100C2000BBF1650F0CBF01210021226B8E1836B27B
:100C3000B042B8BF064636B231001AD4814204DA57
:100C4000C85D3528A8BF392000DA3020CA19521EE5
:100C500000E0761E12F80139491E8342F9D0392886
:100C600002D1C85D401CC855002902D57F1E761CE4
:100C70006D1C2DB29DF83810009533B23A462046CF
:100C800000F003F80FB0BDE8F08F2DE9F043054602
:100C90001E46D5F83080012E85B08946174602DA07
:100CA00001260FF2902749F02000BDF93040662858
:100CB00008BF641C17D0672840F0828014F1040F2D
:100CC000C0F28480444580F2818095F83800641C2D
:100CD000000702D44645B8BFB04624B2B8EB0408BA
:100CE00048BF4FF0000824B2E868A969012C25DA52
:100CF0004A1C30230B54B8F1010F03DA95F8381071
:100D0000090702D52E211154521C18EB040FB8BF4D
:100D1000C8F1000424B2A0446142B045AA616962EE
:100D2000B8BF4646AB6936B2EE613246394618184E
:100D300000F0D2F9A8EB0600A862C1E00818A642AC
:100D400018DA3246394600F0C7F9A9697118A01BB4
:100D5000B8F1010FA961686203DA95F8380000075D
:100D600005D5EA682E208854E869401CE861C5F87A
:100D70002880A5E02246394600F0AEF9A86920187F
:100D8000361BB8F1010F03DA95F83810090703D5BF
:100D9000EA682E218154401CA86136B2B045B8BF24
:100DA0004646E868AB6936B23246E119181800F0D9
:100DB00093F9A8693018A861A8EB060068627FE083
:100DC000B9F1610F16D14FF0700918E0464504DA09
:100DD00095F83810090758BFB046B8F1010848BF68
:100DE0004FF00008B9F1670F14BF4FF045094FF0FD
:100DF000650904E0B9F1410F08BF4FF05009A96936
:100E0000E86817F8013B0B544A1CB8F1010F05DAEA
:100E100095F83810090758BFAA6117D52E2111542B
:100E2000531CB8F1010FAB6110DB761E36B2B04532
:100E3000B8BF464636B232463946181800F04CF96B
:100E4000A8693018A861A8EB06006862E868A9697B
:100E50000918200081F8009003D42B2048708F1CC3
:100E600003E02D224A708F1C644200260DF1080811
:100E700008E00A2200A800F048FD019808F8010BDC
:100E8000761C009C21B20129F3DA022E06DA49F021
:100E90002000652804BF302007F8010B4EB9302030
:100EA00007F8010B07E0761E02A8305C303007F827
:100EB000010B012EF7DAE868A9690818381AE86109
:100EC00095F8380000F0140010280DD16869A96960
:100ED0000818696A0818E9690818A96A0818696B86
:100EE0008842BCBF081A286205B0BDE8F083F8B597
:100EF00004460D4616461F46002004E0E86A401CE2
:100F0000E8627F1E002047B116F8011BA868A047C1
:100F10000028A860F2D14FF0FF30F2BD686A6C740F
:100F20007A4C00006E616E004E414E00696E6600A4
:100F3000494E460030000268531C03601170704730
:100F40000278C9B28A421AB11CBF10F8012FF9E722
:100F500018BF00207047000000F10103810704D092
:100F600010F8011B89B18107FAD10268B2F1013191
:100F7000914311F0803F04BF50F8042FF6E710F8BA
:100F8000011B11B110F8011BFBE7C01A70470000EC
:100F9000C9B2830706D0521E22D310F8013B9942F2
:100FA000F7D11FE0083A13D302F1040241EA01210C
:100FB00041EA014150F8043B121F21BF4B40A3F10D
:100FC000013C2CEA030C1CF0803FF3D0C9B2001F97
:100FD000083210F8013B521E28BF91EA030FF8D8DF
:100FE00018BF0120401E70471B4213D1094236D161
:100FF0002AB18446B0FBF2F002FB10C2704700F049
:101000008BBCFCD30022002370470B0002000021A0
:1010100000207047904271EB030CF6D370B5B1FA23
:1010200081F4B3FA83F52C1BA340C4F1200532FAF6
:1010300005F63343A2405FF00046E64002E05B085D
:101040005FEA3202841A71EB030524BF2046294669
:101050007641F4D302000B003000002170BD012A5C
:10106000CFD970B5140C20D0B1FA81F4B2FA82F560
:10107000C4F120046419B4F12006D6D3B2405FF065
:101080000044F440002502E052085FEA3303C61A28
:1010900071EB020E24BF3046714664416D41F3D3BB
:1010A00002000B002000290070BD0C46B1FBF2F1DC
:1010B00002FB11452D0445EA1045B5FBF2F402FB95
:1010C000145580B240EA0545B5FBF2F002FB105220
:1010D00040EA044070BD000062B38B0708D0521E86
:1010E00011F8013B00F8013B00F024808B07F6D19A
:1010F000830740F0208000BF103A07D330B4B1E836
:101100003810103AA0E83810F9D230BC530724BF89
:10111000B1E80810A0E8081044BF51F8043B40F8BB
:10112000043BD20724BF31F8022B20F8022B44BF26
:101130000B7803707047083A07D3B1E80810083AF3
:1011400040F8043B40F804CBF7D25307E4E730B44F
:10115000436803F0004201211B031B0B436004BFE3
:101160000368002B08D10DE00368DD0F45EA440455
:1011700044605B000360491E4468E302F4D5230326
:101180001B0B436043681A434260084630BC7047FB
:101190004FF4001C1CEB410F94BF1CEB430F09E004
:1011A00041EA030C50EA4C0C52EA0C0C03D299426F
:1011B00008BF9042704714BF8B42824270470000C4
:1011C0004FF4001C1CEB410F94BF1CEB430F09E0D4
:1011D00041EA030C50EA4C0C52EA0C0C03D28B424D
:1011E00008BF8242704714BF994290427047000086
:1011F00070B504460D466068C0F30A5040F2FF71B6
:10120000884207D16068000304BF2068002817D017
:10121000022070BD20B92046FFF799FF012868DA47
:10122000012D0FDB40F2FF71091A8D420AD360686D
:1012300000284CBF9FED300B9FED310B84ED000B70
:10124000012070BD4142A942616806DA6FF31E5168
:10125000401941EA0050606042E0401E6368451951
:10126000012205F1350062F31F53352801F00041DA
:10127000636003D361600020206070BD002215F11F
:101280001F0F04DA22682360002020356060684266
:1012900014D0521E25689241C0F12003D2439D40D4
:1012A00045EAD272256825FA00F6656805FA03F367
:1012B00033432360636823FA00F565606068084380
:1012C000B2F1004F606003D80DD12078C0070AD575
:1012D0002068401C2060206828B96068401C60605D
:1012E0004FF0FF3070BD6068884204BF206800285E
:1012F000F6D1002070BD00BF000000000000F0FF2C
:10130000000000000000F07FF446400D40EAC120DC
:10131000490006D200F014F8004248BF6FF00040C8
:10132000604700F00DF84FF0004188428CBF08463E
:1013300040426047400D40EAC120490080F00D80E6
:1013400040F00040490DA1F58061491C05D4D1F160
:101350001F0154BFC840C01770474FF000007047CE
:10136000010040F10980F446404200F005F851F0D8
:1013700000416047010000BF09D0B0FA80F1884009
:10138000C91CC1F58461090501EBD02140057047F6
:10139000F0B44FF0004591EA030F44BF6B4000F0FA
:1013A000C7BA00BF841A71EB030604D26E40001B5B
:1013B000B141121973414FF4001C1CEB410F34BFB3
:1013C0007CEB430684E00C0DA4EB1356362E7DDC3B
:1013D000012E43DC45EAC32343EA525312BFD20233
:1013E00092025B08240545EAC12141EA5051D2EB43
:1013F000C020994125D407D1B0FA80F610FA06F141
:1014000064D00020203608E0B1FA81F6B140C6F180
:10141000200220FA02F21143B0404FEAF474B4EB18
:10142000465434F001064FEA74040AD8D6F5001683
:10143000760D04F00044F04061FA06F25040F140AD
:101440004840C00A40EA415021F0004128BF5FEA0D
:10145000500550F1000044EBD12137E045EAC323A9
:10146000DB0A45EAC121C90AB6F120050EDD42EAD0
:101470000242120CC5F1200603FA06F6EB4042EADE
:1014800006056D42984161F100010DE062FA06F532
:10149000F240554063FA06FC82EA0C02F3405A40DF
:1014A0006D42904161EB030111F4801F05D1641E70
:1014B000620502D06D004041494121F4801143088A
:1014C00075F1004350F1000041EB0451F0BC70474E
:1014D0001CEB410F15D223F0004352EA43060BD018
:1014E0004FEA4C0CBCEB410F04D80C0D661E342E99
:1014F000B7DDEBE7801A994150EA410608BF0021A9
:10150000E4E708BF1CEB430F28BF6FF00001DDE7E5
:10151000B0B581EA030C0CF0004C40F2FF7515EAFF
:1015200011541DBF15EA1357AC42AF4239E0E4191C
:1015300023EA455343F48013C90241F0004141EAD4
:10154000505EC7021100A7FB020200284FF0000006
:10155000EEFB01204FF00001E3FB072118BF42F032
:101560000102401800214941E3FB0E01A4F580640B
:101570000F0302D252004041494154F101046CDD95
:10158000470872F1004250F1000051EB0451A1F5FF
:1015900080115CBF41EA0C01B0BD4CEA055100204E
:1015A000B0BD05EA1357AC4214BFAF4241E050EA68
:1015B000410E1CBF52EA430E02E061460020B0BD5E
:1015C00024423C441BD15FEA070EF6D0090302BF58
:1015D00001460020AEF1140EB1FA81F7AEEB07041C
:1015E00001FA07FE0C37C7F1200100FA07F7C840DF
:1015F0004EEA000E23EA455343F48013A2E733F08A
:101600000043B3FA83F704BFB2FA82FE77440B3F7C
:10161000E41BB7F1200E2FBF02FA0EF3BB40C7F157
:10162000200E22FA0EFE38BF43EA0E03BA40641CB5
:1016300082E750EA410E14BF52EA430E6FF00001F8
:101640004FF4001717EB430F8ABF194617EB410FF2
:10165000B5E74CEA05510020B0BDD4F10104B4F166
:1016600020070FDAC4F12007520828BF42F0010218
:1016700010FA07F501FA07F7E1BF2A43E0403843C3
:10168000E1400FE0352C98DCC7F1200452EA40021B
:1016900020FA07F218BF42F0010231FA07F0A14028
:1016A0000A43002172F1004250F1000051EB0C019D
:1016B000B0BD00002DE9F04140F2FF7581EA030C56
:1016C0000CF0004C15EA11541DBF15EA1357AC423B
:1016D000AF42E9E0BC41C1F31301C3F31303801A25
:1016E000994143F4801304D2641E4000494180189C
:1016F0005941C90241EA5051B1FBF3F603FB1611FF
:10170000A2FB0675D7EBC020A94102D2761E801835
:101710005941C90241EA5051B1FBF3FE03FB1E11CE
:10172000A2FB0E75D7EBC020A94103D2AEF1010E8A
:1017300080185941890241EA9051760546EA8E2E79
:10174000B1FBF3F603FB1611A2FB0675D7EB802065
:10175000A94102D2761E80185941C90241EA50516E
:101760004EEA060EB1FBF3F603FB1611A2FB06755B
:10177000D7EBC020A94102D2761E80185941C90278
:1017800041EA5051B1FBF3F703FB1711A2FB0735F8
:10179000D3EBC020A94167F100070CBF004247F01E
:1017A000010766F3D5274FEA1E31B80814F58064A7
:1017B00014DDBD0775F1004250EB0E5051EB0451A2
:1017C00011F5801F5CBF41EA0C01BDE8F0814CF0CF
:1017D0007F6141F0E0410020BDE8F081BD076D0868
:1017E00040EA0E5041F48011D4F10104B4F1200616
:1017F0000ADAC4F120060200E04001FA06F3E140F3
:101800001843B24015430EE0342C14DCC6F120041A
:1018100045EA40056D0820FA06F2154321FA06F064
:10182000A1400D43002175F1004250F1000051EB41
:101830000C01BDE8F08100205FEA0C01BDE8F081F9
:10184000CFB992185B41B3FA83F704BFB2FA82F6BC
:10185000BF190B3FB7F120062FBF02FA06F3BB40BA
:10186000C7F1200622FA06F638BF3343BA401CB14E
:10187000E419641E2FE77F4231F00041B1FA81F490
:1018800004BFB0FA80F6A4190B3CB4F120062FBFB8
:1018900000FA06F1A140C4F1200620FA06F638BF8E
:1018A0003143A0403C1B16E7AC421ABF05EA135770
:1018B000AF4214E050EA41061CBF52EA4306BFE7BC
:1018C00050EA4107304661461CBF41EA0551BDE878
:1018D000F08152EA430C08BFC143BDE8F08100200B
:1018E0004FF4001616EB410F98BF16EB430F08BFDD
:1018F00016EB410F24BFC14305E016EB430F0CBFAD
:1019000061464CEA0551BDE8F08191FBF2F303FB1F
:101910001211C0E90031704770470000F0B44FF079
:10192000004591EA030C44BF6B40FFF73BBD00BF8D
:10193000841A71EB030603D2001BB14112197341E3
:101940004FF4001C1CEB410F34BF7CEB430443E01D
:101950000C0DA4EB1356352E50DC45EAC323DB0AED
:1019600045EAC121C912B6F120050DDD63FA05F67D
:10197000EB4086EA0305124218BF45F00105C01886
:1019800051F100010CD213E062FA06F5F240554025
:10199000F3415A40B340F3405A408018594107D3AD
:1019A00049085FEA30005FEA350528BF45F00105C8
:1019B00001F58011420875F1004250F1000041EB41
:1019C0000451F0BC4FF4001C1CEB410F38BF7047B2
:1019D0000020090D090570471CEB410F10D252EA97
:1019E00043060BD0BCEB410F05D80C0DAB43661E74
:1019F000342EB5DD02E0AB4380185941F0BC70478E
:101A0000F0BC704738B504000D00DFF8B009302194
:101A100001FB04000068DFF8A81988420AD1EDB282
:101A2000012D01D1012100E00021C9B2102000F0F8
:101A300047FE6BE0DFF88409302101FB04000068F9
:101A4000DFF8801988420BD1EDB2012D01D10121BF
:101A500000E00021C9B25FF4003000F022FE55E042
:101A6000DFF85809302101FB04000068DFF858193D
:101A700088420BD1EDB2012D01D1012100E00021FE
:101A8000C9B25FF4802000F00CFE3FE0DFF82C09C3
:101A9000302101FB04000068DFF8301988420BD1C7
:101AA000EDB2012D01D1012100E00021C9B25FF4A6
:101AB000002000F0F6FD29E0DFF80009302101FBED
:101AC00004000068DFF8081988420BD1EDB2012D3F
:101AD00001D1012100E00021C9B25FF4801000F0C3
:101AE000E0FD13E0DFF8D408302101FB04000068BA
:101AF000DFF8E018884209D1EDB2012D01D10121B2
:101B000000E00021C9B2202000F0DAFD31BD010063
:101B1000DFF8A808302202FB01000068DFF8A028E7
:101B2000904201D107203CE0DFF89008302202FB10
:101B300001000068DFF88C28904201D1072030E0D6
:101B4000DFF87808302202FB01000068DFF878280F
:101B5000904201D1072024E0DFF86008302202FB28
:101B600001000068DFF86428904201D1082018E0E5
:101B7000DFF84808302202FB01000068DFF8502837
:101B8000904201D108200CE0DFF83008302202FB3F
:101B900001000068DFF83C28904201D1082000E0F5
:101BA000FF20704770B50400DFF85808302101FBB2
:101BB00004008568DFF84C08302101FB0400007E3A
:101BC00000285ED1DFF83C08302101FB0400C0682A
:101BD000854256D0DFF82C08302101FB0400C06894
:101BE000A8420ED2DFF81C08302101FB0400C068B7
:101BF000281A0600DFF80C08302101FB04000561FB
:101C000014E0DFF80008302101FB04004069DFF830
:101C1000F417302202FB0411C968401A06000020A4
:101C2000DFF8E017302202FB041108610120DFF821
:101C3000D417302202FB04110876DFF8C8073021E0
:101C400001FB04004068DFF8BC17302202FB0411DE
:101C5000C9680818DFF8EC18302202FB0411C969C2
:101C6000C860DFF8E008302101FB0400C06946606D
:101C70000121DFF8D008302202FB0400C06900F027
:101C80004CFE70BD70B504000D00DFF8B8083021BF
:101C900001FB04000068808906004FF6F3700640DF
:101CA00015F0060F02D056F00C0607E0A80701D584
:101CB00056F00406680701D556F00806DFF88408D8
:101CC000302101FB0400006886810121DFF87408DF
:101CD000302202FB0400006800F014FF002070BDF9
:101CE00070B50400DFF85C08302101FB0400007EC1
:101CF000C00642D5DFF84C08302101FB0400406AE1
:101D00004168DFF80007302202FB0400806A81424C
:101D100002D15FF0FF3090E0DFF8E806302202FBEE
:101D20000400C069DFF8DC26302303FB0422D26AFA
:101D3000DFF8D036302606FB04339B6AD21A105CDB
:101D40000500DFF8C006302202FB0400806A401E56
:101D5000DFF8B026302303FB0422906200286AD10A
:101D6000DFF8A006302202FB0400C06ADFF89426E8
:101D7000302303FB042290625DE0DFF8C8073021C6
:101D800001FB0400007E800636D5DFF8780630219E
:101D900001FB0400016ADFF86C06302202FB04003C
:101DA000406A884202D15FF0FF3046E0DFF8540617
:101DB000302202FB0400C069DFF84826302303FB11
:101DC0000422526A105C0500DFF83806302202FB5C
:101DD0000400406A401CDFF82C26302303FB042259
:101DE000D26AB0FBF2F302FB1300DFF818263023AF
:101DF00003FB042250621EE0DFF84807302101FB9C
:101E00000400007E400616D52021DFF83807302276
:101E100002FB0400006800F0CEFE012809D1DFF8C3
:101E20002407302101FB0400006800F08AFE050051
:101E300001E0FF200500EDB2280070BD70B5040080
:101E40000D00DFF80007302101FB0400007EC00711
:101E500034D5DFF8B005302101FB04008668701C22
:101E6000DFF8A015302202FB04114969B0FBF1F242
:101E700001FB1200DFF88C15302202FB0411C96847
:101E80008842ECD0DFF87C05302101FB040040687B
:101E90003554701CDFF86C15302202FB04114969BF
:101EA000B0FBF1F201FB1200DFF85815302202FB03
:101EB000041188602000FFF775FE61E0DFF88406FA
:101EC000302101FB0400007E80073CD5DFF834059B
:101ED000302101FB04008668701CDFF828153022D1
:101EE00002FB04114969B0FBF1F201FB1200DFF8BB
:101EF0001415302202FB0411C9688842ECD0DFF8C7
:101F00000405302101FB040040683554701CDFF8E3
:101F1000F414302202FB04114969B0FBF1F201FB19
:101F20001200DFF8E014302202FB04118860012265
:101F300040F22771DFF80C06302303FB0400006831
:101F400000F00EFE1CE0DFF8FC05302101FB040070
:101F5000007E400714D58021DFF8E805302202FB1F
:101F60000400006800F027FE0128F4D1290089B29E
:101F7000DFF8D005302202FB0400006800F0DDFD30
:101F800070BDF8B504000D0016000027B74207D257
:101F90002000FFF7A5FE002802D478557F1CF5E746
:101FA0003800F2BDF8B504000D0016000027B74256
:101FB00005D2795D2000FFF741FF7F1CF7E738006D
:101FC000F2BD70B590B004000D0001A800F086FCD1
:101FD000DFF87005302101FB04000068001D02904D
:101FE000002006904FF480600790002008900020A9
:101FF000099000200B9000200D9001212000FFF798
:1020000001FD0121DFF83C05302202FB0400C0691C
:1020100000F0E0FD0121DFF82C05302202FB040076
:10202000406A00F0D7FD0023DFF81C050268DFF8E6
:102030001405302101FB0406D6E9020100F0E6FE9A
:102040002000FFF764FD0200D2B2DFF8F80430216F
:1020500001FB0403D3E9020100F0C7FE0122DFF80F
:10206000E404302101FB0403D3E9040100F025FE60
:102070002000FFF74CFD0200D2B2DFF8C804302187
:1020800001FB0403D3E9040100F0AFFE0023DFF8F5
:10209000BC040268DFF8AC04302101FB0406D6E979
:1020A000040100F0B3FEDFF89C04302101FB0400C2
:1020B00090F82E008DF80100DFF88804302101FB34
:1020C000040090F82F008DF8020001208DF8030025
:1020D000DFF87004302101FB0400007EC0070BD53F
:1020E000DFF86004302101FB040090F82C008DF82B
:1020F000000000A800F0B3FEDFF84804302101FB27
:102100000400007E80070BD5DFF83804302101FB86
:10211000040090F82D008DF8000000A800F09FFE4C
:102120000020DFF8E012302202FB04114862DFF8E1
:10213000D412302202FB041108620020DFF8C4121E
:10214000302202FB0411C860DFF8B812302202FB13
:10215000041188600020DFF8AC12302202FB041169
:1021600008760121DFF8DC03302202FB040000685E
:1021700000F0D6FC2900DFF8CC03302202FB04007B
:10218000006800F041FCDFF8BC03302101FB0400D3
:10219000007EC00651D5DFF8AC03302101FB0400FE
:1021A000406A00F0CFFADFF89C03302101FB040005
:1021B000806A0190DFF84C02302101FB0400C06905
:1021C000039000200490DFF83C02302101FB040062
:1021D000C06A05904FF480700A9000200C90002097
:1021E0000E9000200F9001A9DFF85803302202FB67
:1021F0000400406A00F046FB0121DFF8480330226A
:1022000002FB0400406A00F088FB01224021DFF855
:102210003403302303FB0400006800F096FCDFF871
:102220002403302101FB0400406A406880B2DFF8DB
:10223000D411302202FB04118862DFF80803302138
:1022400001FB0400007EC00750D5DFF8F802302102
:1022500001FB0400C06900F075FADFF8E8023021E4
:1022600001FB0400006A019040200490DFF8940113
:10227000302101FB04004069002807D0DFF8840109
:10228000302101FB04004069059001E01020059019
:1022900000200A9004200C905FF400000E900020B3
:1022A0000F9001A9DFF89C02302202FB0400C069F4
:1022B00000F0E8FA0020DFF88C12302202FB041153
:1022C000C969486001221021DFF87802302303FB3E
:1022D0000400C06900F02EFB01228021DFF86402B7
:1022E000302303FB0400006800F02FFC0121DFF81D
:1022F0005402302202FB0400006800F003FC0020BE
:1023000010B070BD10B50400DFF83802302101FBB9
:102310000400007EC00618D5DFF82802302101FB3A
:102320000400406A4068DFF8DC10302202FB041130
:10233000896A401ADFF8CC10302202FB0411C96A06
:10234000B0FBF1F201FB120037E0DFF8F8013021B9
:1023500001FB0400007E800617D5DFF8A8003021BD
:1023600001FB0400406ADFF89C10302202FB0411DC
:10237000096A401ADFF88C10302202FB0411C96A86
:10238000B0FBF1F201FB120017E0DFF8B8013021D9
:1023900001FB0400007E40060ED52021DFF8A401D9
:1023A000302202FB0400006800F005FC012801D186
:1023B000012000E0002000E0002010BD108F000888
:1023C000001001400044004000480040004C004024
:1023D000005000400014014010B5040000200949DD
:1023E000302202FB041108760648302101FB04006C
:1023F00000690449302202FB0411C8602000FFF785
:10240000D1FB10BD0000002070B504004D48302104
:1024100001FB04000068058828063DD54C483021A2
:1024200001FB0400C6684A48302101FB04008068B3
:10243000B04227D04648302101FB0400406844499F
:10244000302202FB0411C968095C89B23D48302280
:1024500002FB0400006800F070FB3D48302101FBE6
:102460000400C068401C3A49302202FB041149694B
:10247000B0FBF1F201FB12003549302202FB0411DE
:10248000C86009E0002240F227712E48302303FB88
:102490000400006800F064FBA80625D52C48302114
:1024A00001FB0400066A2748302101FB0400006894
:1024B00000F047FB2649302202FB0411C969705421
:1024C0002348302101FB0400006A401C20493022CF
:1024D00002FB0411C96AB0FBF1F201FB12001C49B6
:1024E000302202FB0411086270BD10B500242000E8
:1024F000FFF78AFF10BD10B501242000FFF784FF0D
:1025000010BD10B502242000FFF77EFF10BD80B57E
:102510001049114800F02FFA0020FFF75DFF01BDC0
:1025200080B50E490E4800F026FA0120FFF754FF4F
:1025300001BD80B50B490C4800F01DFA0220FFF7E1
:102540004BFF01BD108F000880A1000884A1000886
:102550000000002000800028B86002400080202099
:10256000A06002400080001858600240F0B40021D2
:1025700000220023022400250226DFF8A0713F6814
:1025800017F00C0739000F00002F04D0042F06D0DD
:10259000082F08D03CE0DFF88C7107603BE0DFF8E3
:1025A0008871076037E0DFF878713F68C7F38057BC
:1025B0003D00DFF86C713F6817F03F073E00002DCB
:1025C0000DD0DFF86471B7FBF6F7DFF854C1DCF823
:1025D00000C0CCF3881C0CFB07F73B000CE0DFF8D5
:1025E0004471B7FBF6F7DFF838C1DCF800C0CCF374
:1025F000881C0CFB07F73B00DFF824713F68C7F32A
:1026000001477F1C7F003C00B3FBF4F7076002E04A
:10261000DFF810710760DFF804713F6817F0F0070A
:1026200039000909DFF80471CF5D3A000768BC463C
:102630003CFA02FCC0F804C0DFF8E0703F6817F411
:10264000E0573900890ADFF8E470CF5D3A00476847
:10265000BC463CFA02FCC0F808C0DFF8C0703F6816
:1026600017F460473900490BDFF8C070CF5D3A00BE
:102670004768BC463CFA02FCC0F80CC0F0BC70478E
:10268000C9B2002907D0DFF8A82012680243DFF89A
:10269000A0301A6004E0264A12688243244B1A6074
:1026A0007047C9B2002905D0224A12680243214B63
:1026B0001A6004E01F4A126882431E4B1A6070477A
:1026C000C9B2002905D01C4A126802431A4B1A608D
:1026D00004E0194A12688243174B1A607047C9B266
:1026E000002905D0154A12680243144B1A6004E011
:1026F000124A12688243114B1A607047C9B200290E
:1027000005D00F4A126802430D4B1A6004E00C4AD0
:10271000126882430A4B1A60704700000838024072
:10272000043802400024F40000127A00B8010020AE
:1027300030380240403802404438024020380240DD
:102740002438024001684908490001600021016005
:1027500000214160002181600021C16000210161F0
:1027600021214161DFF83412884204D13D21DFF894
:102770003022116085E0DFF82C12884205D14FF439
:102780007461DFF81C2211607BE0DFF81C128842C4
:1027900005D15FF47411DFF80822116071E0DFF8F1
:1027A0000C12884205D15FF07461DFF8F4211160EA
:1027B00067E0DFF8FC11884205D1DFF8F811DFF897
:1027C000F82111605DE0DFF8F411884205D1DFF8EF
:1027D000F011DFF8E421116053E0DFF8E8118842DE
:1027E00005D1DFF8E411DFF8D021116049E0DFF80E
:1027F000DC11884205D15FF03D51DFF8BC2111604A
:102800003FE0DFF8CC11884204D13D21DFF8C4213C
:10281000116036E0DFF8C011884205D14FF47461D1
:10282000DFF8B02111602CE0DFF8B011884204D14C
:102830005FF47411674A116023E06949884204D14A
:102840005FF07461634A11601BE06649884203D1FE
:102850005849654A116014E06449884203D15849D7
:10286000614A11600DE06249884203D156495E4ACF
:10287000116006E05F49884203D15FF03D515A4A3A
:102880001160704710B4002203681A005A4B1A40B6
:102890000B68CC6823434C6923438C692343CC6980
:1028A00023430C6A23434C6A23438C6A23434C6BB7
:1028B00023438C6B23431A43026043691A00D208F6
:1028C000D200CB6A0C6B23431A4342610B6943600D
:1028D0004B6883608B68C36010BC70470021016047
:1028E00000214160002181600021C160002101615F
:1028F00000214161002181610021C161002101624B
:1029000000214162002181620021C1620021016336
:1029100000214163002181637047C9B2002904D0BE
:10292000026852F00102026003E00268520852009D
:102930000260704710B40B060BD5D2B2002A04D047
:10294000436953F08003436103E0436933F080033C
:10295000436180290DD0D2B2002A05D0036811F05E
:102960001E042343036004E0036811F01E04A34324
:10297000036010BC7047164B984202D21F4B1A00DE
:1029800001E01F4B1A008B0003D51E4B0B40D36098
:1029900002E01C4B0B409360704700001060024047
:1029A00008600240286002404060024058600240D7
:1029B000706002403D0000200C60024088600240D0
:1029C000400F0020A060024000003D20B86002409F
:1029D00010640240086402402864024040640240DF
:1029E00058640240706402400C64024088640240F3
:1029F000A0640240B86402403F801CF000600240C6
:102A0000006402407D0F7D0F2DE9F04385B0040086
:102A10000D005FF00009002600275FF00008A8897C
:102A20000028208A814639F44059E88850EA09098B
:102A3000A4F81090A0898146314810EA0909A888B5
:102A4000298908436989084350EA0909A4F80C90C8
:102A5000A08A814639F44079A88950EA0909A4F886
:102A6000149000A8FFF782FD2348844202D0234837
:102A7000844202D10398060001E002980600A08972
:102A8000000408D5192000FB06F029684900B0FBB6
:102A9000F1F0070007E0192000FB06F02968890023
:102AA000B0FBF1F007006420B7FBF0F000018146B5
:102AB0005FEA1910642101FB10708046A0890004B0
:102AC0000AD55FEAC80032306421B0FBF1F010F0A3
:102AD000070050EA090909E05FEA08103230642172
:102AE000B0FBF1F010F00F0050EA0909A4F80890CB
:102AF00005B0BDE8F0830000001001400014014063
:102B0000F3E9FFFFC9B2002904D0828952F40052D0
:102B1000828104E082894DF6FF731A4082817047FA
:102B2000C9B2002904D0828952F40042828103E0B4
:102B300082895204520C82817047CA05D20D82806C
:102B400070478088C005C00D7047D2B2002A03D0FC
:102B5000838A0B43838202E0838A8B43838270479C
:102B6000F0B4002300240025002689B240F66A173D
:102B7000B94206000F00FFB27F09FFB23B0089B2E5
:102B800011F01F073C000127A7403D00012B01D198
:102B90000C3604E0022B01D1103600E01436D2B21C
:102BA000002A03D037682F43376002E03768AF430D
:102BB0003760F0BC70470200002089B2B1F5007F99
:102BC00013880B4202D00123180001E000231800F3
:102BD000C0B2704738B504000D002448844214D0B8
:102BE0002348844211D0234884420ED02248844294
:102BF0000BD02248844208D02148844205D0214885
:102C0000844202D0204884420BD1EDB2012D01D183
:102C1000012100E00021C9B25FF40010FFF730FD90
:102C200022E01A48844214D01948844211D019482D
:102C300084420ED0184884420BD01848844208D0F1
:102C40001748844205D01748844202D0164884426F
:102C50000AD1EDB2012D01D1012100E00021C9B25C
:102C60005FF48000FFF70CFD31BD00BF1060024033
:102C7000286002404060024058600240706002409C
:102C800088600240A0600240B860024010640240C8
:102C9000286402404064024058640240706402406C
:102CA00088640240A0640240B864024003B4BDF8E6
:102CB00004000099488302B07047F8B504000D0085
:102CC000170026002848864205D13900C9B20120E4
:102CD000FFF7D6FC47E02548864205D13900C9B246
:102CE0000220FFF7CDFC3EE02148864205D13900A5
:102CF000C9B20420FFF7C4FC35E01E48864205D166
:102D00003900C9B20820FFF7BBFC2CE01A48864204
:102D100005D13900C9B21020FFF7B2FC23E01748F3
:102D2000864205D13900C9B22020FFF7A9FC1AE07C
:102D30001348864205D13900C9B24020FFF7A0FCF4
:102D400011E01048864205D13900C9B28020FFF752
:102D500097FC08E00C48864205D13900C9B24FF40F
:102D60008070FFF78DFCF1BD0000024000040240BE
:102D700000080240000C0240001002400014024013
:102D800000180240001C02400020024003B4002052
:102D9000BDF804104FF47F42114206D00830BDF850
:102DA000041089B2090AADF804109DF80410F0224D
:102DB000114206D0001DBDF8041089B20909ADF812
:102DC00004109DF804100C22114206D0801CBDF89E
:102DD000041089B28908ADF804109DF80410890721
:102DE00000D5401CC0B202B0704770B504000D00A1
:102DF000160020002900FFF7C9FF3200D2B2C0B28E
:102E0000010089B2200000F0C0F870BD17B583B092
:102E10001C000122DDE90301FFF74FFFDDE903019B
:102E2000FFF744FFBDF8100000908DF805409DF8B5
:102E300014008DF804009DF815008DF807009DF82A
:102E400016008DF8060000A9039800F049F806B0B6
:102E500010BD00001D4901431D4A1160704770B448
:102E6000002400220F23C178002923D018490968C3
:102E700011F4E061D1F5E061090A0C00D4F104011C
:102E80000A00DBB219000B002341417891400C008D
:102E9000817819400C4324010E4905786C540121B6
:102EA000057815F01F05A9400B4D0678761145F8F9
:102EB000261009E00121057815F01F05A940074DEE
:102EC0000678761145F8261070BC70470000FA05A8
:102ED0000CED00E000E400E000E100E080E100E053
:102EE000F0B400220023002400252A00102A4AD230
:102EF000012595402B000D681D402C009C4240D1BF
:102F0000056803261700FFB27F00BE40B543056089
:102F100005680E791700FFB27F00BE40354305609B
:102F20000D79012D02D00D79022D1AD18568032665
:102F30001700FFB27F00BE40B543856085684E79BB
:102F40001700FFB27F00BE4035438560456801260B
:102F50009640B543456045688E799640B6B2354394
:102F60004560C56803261700FFB27F00BE40B54329
:102F7000C560C568CE791700FFB27F00BE403543FB
:102F8000C560521CB2E7F0BC7047F0B400230024C7
:102F9000D2B211F00705EDB2AD0012FA05F52B0023
:102FA00089B2CD1010EB850589B2CE1010EB8606E4
:102FB000366A0F2711F0070C5FFA8CFC5FEA8C0C65
:102FC00017FA0CF7BE432E6289B2CD1010EB8505BF
:102FD0002D6A1D432C0089B2CD1010EB85052C62A3
:102FE000F0BC70472DE9F34F83B014001D000E9E16
:102FF0000F9FDDF84080DDF844904146200080B20C
:1030000000F082FC8246BAF1000F6ED0DAF8300090
:10301000A4B210EB8400001F83465FEADB0B5FEA7B
:10302000CB0B200080B200904B46320004995046F2
:1030300000F0AAFB2A000399584600F085FDCAF863
:103040000000002F01D0C7F800A000F0B5FDDFF8A8
:1030500080060068401CDFF878160860DFF8740608
:10306000006800280BD1DFF86C06C0F800A0DFF87C
:1030700060060068012811D100F0BCFB0EE0DFF80B
:1030800058060068002809D1DFF848060068C06AC1
:10309000864203D3DFF83C06C0F800A0DFF83C0608
:1030A0000068401CDFF834160860DFF8300600685E
:1030B000CAF84400DFF8940600680121DAF82C20F1
:1030C00091400843DFF8841608601AF10401DFF824
:1030D0008006DAF82C20142303FB020000F0C1FD67
:1030E0000120019000F075FD02E05FF0FF300190DB
:1030F0000198012813D1DFF8E005006800280ED000
:10310000DFF8D0050068C06AB04208D25FF0805096
:10311000DFF8F0170860BFF34F8FBFF36F8F019890
:1031200005B0BDE8F08F38B5040000F045FD002C77
:1031300003D1DFF8A005056800E02500281D00F098
:10314000B9FD002812D1DFF80806E96A142202FB53
:1031500001000068002809D1DFF8F00500680121AE
:10316000EA6A91408843DFF8E4150860A86A0028FD
:1031700003D015F1180000F09DFD291DDFF80006B1
:1031800000F06FFDDFF8FC050068401CDFF8F41567
:103190000860DFF848050068401CDFF8401508604B
:1031A00000F017FDDFF830050068002814D0DFF8C4
:1031B00024050068854209D15FF08050DFF844178C
:1031C0000860BFF34F8FBFF36F8F05E000F0F4FC92
:1031D00000F0D0FB00F0FDFC31BD2DE9F843040008
:1031E0000D005FF0000800F0A8F8DFF86006D0F8E6
:1031F00000902068281806002068814507D22068C2
:1032000086420BD2B14509D20120804606E02068F3
:10321000864201D3B14501D2012080462660B8F133
:10322000000F19D0DFF8AC040068001D00F042FD6B
:1032300000280ED1DFF89C040068DFF8101509683B
:103240000122C06A12FA00F031EA0000DFF8FC1433
:103250000860300000F02FFB00F077F80700002F27
:1032600008D15FF08050DFF89C160860BFF34F8FE5
:10327000BFF36F8FBDE8F18370B504000026002C0A
:1032800023D000F05AF8DFF8C405006820180500C4
:10329000DFF840040068001D00F00CFD00280ED18E
:1032A000DFF830040068DFF8A41409680122C06A5E
:1032B00012FA00F031EA0000DFF8901408602800EC
:1032C00000F0F9FA00F041F80600002E08D15FF096
:1032D0008050DFF830160860BFF34F8FBFF36F8F59
:1032E00070BD1FB5002003900020029000200190C7
:1032F0000020009000234FF48072DFF808180FF2CE
:103300005540FFF76FFE0400012C15D1BF2080F35C
:103310001188BFF34F8FBFF36F8F5FF0FF30DFF87F
:10332000E81708600120DFF8B01308600020DFF81C
:103330001C15086000F022FC1FBDDFF8A007006824
:10334000401CDFF898170860704738B5002500F07A
:1033500033FCDFF888070068401EDFF8801708603C
:10336000DFF87807006800285ED1DFF864030068A2
:10337000002859D0DFF88807006800282AD0DFF835
:103380008007C068C068040014F1180000F092FCC7
:10339000201D00F08FFCDFF8B40300680121E26A11
:1033A00091400843DFF8A4130860211DDFF8A00353
:1033B000E26A142303FB020000F053FCE06ADFF82A
:1033C00014130968C96A8842D4D30120DFF848176A
:1033D0000860CFE7DFF834070068002814D0DFF872
:1033E0002C07006800280FD000F02EF8002803D02A
:1033F0000120DFF824170860DFF810070068401E7E
:10340000DFF808170860EAE7DFF80C070068012812
:103410000AD1012005005FF08050DFF8E814086051
:10342000BFF34F8FBFF36F8F00F0D3FB280032BD87
:10343000DFF8181409680800704700221100DFF84F
:103440000C241268100070472DE9F0410026DFF8C7
:103450008C060068002878D1DFF8F0030068401C73
:10346000DFF8E8130860DFF8E4030768002F16D1DF
:10347000DFF8A80600688046DFF894060068DFF8E9
:103480009C160860DFF88806C0F80080DFF8840624
:103490000068401CDFF87C16086000F06BFADFF86B
:1034A0006806006887423CD3DFF870060068006851
:1034B000002805D15FF0FF30DFF84C16086030E0DF
:1034C000DFF858060068C068C0680400606805003E
:1034D000AF4203D2DFF83006056022E0201D00F085
:1034E000E9FBA06A002803D014F1180000F0E2FB09
:1034F000964800680121E26A9140084393490860B8
:10350000211D9348E26A142303FB020000F0A9FB8B
:10351000E06A70490968C96A8842C5D3012006007B
:10352000C2E78B486B490968C96A142202FB010093
:103530000068022801D301200600DFF8D0050068EA
:1035400000280BD1C046C04608E0DFF8C00500687F
:10355000401CDFF8B8150860C046C046DFF8B80563
:103560000068002801D0012006003000BDE8F0818D
:1035700080B5DFF868050068002804D00120DFF876
:10358000981508602EE00020DFF88C15086051487F
:103590000068006B4F4909680968884207D34D48A5
:1035A000006810F134014B48006800F097FB674950
:1035B0000968B1FA81F1D1F11F010800644A1423AE
:1035C00003FB002211004A6852684A604A6811F100
:1035D00008039A4202D14A6852684A604968C96839
:1035E0003C4A116001BD70B504000D003948006807
:1035F00010F11801200000F040FB36480068001D63
:1036000000F058FB00280BD1324800684F49096888
:103610000122C06A12FA00F031EA00004B4908604A
:1036200015F1010F07D12B480068011DDFF8700369
:1036300000F017FB07E0DFF8E80400682818060030
:10364000300000F038F970BD70B50400E068C06863
:10365000050015F1180000F02DFBDFF8800400686C
:10366000002813D1281D00F025FB384800680121EF
:10367000EA6A9140084335490860291D3448EA6ADE
:10368000142303FB020000F0ECFA05E015F1180129
:10369000DFF86C0400F0E5FA0E480068C06AE96AD9
:1036A000884206D2012006000120DFF86C14086071
:1036B00001E000200600300070BDDFF858140968F2
:1036C0000160DFF85C140968416070470000000089
:1036D000BCD50020ACD50020C8D50020D8D500200E
:1036E000F8B504000D0000F067FA5848076828682C
:1036F00010F1010F02D1002006001DE0DFF81404D4
:1037000000682168884205D06068874202D30120A2
:10371000060011E06068381A296888420AD22868D1
:10372000C01B6168081828602000FFF7C6FF002052
:10373000060001E00120060000F04BFA3000F2BD67
:103740000120DFF8D413086070470000C4D50020C2
:103750000CD2002010B5040000F07AF8DFF8C403A2
:103760000068022808D35FF08050DFF8BC130860BF
:10377000BFF34F8FBFF36F8FC046C046ECE700002A
:10378000FCD40020B8D500202DE9F04104000D0044
:1037900016001F0000208046B8F1100F0CD218F858
:1037A000050018EB040181F8340018F80500002822
:1037B00002D018F10108EFE7002084F843000C2E36
:1037C00001D30B200600E662E66400202065201D80
:1037D0000021016114F11800002101612461D6F17A
:1037E0000C00A061646200206065002084F858002D
:1037F000BDE8F08110B5002004000C2C08D2DFF8E1
:103800002403142101FB040000F01CFA641CF4E7FB
:10381000DFF8180300F016FADFF8140300F012FACC
:10382000DFF8DC0200F00EFADFF8080300F00AFA15
:103830005B4800F007FADFF8F402DFF8E0120860F6
:10384000DFF8EC02DFF8C812086010BDC0D5002018
:1038500038B5DFF8E402006800282BD0FFF76DFDD3
:10386000DFF8D0020068002801D1012400E0002424
:10387000FFF76BFD002CECD100F09EF9DFF8B402ED
:10388000C068C0680500281D00F014FADFF8AC021B
:103890000068401EDFF8A4120860DFF89C02006890
:1038A000401EDFF89412086000F093F9280000F041
:1038B00058F8CEE731BD10B50400DFF88402006887
:1038C0004460DFF85C020068844209D2DFF87002CD
:1038D0000068011DDFF83802006800F0CEF910E042
:1038E000DFF85C020068011DDFF83002006800F0BC
:1038F000C4F9DFF814020068844202D2DFF808023B
:10390000046010BD04ED00E02DE9F84304000D0053
:10391000002D04D1A4B2A00000F0EEF900E02800D0
:103920000700002F0BD05C2000F0E6F90600002E07
:1039300001D0376305E0380000F047FA01E00020CD
:103940000600002E0AD0A4B2A7005FF0A508D6F8A2
:10395000309042463900484600F0D2FA3000BDE8C7
:10396000F28310B50400206B00F02FFA200000F065
:103970002CFA10BDDFF8A41109680968002904D1E8
:103980005FF0FF31604A116008E0DFF890110968CC
:10399000C968C968080041685B4A11607047000047
:1039A00010D5002038B504002500002C4FD0E86A5F
:1039B000DFF88C110968C96A884248D2A8690028D2
:1039C00006D4DFF87C010068C06AD0F10C00A86161
:1039D0006869DFF85011EA6A142303FB0211884278
:1039E00030D1281D00F066F9002812D1DFF834012B
:1039F000E96A142202FB01000068002809D1DFF8FF
:103A0000440100680121EA6A91408843DFF83411DB
:103A10000860DFF82C010068C06AE862DFF8240162
:103A200000680121EA6A91400843DFF81811086034
:103A3000291DDFF8F000EA6A142303FB020000F0FE
:103A400010F904E0DFF8F8000068C06AE86231BDF0
:103A500070B5040025000026002C3CD0286D401EC7
:103A60002865E86AE96C884235D0286D002832D193
:103A7000281D00F01FF9002812D1DFF8A800E96A1C
:103A8000142202FB01000068002809D1DFF8B4000D
:103A900000680121EA6A91408843DFF8A8100860B5
:103AA000E86CE862E86AD0F10C00A861DFF89400E5
:103AB00000680121EA6A91400843DFF88810086035
:103AC000291DDFF86000EA6A142303FB020000F0FE
:103AD000C8F801200600300070BD0000E0D50020CD
:103AE000DFF85C000068002805D0DFF854000068AB
:103AF000016D491C0165DFF848000068704700004F
:103B0000E8D4002008A10008DCD50020CCD5002096
:103B1000B4D50020D4D50020D0D50020B0D50020C9
:103B2000C0D500200CD2002004ED00E0C0D400205D
:103B3000D4D40020FCD40020B8D50020BCD500206F
:103B4000ACD50020C4D50020001F5FF08073036057
:103B5000001F0160001F0FF215030360143802609C
:103B6000001F7FF00203036020387047BF2080F3FE
:103B70001188BFF34F8FBFF36F8FFEE780B52A48E0
:103B8000006850F47F00284908602748006850F01A
:103B90007F402549086000F03FF800202349086075
:103BA00000F028FA2248006850F0404020490860A0
:103BB00000F014FA002002BDBF2080F31188BFF38B
:103BC0004F8FBFF36F8F19480068401C174908607A
:103BD000704716480068401E144908601348006882
:103BE000002802D1002080F31188704780B5EFF3E0
:103BF0001180BF2080F31188BFF34F8FBFF36F8F09
:103C0000FFF722FC002803D05FF0805009490860CC
:103C1000002080F3118801BD07480849086007208B
:103C2000074908607047000020ED00E0D001002047
:103C300034EF00E004ED00E07FA9030014E000E0B1
:103C400010E000E010F1080141605FF0FF31816099
:103C500010F10801C16010F108010161002101604B
:103C6000704742684A6093688B60936859609160BE
:103C7000086103685B1C0360704710B40B6813F1A4
:103C8000010F02D10469220008E010F108042200AB
:103C900054682468A34201D35268F9E754684C6021
:103CA0004C68A1608A60516008610468641C04600B
:103CB00010BC7047010008698A684B689A604A68BE
:103CC0008B685A6042688A4201D18A684260002249
:103CD0000A610268521E02600068704738B504002D
:103CE0000D002900034800F093F9200000F0BBF913
:103CF00031BD00003C9D00082DE9F04104005FF05B
:103D00000008FFF71AFB77480068002801D100F08F
:103D100080F875480068044252D1002C0AD07348DC
:103D20000068041914F0070F04D014F1080014F00F
:103D30000701441A002C43D06D480068A0423FD3CD
:103D40006C4806006B48006805006868A04205D210
:103D50002868002802D02E002D68F6E76148006828
:103D600085422DD030686149096808188046286866
:103D700030605E48006840006968091B884208D2CC
:103D8000601907006868001B78606C60380000F0FC
:103D900077F8574800686968401A554908605448E0
:103DA000006855490968884203D251480068524961
:103DB000086068684C49096808436860002028600A
:103DC000FFF7C3FA4046BDE8F08170B50400260055
:103DD000002C1DD045480068361A350068684249F5
:103DE0000968084214D02868002811D168683E4943
:103DF000096888436860FFF7A0FA3D480068696871
:103E000008183B490860280000F03AF8FFF79DFACF
:103E100070BD30B44FF40C43384C220012F0070F41
:103E200005D0D21DD208D2009B1A344CE3181100E1
:103E3000304C216000242F4D6C605C1822002B4C0C
:103E40002468121BD208D200264C22600024254D83
:103E50002D686C600024234D2D682C600800141A16
:103E60004460204C246804604468234D2C604468FE
:103E70001F4D2C605FF000441B4D2C6030BC704720
:103E800010B41C4B1A001368834201D21268FAE77F
:103E9000110053685B18834204D153684468E318E7
:103EA00053601000010043685B181468A34211D1ED
:103EB00013680C4C2468A34208D0436814686468F3
:103EC000E318436013681B68036005E0054B1B683B
:103ED000036001E013680360824200D0106010BCF0
:103EE0007047000098D50020A4D500204CA1000800
:103EF0009CD5002034D50020A0D50020D40100207E
:103F000062F30F2262F31F42401810F0030308D03F
:103F1000C91A1FD3DB0748BF00F8012D28BF20F8BE
:103F2000022D130030B414461546103928BF20E97D
:103F30003C00FAD8490728BF20E90C0048BF40F8E8
:103F4000042D890028BF20F8022D48BF00F8012D5C
:103F500030BC7047C91818BF00F8012DCB0728BF27
:103F600000F8012D70470000EFF30980BFF36F8F59
:103F7000244B1A681EF0100F08BF20ED108A20E9AC
:103F8000F04F106008B44FF0BF0080F31188BFF30A
:103F90004F8FBFF36F8FFFF7EBFA4FF0000080F306
:103FA000118808BC19680868B0E8F04F1EF0100FBF
:103FB00008BFB0EC108A80F30988BFF36F8F704799
:103FC000104B19680868B0E8F04F80F30988BFF318
:103FD0006F8F4FF0000080F3118870470A48006827
:103FE000006880F3088862B661B6BFF34F8FBFF3F5
:103FF0006F8F00DFDFF81400016841F47001016089
:1040000070470000ACD5002008ED00E088ED00E02E
:104010000EB400B582B003A90091024600AB0121A5
:10402000034878440A30FCF7AFF806BC5DF810FB93
:10403000915E0000EFF30580002801D0012000E030
:104040000020C0B2704780B5FFF74BF9002002BDD9
:1040500080B5FFF7EFFF002802D0FFF7EEF901E08F
:10406000FFF7E6F902BD10B504002000FFF75BF88A
:10407000002010BD38B504000A20B4FBF0F5002D77
:1040800001D0280000E00120FFF7F6F8002032BD43
:1040900070B504000D000A20B5FBF0F6002E01D02B
:1040A000310000E001212000FFF797F8002070BDEB
:1040B00080B500F0F5FB00F0F9FB00F007FC80058F
:1040C000800DDFF86C170860DFF8680700F07BFCF4
:1040D000012801D100200BE0DFF85C070078002800
:1040E00004D0DFF85817002000F0BCFC5FF0FF3070
:1040F00002BD10B54FF47A71DFF8380700F076FC96
:10410000012802D07FF0020017E0DFF824070068E2
:104110000400DFF81C070068401CDFF81417086073
:10412000DFF80C0700688005800DDFF804170860D1
:10413000DFF8000700F078FC200010BD002001002F
:104140000A2913DADFF8F806182303FB010002003E
:1041500000201080002090600020D06000201074AB
:104160000020506100205060491CE9E700207047A2
:1041700010B5040000F094FB606110BD10B50400A0
:10418000E068002802D0E06800F0B5FD0020E060A3
:1041900000202074002020800020A06000206061AA
:1041A00000206060002010BDF8B50400002700204A
:1041B00005000A2D14DADFF88806182101FB050036
:1041C0000600307C002809D101203074B460002042
:1041D00070603000FFF7CCFF370001E06D1CE8E7AE
:1041E0003800F2BD2DE9F04104000D005FF0000839
:1041F000002006000A2E15DADFF84406182101FB1C
:1042000006000700387C01280AD1B868284015EA62
:104210000401884204D13800FFF7AAFFB84601E044
:10422000761CE7E74046BDE8F08170B50020040049
:104230000A2C20DADFF80806182101FB040005002B
:10424000287C012815D100F02BFB06006869301A84
:1042500042F2117188420CD3DFF8DC054078002867
:1042600004D0DFF8E015012000F0FCFB2800FFF788
:1042700085FF641CDCE770BD2DE9F84F040027685A
:10428000DFF8C4153800FFF7ADFF0500002D31D170
:10429000C7F38040002819D13800FFF785FF0500DB
:1042A000002D27D1DFF890054078002804D0DFF8F2
:1042B0009C15012000F0D6FBDFF89405C069401C76
:1042C000DFF88C15C8615FF0FF300AE1DFF86805A0
:1042D0004078002804D0DFF87C15012000F0C2FBF4
:1042E000DFF86C05806A401CDFF8641588627FF097
:1042F0000100F6E000200600B80C10F001000028D4
:1043000002D0012879D0DEE02079062814D2DFF827
:1043100028054078002804D0DFF83C15012000F083
:10432000A1FBDFF82C05806A401CDFF824158862A9
:104330002800FFF723FFD3E0E868002811D0DFF85A
:10434000F8044078002804D0DFF81015012000F0B0
:1043500089FBDFF8FC04806A401CDFF8F4148862F3
:104360001CE04FF4807000F04DFCE860E868002825
:1043700014D1DFF8C4040078002804D0DFF8E0147A
:10438000002000F06FFBDFF8C804806A401CDFF8F3
:10439000C01488622800FFF7F1FEA1E05FF0040876
:1043A00014F108000090E86810F10A0942460099EB
:1043B0004846FCF791FEE868D0F80A0000F03BFDA3
:1043C000E968C1F80A005FF0020914F10C0AE86814
:1043D00010F1080B4A4651465846FCF77DFEE86846
:1043E000008900F015FDE96808810020288006207A
:1043F0000600C7F38720401C6860C7F38720696800
:10440000491E884214D0DFF830040078002804D018
:10441000DFF85014002000F025FB2800FFF7AEFE67
:10442000DFF82C04806A401CDFF82414886257E00F
:104430006868401E6860E86800892988227912FA55
:1044400081F1F6B2891B884214DADFF8EC030078B8
:10445000002804D0DFF81014002000F003FBDFF880
:10446000F003806A401CDFF8E81388622800FFF739
:1044700085FE35E02079F6B2B0EB0608F6B23019C9
:1044800010F10809E8682988081810F10E0A424658
:1044900049465046FCF720FE288821794018F6B29C
:1044A000801B28802888E9680989884218D1002261
:1044B000DFF89C13E86800F0F2FC0020E8602800B8
:1044C000FFF75CFE0CE0DFF870034078002804D0B2
:1044D000DFF89813012000F0C5FA2800FFF74EFE20
:1044E0000020BDE8F28F30B585B004004FF47A7239
:1044F00000A9DFF87C03006800F05DFD0500012DD8
:1045000002D0FFF792FEF1E700A8FFF7B5FEEDE756
:1045100038B504000D002A002100D548006800F0DD
:104520003FFD012802D05FF0FF3000E0002032BDE7
:104530002DE9F54F89B00C00FFF7DBFD0600002EDA
:104540000AD5BD484078002803D0CA49012000F0B0
:1045500089FA7FF00100E2E006208DF80100D4F82E
:104560000A00000D10F01F0000F061FD8DF8000042
:104570009DF80000FF2806D1D4F80A00000D10F0C5
:104580001F008DF800000027D4F80A00400810F042
:10459000F85007439DF8000010F01F0057EAC0478D
:1045A000B005800D074320899DF8011011FA80F0B5
:1045B000401E082190FBF1F0C0B257EA80279DF819
:1045C0000100D0F108008DF802009DF80200218959
:1045D00080B2884202D3B4F808B001E09DF802B07E
:1045E000D4F80A0000F01BFC0290208900F00AFCBD
:1045F000ADF804000420079002A806900DF10C0805
:10460000079A06994046FCF767FD5FF002080DF136
:1046100004090DF1100A424649465046FCF75CFD7C
:104620005FFA8BFB14F10E00059003A89DF80110B2
:1046300011EB000A5A4605995046FCF74DFD5FFA0A
:104640008BFB5D469DF801001BEB0002D2B203A973
:10465000380000F0AAFD00280AD0774840780028EA
:1046600003D08549012000F0FDF97FF00A0056E0F3
:104670002089ADB285424ED22089ADB2401B0828B8
:1046800002DB5FF0080B02E02089B0EB050B5FF066
:104690000008D4F80A00400810F0F85050EA080862
:1046A0009DF8000010F01F0058EAC048B005800DCA
:1046B00050EA080858F480282089ADB2401B5FFA00
:1046C0008BFBB0EB0B00C01D082190FBF1F0C0B2DA
:1046D00058EA802855FA8BF55A46D2B2ADB228195D
:1046E0005FFA8BFBB0EB0B0010F10E01404600F0BF
:1046F0005CFD0028BCD050484078002803D05F49BA
:10470000012000F0AFF952488069401C504988618F
:104710007FF00A0003E0200000F0EDFA00200BB06B
:10472000BDE8F08FF0B583B004000D00FFF706FD83
:1047300000280AD040480078002803D050490020C3
:1047400000F090F95FF0FF306FE0FFF7B1FC002858
:104750000AD039480078002803D04A49002000F0E8
:1047600081F95FF0FF3060E0E4B2002C03D15FF428
:104770007800070010E0E4B2012C02D1002007000D
:104780000AE02D480078002803D03F49002000F0BF
:1047900069F97FF0010048E01021642000F0E6FB99
:1047A000334908603248006800280AD1224800785E
:1047B000002803D03549002000F054F95FF0FF30A5
:1047C00033E03348019004200090002340F2DC5293
:1047D00016A1304800F040FD0600002E0AD0164811
:1047E0000078002803D02C49002000F03BF95FF04E
:1047F000FF301AE000F058FD2A003900C0B210F076
:104800001F00C00400F061FC00280AD00A480078AC
:10481000002803D02149002000F024F97FF00A008D
:1048200003E00B4800F07CFF0020FEBD43414E003A
:104830007CD5002080D50020C80100207497000896
:104840001CD10020409B0008FF03F81F049A0008B9
:104850001C010020289A0008949C0008509F000822
:10486000A0960008609B0008649F00084C9A00080E
:1048700088D500209C970008C4970008EC97000892
:104880001498000810960008789F0008809B000884
:1048900084D50020E7440008B09C0008A09B0008D5
:1048A00080B5FEF7C5FD0A21484302BD10B5044698
:1048B0000448C046C046002101700348C046C046B7
:1048C000046010BD9000002094000020F8B5344F23
:1048D0003846C046C0460446381DC046C046054658
:1048E00007F10800C046C046064607F10C00C04666
:1048F000C04623782B492C4A002B40D12B6802FB61
:1049000003132B60082702FB03132B6002FB031326
:104910002B6002FB03132B6002FB03132B6002FBD3
:1049200003132B6002FB03132B6002FB03132B60AA
:104930000346D5F800C002FB0C1CC5F800C043F8C4
:1049400004CB7F1ED5F800C002FB0C1CC5F800C0CC
:1049500043F804CBD5F800C002FB0C1CC5F800C01E
:1049600043F804CBD5F800C002FB0C1CC5F800C00E
:1049700043F804CBDDD1C36F3360012323702B6870
:1049800002FB03112960317801F01F0150F821204A
:1049900032602A6840F82120306880008008F2BD2B
:1049A000900000205FF36E3C0D66190010B5040006
:1049B000012000F03BFF20602068002801D001208A
:1049C00000E0002010BD10B50400032200210120EA
:1049D00000F002FF20602068002805D0002300229C
:1049E0000021206800F050FF012010BD38B5040000
:1049F0000D0019488079002804D0220017490620AC
:104A000000F030F815F1010F02D00A20B5FBF0F5E7
:104A100000232A000021206801F008F8012801D1B4
:104A2000012000E0002032BD10B504000A48807962
:104A3000002804D022000A49062000F013F80023C1
:104A400000220021206800F01FFF012801D1012071
:104A500000E0002010BD0000C8010020E89F000811
:104A6000F49F00080CB4F8B504000D00F026E4B281
:104A7000072C04DA3448E4B2205C002800D13EE080
:104A8000E4B2002C0CD0022C07D00CD3042C10D094
:104A90000CD3062C13D00FD314E01320060012E021
:104AA000122006000FE0142006000CE0062006008D
:104AB00009E00320060006E00520060003E00720C9
:104AC000060000E01BE006A807001E48006800285A
:104AD00007D03A0029002000C0B21A4B1B68984743
:104AE0000DE03000C0B201F019F93900280001F0E2
:104AF00069F913A0FFF78CFAF02001F00FF9F1BC6F
:104B00005DF80CFB10B50400E4B2072C03DB0F4882
:104B1000FFF77EFA12E00C48E4B2205C002801D0D6
:104B2000002000E001200849E4B260540648E4B2E5
:104B3000225CE4B221000648FFF76AFA10BD0000CB
:104B40000D0A000078D50020C80100203C9F000815
:104B5000189E00082DE9F04782B004000D009A4825
:104B6000046015F11200994908609848006810F136
:104B70000807F81C800887009348006807FB00F8C6
:104B8000404601F02BF992490860914800680028DE
:104B900034D004218C48006800F0E8F98D490860A1
:104BA0008C480068002804D18948006801F01CF98D
:104BB00024E05FF000098648D0F800A04A4641464C
:104BC0005046FFF79DF9002006007F4800688642A6
:104BD00012D27F48006807FB060000900020009971
:104BE0000860009800994860002200A97948006890
:104BF00000F0C5F9761CE8E7002001E05FF0FF3027
:104C0000BDE8F68710B582B00400002000906F4820
:104C1000006814F1120188420AD26F480078002817
:104C200004D022006D490020FFF71CFF002033E074
:104C3000002200A96748006800F0BDF9009800282C
:104C400009D165480078002803D065490020FFF7A6
:104C500009FF002020E06048C078002806D00098B6
:104C60004368009A5F490320FFF7FCFE0098009913
:104C70004968884209D058480078002803D05A492A
:104C80000020FFF7EFFE002006E000980068401CBF
:104C9000009908600098083016BD1CB5040000207B
:104CA0000190002C26D0B4F1080000900098042157
:104CB000B0FBF1F202FB1102002A1BD10098406800
:104CC0000099884216D100980068002812D00098F8
:104CD0000068022805D300980068401E009908600B
:104CE00008E000200099086001AA00A9394800687E
:104CF00000F056F913BD10B582B00400002C08D1A5
:104D000035480078002803D038490020FFF7AAFE74
:104D100058E0B4F10800009000980421B0FBF1F2D3
:104D200002FB1102002A09D02B480078002804D089
:104D300022002F490020FFF795FE43E000984068CD
:104D40000099884209D024480078002804D0220025
:104D500028490020FFF786FE34E00098006800280C
:104D600009D11D480078002804D0009A224900206B
:104D7000FFF778FE26E000980068022810D300981C
:104D80000068401E0099086013480078002806D08B
:104D900000980368009A19490020FFF763FE11E0AC
:104DA0000020009908600C48C078002804D0009AC0
:104DB00013490320FFF756FE002200A905480068AA
:104DC00000F0DDF813BD000068D500206CD5002090
:104DD00064D5002060D50020C80100202497000879
:104DE000B09F0008D09F0008149F0008C09A0008D8
:104DF0004C97000850990008E09A00087499000840
:104E0000DC9F000880B2010251EA102080B2704796
:104E100010B50400200080B2FFF7F4FF10BD0106BA
:104E200051EA106110F47F4251EA0221000A10F4A5
:104E30007F400843704710B504002000FFF7EFFFE4
:104E400010BD000010B500200400012C15DA424806
:104E500050F8240000280ED108210A2000F086F81E
:104E60003D4941F824003C4850F82400002802D174
:104E70005FF0FF3002E0641CE7E7002010BD10B5D2
:104E800004005FF0FF3221003348006800F093F81F
:104E9000012802D07FF0020000E0002010BD2DE9C3
:104EA000FC4104000D001600002C08D12B4840786E
:104EB000002803D02A490120FFF7D4FD49E0002D46
:104EC00011D126484078002803D026490120FFF759
:104ED000C9FD002E03D12000FFF70DFF02E02000E6
:104EE000FFF7DBFE35E0009501945FF00008002E2F
:104EF00008D1002200A9184850F8280000F03FF817
:104F0000070007E0320000A9134850F8280000F01D
:104F100047F80700012F14D010484078002803D02C
:104F200011490120FFF79EFD286A401C2862002ECF
:104F300003D12000FFF7DFFE0BE02000FFF7ADFEFE
:104F400007E06869401C6861286B218910FA81F0CC
:104F50002863BDE8F381000090D50020C80100203F
:104F600064980008CC960008DC95000838B5040069
:104F70000D0000222900200000F02EFC32BD70B58B
:104F800004000D00160016F1010F02D00A20B6FB36
:104F9000F0F6002332002900200000F075FC70BDFF
:104FA00070B504000D001600002332002900200017
:104FB00000F0FBFC70BD70B504000D00160016F18A
:104FC000010F02D00A20B6FBF0F6002332002900C0
:104FD000200000F02BFD70BD10B50400200000F093
:104FE000D6FD10BD01002E48C9B2052202FB01000A
:104FF0000068002805D02A48C9B2052202FB01003A
:1050000007E02748D0F8A000002801D0254800E09C
:105010000020704710B504002000C0B2FFF7E2FF87
:105020000100002901D1002000E0086810BD10B582
:1050300004002000C0B2FFF7D5FF0100002901D114
:10504000FF2000E0087910BDF8B504000D0016003F
:105050001F00002E02D17FF001001FE0300000F0A1
:105060005FFBE4B2212C0DDA0D48E4B2052101FB0F
:10507000040006600A48E4B2052101FB0400077140
:1050800000200BE008480078002805D0E4B2220098
:1050900006490020FFF7E6FC7FF00100F2BD0000AA
:1050A000DCD300207CD40020C80100208C980008AC
:1050B0001FB5040000A8FDF759FA0298B0FBF4F000
:1050C0000621B0FBF1F004B010BD70B588B004004B
:1050D0000D00160030685D49086001215FF0C06076
:1050E000FDF7DFFA5A4800F085FE01A800F0B3FF93
:1050F00000208DF80A0001208DF80B0000208DF8AB
:105100000C0001208DF80D0000208DF80E0001200C
:105110008DF80F0000208DF8060000208DF80700A4
:1051200002208DF8080001208DF80900474800682A
:10513000FFF7BEFFADF8040001A9454800F076FE78
:1051400001221021424801F0A4F80E208DF81A0027
:1051500000208DF81B0001208DF81C000020ADF808
:1051600010000020ADF812000020ADF8140000205F
:10517000ADF816000120ADF8180001208DF81D00D3
:1051800004A800F0DFFE41208DF8000005208DF816
:10519000010000208DF8020001208DF8030000A816
:1051A000FDF75DFE002008B070BDF0B585B00400CD
:1051B0000D00160000200090019400208DF80900D9
:1051C00004208DF808008DF80A600020C0B2F6B205
:1051D000B04207D2C0B2415D00AAC0B28218D172FB
:1051E000401CF3E700A91A4800F04CFF07000A2012
:1051F000FEF740FFFFB2042FF4D0002005B0F0BD51
:1052000000B589B01021124801F04EF804AA01211E
:105210000F4800F0CAFF059800909DF81A008DF81D
:1052200004000020C0B2082809DA04A9C0B241185D
:10523000C97A00AAC0B282181172401CF2E705496F
:1052400000A8FFF765F909B000BD000058D500209F
:10525000006800405CD500202DE9F04385B00400D3
:105260000D0016001F00DDF83080DDF834900020BE
:10527000039000200290CDF80490CDF800803B0010
:10528000320092B229002000FDF7ACFE0100012996
:1052900002D05FF0FF3000E0002005B0BDE8F083F1
:1052A000DFF8EC1308707047DFF8E403007870470C
:1052B00038B504002000C0B2FFF7F2FF01F085F816
:1052C0000500002D01D0280022E001F095FA05002C
:1052D000002D01D028001BE0FFF7B4FD0500002DD4
:1052E00001D0280014E0DFF8AC0300F019FAFFF752
:1052F000DBFFFF23DFF89C230521C0B2FFF7A4FEEC
:10530000FF23DFF8902305212020FFF79DFE0020DA
:1053100032BD38B50400E0070BD5DFF87C03007818
:10532000002804D0DFF874130020FFF79BFB002057
:1053300043E0E0060BD5DFF860030078002804D0D6
:10534000DFF85C130020FFF78DFB002035E06007DD
:105350000BD5DFF844030078002804D0DFF84413AD
:105360000020FFF77FFB002027E0DFF83C0304422A
:105370000BD0DFF824030078002804D0DFF82C13CA
:105380000020FFF76FFB002017E0012001F0C1F8BB
:105390000500002D01D100200FE0E00509D5042112
:1053A0006420FFF7E3FD68616869002803D10020ED
:1053B00003E000206861EC61280032BD2DE9F04374
:1053C00087B006000F0090469946002F0AD1DFF8FB
:1053D000C8020078002804D0DFF8D4120020FFF7BC
:1053E00041FB8BE0B8F1000F03D0D8F8080000288B
:1053F0000BD1DFF8A4020078002805D03200DFF8D6
:10540000B4120020FFF72EFB78E0DFF88C02007961
:10541000002817D0D8F80000059038890490F0B221
:105420000390B00F0290C6F305200190C6F38530BB
:105430000090C6F30453C6F34462DFF87C120420E4
:10544000FFF710FBC7F80A60FFF72EFFC6F34461B1
:10545000C9B2C0B281422DD1300000070AD5DFF8B1
:1054600038024078002804D0DFF850120120FFF7FE
:10547000F9FA3EE03000C00710D50021380001F0F5
:105480002DFA00280AD0DFF810024078002804D056
:10549000DFF82C120120FFF7E5FA2AE03000400780
:1054A00008D57D484078002803D086490120FFF7C1
:1054B000D9FA1EE03C89B8F80C50ADB2002D03D0EB
:1054C000ADB2A4B2A54214D34A4639004046D8F83A
:1054D0000830984700280CD1D8F81000401CC8F8B4
:1054E0001000D8F82C0010FA84F0C8F82C00002026
:1054F00006E0D8F81800401CC8F818007FF0090032
:1055000007B0BDE8F0832DE9F04104000D0016005E
:10551000002C04D0002D02D06078012809D05E480C
:105520000078002803D068490020FFF79BFA00208C
:1055300012E0E068000D10F01F00FFF76BFD8046E1
:10554000330042462900E068FFF738FF0700002FCC
:1055500001D1012000E00020BDE8F08138B5040051
:105560000D00002C02D0E069C00501D4002007E046
:10557000002000902A0000A96069FFF71CFD009838
:1055800032BD2DE9F84F04000D0016001F00DDF8B4
:105590002880DDF82C90DDF830A0D9F80A00000A48
:1055A0000002C9F80A005FEAC8700AD53A480078D4
:1055B000002803D045490020FFF754FA7FF001008E
:1055C00063E05FEA48700AD533480078002803D0CA
:1055D0003F490020FFF746FA7FF0040055E05FEAFC
:1055E000C8600AD52C480078002803D0394900202B
:1055F000FFF738FA7FF0040047E05FEA486005D51E
:10560000D9F80A0050F00100C9F80A00EDB2D9F843
:105610000A0065F31850C9F80A00F6B2D9F80A0072
:1056200066F39330C9F80A00FFF73EFEC0B2D9F81E
:105630000A1060F35D61C9F80A10FFB2D9F80A00D8
:1056400067F30D20C9F80A00E4B2D9F80A0064F340
:105650009F70C9F80A002800C0B2FFF7DBFC834640
:10566000002010EB0901897A00AA8154401C04280B
:10567000F7D353465A4649460098FFF79FFE002845
:1056800002D07FF0040000E00020BDE8F28F0000AF
:10569000E7D5002058010020C801002078910008BB
:1056A000D091000828920008AAFEFFFF309E000853
:1056B0003C980008489E0008749400080490000874
:1056C000609E0008A08F0008CC9C0008349500085C
:1056D0008092000830930008FEB504000D0016000B
:1056E0001F00002C02D17FF0010017E00297019506
:1056F0000096D4F80A00800B10F03F03D4F80A009B
:10570000000A10F03F02D4F80A00400E10F01F010A
:10571000D4F80A00800FC0B2FFF733FFFEBD0000CF
:105720000D490968002904D10B49086000218163F3
:1057300010E009490968814204D08A6B002A01D02F
:10574000896BF8E7814205D08A6B002A02D1886311
:1057500000228263704700008CD5002070B50400E1
:105760000D002600FEF728FA3068F16B326C02FB60
:10577000010070600020B0633068B0603068F16B89
:10578000491E326C02FB0100F0605FF0FF30706474
:105790005FF0FF30B064002D12D13069002817D0BF
:1057A00016F11000FDF750FF012811D15FF0805075
:1057B000DFF864150860BFF34F8FBFF36F8F07E00A
:1057C00016F11000FEF73EFA16F12400FEF73AFA41
:1057D000FEF7FFF9012070BD2DE9F84304000D002C
:1057E00016005FF00009002D02D10020804603E082
:1057F00005FB04F0401C804618F15400FEF77CFACB
:105800000700002F0FD0002D01D13F6002E017F1FB
:1058100054003860FC633D6401213800FFF79EFFAF
:1058200087F85060B9464846BDE8F28338B50400B1
:105830005420FEF761FA0500002D23D00020686097
:10584000002028600020A8600020E8600020A863F5
:105850000120E863002028645FF0FF3068645FF097
:10586000FF30A86485F8504015F11000FEF7EAF902
:1058700015F12400FEF7E6F900230022002128009C
:1058800000F002F8280032BD2DE9F74304000D00B6
:105890001E005FF00008A146FEF78EF9D9F8380027
:1058A000D9F83C10884201D3022E28D132002900B9
:1058B000484600F076F90700D9F8240000280FD0F8
:1058C00019F12400FDF7C0FE012814D15FF08050CB
:1058D000DFF844140860BFF34F8FBFF36F8F0AE007
:1058E000002F08D05FF08050DFF82C140860BFF361
:1058F0004F8FBFF36F8FFEF76CF9012053E00298D2
:10590000002803D1FEF765F900204CE0B8F1000F44
:1059100004D100A8FDF7D1FE01208046FEF759F919
:10592000FDF70BFDFEF748F9D9F8440010F1010F1F
:1059300002D10020C9F84400D9F8480010F1010F45
:1059400002D10020C9F84800FEF743F902A900A8D7
:10595000FDF7C6FE002820D1484600F0CBF900280C
:1059600015D0029919F11000FDF73DFE484600F0F0
:105970007CF9FDF7EAFC00288ED15FF08050DFF85B
:1059800098130860BFF34F8FBFF36F8F84E74846CB
:1059900000F06BF9FDF7D9FC7EE7484600F065F9A9
:1059A000FDF7D3FC0020BDE8FE832DE9F04704009D
:1059B0000D0016001F00A246EFF311808146BF20A4
:1059C00080F31188BFF34F8FBFF36F8FDAF8380081
:1059D000DAF83C10884201D3022F20D13A00290086
:1059E000504600F0DEF8DAF8480010F1010F0ED151
:1059F000DAF8240000280FD01AF12400FDF724FE65
:105A0000002809D0002E07D00120306004E0DAF829
:105A10004800401CCAF848000120804601E00020F0
:105A2000804689F311884046BDE8F0872DE9F743A9
:105A300004000D001E000027A146FEF7BDF8D9F8AE
:105A40003800002842D0D9F80C008046290048468A
:105A500000F0F3F8002E20D1D9F83800401EC9F824
:105A60003800D9F80000002803D1FEF739F8C9F84A
:105A70000400D9F81000002824D019F11000FDF717
:105A8000E3FD01281ED15FF08050DFF88C12086022
:105A9000BFF34F8FBFF36F8F14E0C9F80C80D9F8B4
:105AA000240000280ED019F12400FDF7CDFD0028B8
:105AB00008D05FF08050DFF860120860BFF34F8FAE
:105AC000BFF36F8FFEF785F801205EE00298002893
:105AD00003D1FEF77EF8002057E0002F04D100A884
