:1000000040090020519E0000FD9E0000FF9E000060
:10001000019F0000039F0000059F000000000000FA
:10002000000000000000000000000000333B000062
:10003000079F000000000000E13A00009D3C000026
:10004000099F00000B9F0000AB6A0000B56A00002A
:100050000D9F00000F9F0000119F0000139F0000E4
:10006000159F0000179F0000E36B0000EF6B00007E
:10007000199F0000D79C00001B9F00001D9F0000DF
:100080009D5F00001F9F0000219F0000118900005C
:10009000239F0000259F0000279F0000299F00004C
:1000A0002B9F00002D9F00002F9F0000319F00001C
:1000B000339F0000359F0000379F0000399F0000EC
:1000C0003B9F00003D9F0000999A00003F9F000069
:1000D000419F0000439F0000459F0000479F000094
:1000E000499F00004B9F00004D9F00004F9F000064
:1000F000519F0000539F0000559F0000579F000034
:10010000599F00005B9F00005D9F00005F9F000003
:10011000619F0000639F0000659F0000679F0000D3
:10012000699F00006B9F00006D9F00006F9F0000A3
:10013000719F0000739F0000759F0000779F000073
:10014000799F00007B9F00007D9F00007F9F000043
:10015000819F0000839F0000859F0000879F000013
:10016000899F00008B9F00008D9F00008F9F0000E3
:10017000919F0000939F0000959F0000979F0000B3
:08018000999F00009B9F000005
:10018800F8B504002089001910F10E0520890830FF
:100198002081082600273A003100280000F0ECFFF3
:1001A8002800F2BD010008894018801D0A89083A14
:1001B8000A817047010008894018801D7047521A4B
:1001C800401A92B280B2824201D3012000E000209E
:1001D800C0B27047401A00B2002801D5012000E0E3
:1001E8000020C0B2704738B504000D00210089B264
:1001F800280080B2FFF7EEFF32BD401A002801D573
:10020800012000E00020C0B2704738B504000D009E
:1002180021002800FFF7F1FF32BD2DE9F84F040057
:100228000D0016001F00DDF82880002D0AD11420CB
:1002380001F056F80500002D02D15FF0FF3079E09B
:10024800002028812800FFF79BFF8146380080B2F4
:1002580001F05CF9A9F80400404680B201F056F9B3
:10026800A9F806007010D9F8001060F38201C9F8E7
:100278000010B010D9F8001060F34101C9F800105F
:10028800D9F8000066F3C300C9F80000F010D9F8E7
:10029800001060F30001C9F80010F00717D5280016
:1002A80001F0FFF800900098002802D15FF0FF30BD
:1002B80040E001F04AF900994860002200A9206D49
:1002C80001F058F9012802D0009801F082F8E0689E
:1002D8008246E068800F012802DAE068800F00E0BB
:1002E800012060F39F7A5FEA1A5010F01F0001F0B6
:1002F80097F9834600235A462900504601F05EFAD2
:1003080000280FD0DFF8D8060078002804D0DFF8DE
:10031800701C002001F0D8FB280001F05AF87FF08B
:10032800050007E0B00704D5A4F82C8001F00DF90A
:10033800A0640020BDE8F28F2DE9FC410400642090
:1003480000F0CEFF0500002D02D15FF0FF3048E03D
:1003580000202881606D01F044F9070000200600A4
:10036800BE4236DADFF81C2C01A9606D01F02FF9C6
:1003780001280AD0DFF868060078002804D0DFF8E2
:10038800081C002001F0A0FB23E00198FFF712FFF2
:100398008046B8F8040001F0B9F82989490815EB36
:1003A8004101C8812889801C2881DFF834064079FA
:1003B800002806D0B8F80420DFF8D01B052001F08B
:1003C80083FBDFF8C02B01A9606D01F0E4F8761C0F
:1003D800C6E7208D0090638C062229002000FFF7D5
:1003E8001CFFBDE8F68111B581B00C000198406989
:1003F800002817D0002201A90198406901F0BAF835
:1004080000280CD1DFF8D8050078002804D0DFF8E0
:10041800801B002001F058FB7FF0080019E0002045
:10042800019948612000FFF7BDFE2100019801F005
:10043800E3FB00280CD5DFF8A8054078002804D095
:10044800DFF8501B012001F03FFB7FF0080000E0BF
:10045800002016BDF8B50400606D01F0C2F8060072
:1004680000200500B54242DADFF8182B00A9606DBC
:1004780001F0ADF801280AD0DFF8640500780028FB
:1004880004D0DFF8041B002001F01EFB2FE00098C9
:10049800FFF790FE0700DFF848054079002805D0EF
:1004A800BA88DFF8F41A052001F00EFBB888218D10
:1004B800491C89B2884212D1DFF824054079002806
:1004C80005D0BA88DFF8D41A052001F0FDFA0099A2
:1004D8002000FFF788FF208D401C2085BCE7DFF84F
:1004E800A42A00A9606D01F056F86D1CBAE7F1BDA9
:1004F8002DE9F04182B004000D00606D01F071F843
:10050800070000200600BE423BDADFF8782A00A97F
:10051800606D01F05CF801280AD0DFF8C4040078A7
:10052800002804D0DFF8781A002001F0CDFA28E07E
:10053800DFF8502A00A9606D01F02DF80098FFF748
:1005480039FE8046DFF898044079002806D0B8F8CC
:100558000420DFF8501A052001F0B6FAB8F80400B4
:10056800ADB2A8420BD1DFF878044079002804D056
:10057800DFF83C1A052001F0A7FA012002E0761CFA
:10058800C1E70020BDE8F68132B504001500290056
:1005980089B22000FFF7ACFF002801D0002005E059
:1005A800DFF8E02900A9606D00F0F5FF32BD2DE904
:1005B800F84F04000D00206D01F013F8804600206C
:1005C8000600464580F28380002200A9206D00F0D5
:1005D800EDFF01280AD0DFF808040078002804D0CD
:1005E800DFF8C419002001F06FFA70E00098FFF7F7
:1005F800E1FD8146DFF8E803407900280CD0B9F81E
:10060800040000F089FF03009BB200984268DFF8FD
:100618009C19052001F058FA5FF0000A0020070035
:1006280028890838B7EB500F34DA15EB4700C08932
:1006380000F072FF8346B9F8040000F06DFF1FFA5E
:100648008BFB834501D101208246B9F8040000F0F4
:1006580063FF834615EB4700C08900F05DFF1FFA72
:100668008BFB834514D200F070FF83460098016825
:100678005846FFF7CAFD00280AD0A06BBBEB000064
:10068800401E00994860A06B1BEB50000099086061
:100698007F1CC5E7BAF1000F05D1002200A9206D23
:1006A80000F068FF11E0CE48407900280AD0B9F878
:1006B800040000F031FF80B20200DFF81C1A0520A8
:1006C80001F002FA009800F084FE761C79E7BDE894
:1006D800F18F38B50400E06B002807D1A08D218D7B
:1006E800884201D001201AE0002018E000F02DFF18
:1006F8000500A06C216C09182800FFF786FD00286A
:1007080001D001200BE0A08D616C091889B2208D01
:10071800FFF769FD002801D0012000E0002032BD6C
:1007280010B582B00400002C02D0206D002809D139
:10073800AB480078002804D0DFF82819002001F021
:10074800C3F943E0DFF83C2800A9206D00F03FFF23
:10075800012819D100980028F4D0A1484079002830
:100768000ED00098FFF726FD808800F0D5FE030024
:100778009BB200984268DFF8F018052001F0A4F950
:10078800009800F026FEDDE7DFF8F82700A9606D85
:1007980000F01DFF012819D100980028F4D09048D6
:1007A800407900280ED00098FFF704FD808800F0FB
:1007B800B3FE80B2030000984268DFF824190520D0
:1007C80001F082F9009800F004FEDDE713BD70B572
:1007D80082B00400012500200600012E0EDA14EB79
:1007E8008600006900F0FDFE216BD0F164008142B3
:1007F80002DB0020050001E0761CEEE7002D0CD09E
:100808002000FFF766FF002807D0208D0090638C3A
:10081800022200212000FFF700FD002076BD2DE90F
:10082800FC47040000F091FE05006069002814D020
:10083800A069616B09182800FFF7E7FC00280CD0B5
:1008480067484078002804D0DFF89018012001F0AC
:100858003BF9200001F02BFBC0E094F920000428AC
:1008680014D1A069616B09182800FFF7CEFC002895
:100878000BD05B484079002804D0DFF868180520C1
:1008880001F022F9200001F012FBA7E0206D00F032
:10089800A8FE070000200600BE4280F28280DFF832
:1008A800CC2701A9206D00F092FE012802D1019801
:1008B800002809D14A484078002804D0DFF82818D1
:1008C800012001F001F96CE00198FFF773FC804604
:1008D800B8F8040000F020FEA18C80B2FFF77AFC83
:1008E800002816D03E48407900280ED0B8F80400F9
:1008F80000F012FE0300A08C00909BB201984268A1
:10090800DFF8E817052001F0DFF8019800F061FD35
:1009180045E001984068A16B09182800FFF775FCAD
:10092800002836D02E48407900280AD0B8F80400AC
:1009380000F0F2FD020092B2DFF8B417052001F0D2
:10094800C3F8208D00F0E2FDA8F8060000F0FDFDD8
:1009580001994860019800F0A4FD8146E068000D07
:1009680010F01F0000F05CFE824600235246494604
:10097800E06800F023FF00280BD0194840780028D1
:1009880004D0DFF87017012001F09EF8484600F007
:1009980020FDDFF8D82601A9206D00F0FCFD761CAB
:1009A8007AE72000FFF713FF94F92000032815D1F8
:1009B800206D00F016FE216B88420FDA206B80B2A2
:1009C800410089B2608CA28C801A80B2FFF702FCC9
:1009D800002803D014F14C0001F01EFBBDE8F3879A
:1009E800000000202DE9F04387B004000D00280026
:1009F800FFF7E0FB0600F08800F08EFDF080B0887D
:100A080000F08AFDB080DFF8F006407900281ED09B
:100A180028890838069028890590F0880490B088BD
:100A28000390307810F0010002903068C0F3400065
:100A380001903068C0F3800000903068C0F3C003B4
:100A480094F92020DFF8B416052001F03DF830783D
:100A5800C00756D53068C0F38000002802D0F0885F
:100A6800401CA08494F92000042803D094F92000A5
:100A7800002810D1DFF880064079002804D0DFF87C
:100A88008016052001F020F8280000F0A2FC2000C4
:100A980001F00DFA70E2DFF860064079002806D010
:100AA80094F92020DFF85C16052001F00DF8B088D5
:100AB800218D491C89B2884218D1DFF83C0640795B
:100AC800002804D0DFF84016052000F0FDFF0420C0
:100AD80084F8200000F039FDA061208D0090638C1F
:100AE8000A2200212000FFF798FB2DE2DFF8080614
:100AF8004079002804D0DFF81416052000F0E4FF40
:100B080037E294F9200000280AD0022800F0D880A3
:100B1800C0F08080042800F0CF81C0F0D18009E2C5
:100B28003068C0F3C000002812D1DFF8CC05407946
:100B3800002804D0DFF8D815052000F0C5FF208D67
:100B48000090638C082200212000FFF766FBFBE180
:100B5800DFF8A4054079002804D0DFF8B81505208F
:100B680000F0B2FF00F0F1FC01F074FA01F082FA33
:100B7800E084E08C401C6084E08CA084B0882085F0
:100B8800B0886085B088A085D5F80E0000F0D7FC45
:100B98002063D5F8120000F0D2FC6063D5F8160087
:100BA80000F0CDFCA063D5F81A0000F0C8FCE063A3
:100BB800D5F81E0000F0C3FC2064D5F8220000F030
:100BC800BEFC6064DFF830054079002808D0A06BCF
:100BD8000090636B226BDFF84015052000F074FF6E
:100BE800DFF814054079002808D0606C0090236C69
:100BF800E26BDFF82815052000F066FF022084F874
:100C08002000608D0090E38C032200212000FFF774
:100C180004FBAEE1307810F00C000C2829D1B08824
:100C28002085B0886085B088401EA085F088401C6B
:100C3800A08400F08AFCA064032084F82000DFF878
:100C4800B8044079002804D0DFF8D414052000F057
:100C58003BFFE06B002807D1208D0090638C0222B7
:100C680000212000FFF7D9FA14F14C0001F0D4F963
:100C78007FE13068C0F38000002816D0DFF87804E0
:100C88000078002804D0DFF89C14002000F01CFF36
:100C9800208D0090638C082200212000FFF7BDFA08
:100CA80014F14C0001F0B8F963E1DFF84C04007866
:100CB800002804D0DFF87014002000F005FF43E19D
:100CC800307810F00C00042819D0B088618D884263
:100CD8000AD0DFF824040078002804D0DFF84C1488
:100CE800002000F0F1FE2FE1DFF80C044079002825
:100CF80004D0DFF83C14052000F0E6FE39E1208D31
:100D0800216B10EB410292B2208D411C89B2B08850
:100D1800FFF755FA002826D1DFF8DC0340790028D0
:100D28000DD0208D401C216B10EB41000090208DD0
:100D3800431CB288DFF8FC13052000F0C5FE94F9C7
:100D48002000022807D1608D0090E38C0322002147
:100D58002000FFF762FA94F92000032802D120004E
:100D6800FFF7EAFA05E1608C421E92B2A08C401EA1
:100D7800216BB0EB410189B2F088FFF720FA002817
:100D880013D1DFF87403007800280DD0608C401E62
:100D98000090A08C401E216BB0EB4103F288DFF875
:100DA8009813002000F090FEE3E094F92000022858
:100DB8001BD1F088E18C88420AD0DFF83C03007828
:100DC800002804D0DFF87413002000F07DFEBBE09B
:100DD800DFF824034079002804D0DFF864130520E5
:100DE80000F072FE032084F82000F088401CA084E4
:100DF8003068C0F34000002807D02889092803D3A9
:100E080029002000FFF7D3FBB3E028890928C0F0A8
:100E1800B080B088218D491C89B2884215D0B2882B
:100E280029002000FFF7B0FB01280AD0DFF8C8022C
:100E38004079002804D0DFF80C13052000F044FEA8
:100E480097E02000FFF778FA96E0B788290020009D
:100E5800FFF7C9FA002840F08C802785D5F80A00EA
:100E6800800F01000020804614EB8800006900F024
:100E7800B8FB8146206B10EB090065280DD22000D5
:100E8800FFF727FC002813D0208D0090638C0222E6
:100E980000212000FFF7C1F90AE0DFF85C02407981
:100EA800002805D0228DDFF8A012052000F00CFEE6
:100EB8002000FFF7CFFA5FE0307810F00C0004282C
:100EC8000AD0DFF834024079002804D0DFF87C1219
:100ED800052000F0F9FD4CE0608C421E92B2A08C17
:100EE800401E216BB0EB410189B2F088FFF767F92A
:100EF800002813D1DFF80002007800280DD0608C9C
:100F0800401E0090A08C401E216BB0EB4103F2887C
:100F1800DFF82412002000F0D7FD2AE0F088401CFA
:100F2800A084208D0090638C0A2200212000FFF706
:100F380074F91EE0DFF8C0010078002804D0DFF85B
:100F48001012002000F0C0FD606900280ED1DFF803
:100F5800A8014079002804D0DFF8F811052000F036
:100F6800B3FD0021200000F047FE02E0200000F061
:100F78009EFF280000F02DFA07B0BDE8F0830000BE
:100F880074AB0000880000203CA70000B0B400004B
:100F980084A80000C4B40000B0A8000038B5000060
:100FA8006CA70000DCA8000008A900009CAB0000AA
:100FB80048B5000010B504004F48C078002804D098
:100FC80022006549032000F07FFD002084F82000FE
:100FD80062480068606362480068A06314F14C00CE
:100FE80000F0DDFF01280AD043480078002803D02C
:100FF8005C49002000F068FD5FF0FF3031E004211B
:10100800142000F0A8FA2065206D00280ED13A4877
:101018000078002803D05449002000F055FD14F151
:101028004C0000F0CFFF5FF0FF301AE004212820C9
:1010380000F091FA6065606D002811D12E480078A3
:10104800002803D04949002000F03EFD14F14C006F
:1010580000F0B8FF206D00F087FA5FF0FF3000E085
:10106800002010BDC4AB000070AE00008800002056
:1010780010B582B0040094F92000002801D10020A6
:1010880029E094F92000042819D0042084F82000CD
:1010980000F05BFAA061208D0090638C0A22002189
:1010A8002000FFF7BAF814484079002804D022003D
:1010B8002F49052000F008FD7FF00B000BE00E48DB
:1010C8004079002803D02B49052000F0FDFC0020C2
:1010D80084F82000002016BDD8B40000ECAB000056
:1010E80094AE0000ECB400009CA7000034A90000F6
:1010F80060A90000ACB30000000000201CA00000A4
:1011080020A40000C4B30000E0A400008CA90000E3
:10111800D8A6000000B5000090A500001CA500009E
:101128005CB2000014AC0000B0B00000B8AE000023
:10113800D0B00000C8A50000CCA7000078B200001D
:1011480094B20000B0B2000098A30000DCAE00002A
:10115800CCB20000F0B000003CAC000080000020E1
:101168008400002010B1000000AF000024AF000090
:1011780030B1000064AC000062F30F2262F31F423A
:10118800401810F0030308D0C91A1FD3DB0748BF63
:1011980000F8012D28BF20F8022D130030B41446A2
:1011A8001546103928BF20E93C00FAD8490728BF5E
:1011B80020E90C0048BF40F8042D890028BF20F81A
:1011C800022D48BF00F8012D30BC7047C91818BF60
:1011D80000F8012DCB0728BF00F8012D704700004B
:1011E8002DE9F04782B004000D00B948046015F1FC
:1011F8001200B8490860B748006810F10807F81CE1
:1012080080088700B248006807FB00F8404600F0F5
:10121800A1FFB1490860B0480068002834D0042113
:10122800AB48006800F097F9AC490860AB48006823
:10123800002804D1A848006800F092FF24E05FF07D
:101248000009A548D0F800A04A4641465046FFF795
:1012580093FF002006009E480068864212D29E48EE
:10126800006807FB060000900020009908600098BD
:1012780000994860002200A99848006800F07AF9AF
:10128800761CE8E7002001E05FF0FF30BDE8F68754
:101298001CB5040000200090002001908D480068D3
:1012A80014F11201884201D2002018E001AA00A915
:1012B8008A48006800F08BF90098002801D10020C6
:1012C8000DE0009800994968884201D0002006E0A6
:1012D80000980068401C009908600098083016BD06
:1012E80010B582B00400002000907A48006814F11C
:1012F800120188420AD27A480078002804D02200D5
:101308007849002000F0E0FB002033E0002200A92B
:101318007248006800F04AF90098002809D170481E
:101328000078002803D07049002000F0CDFB002091
:1013380020E06B48C078002806D000984368009ADF
:101348006A49032000F0C0FB009800994968884268
:1013580009D063480078002803D06549002000F0D0
:10136800B3FB002006E000980068401C0099086064
:101378000098083016BD1CB5040000200190002C10
:1013880026D0B4F10800009000980421B0FBF1F2D7
:1013980002FB1102002A1BD100984068009988427C
:1013A80016D100980068002812D00098006802281A
:1013B80005D300980068401E0099086008E00020E6
:1013C8000099086001AA00A94448006800F0E3F801
:1013D80013BD10B582B00400002C08D14048007835
:1013E800002803D04349002000F06EFB58E0B4F118
:1013F8000800009000980421B0FBF1F202FB1102F2
:10140800002A09D036480078002804D022003A493A
:10141800002000F059FB43E000984068009988429A
:1014280009D02F480078002804D022003349002032
:1014380000F04AFB34E000980068002809D12848E9
:101448000078002804D0009A2D49002000F03CFBC9
:1014580026E000980068022810D300980068401E13
:10146800009908601E480078002806D00098036894
:10147800009A2449002000F027FB11E00020009981
:1014880008601748C078002804D0009A1E49032035
:1014980000F01AFB002200A91048006800F06AF862
:1014A80013BDF8B504002500002D01D100200DE082
:1014B8002889FFF715FF0600002E06D005480768A3
:1014C8003A002900300000F051FE3000F2BD000063
:1014D80018DC00201CDC002014DC002010DC0020BC
:1014E80000000020E4A9000028B5000078B500003D
:1014F80024B4000090AF00000CAA00002CAD00003E
:10150800B0AF000050AD000084B5000080B2010209
:1015180051EA102080B2704710B50400200080B254
:10152800FFF7F4FF10BD010651EA106110F47F4285
:1015380051EA0221000A10F47F400843704710B5B1
:1015480004002000FFF7EFFF10BD80B501F031F86F
:101558000521484302BD38B504000D0000222900CA
:10156800200001F037FC32BD10B50400200001F066
:10157800A7FE10BD70B504000D00160016F1010F8E
:1015880002D00520B6FBF0F6002332002900200027
:1015980001F083FC70BD70B504000D001600002337
:1015A80032002900200001F018FD70BD70B504005C
:1015B8000D00160016F1010F02D00520B6FBF0F65B
:1015C800002332002900200001F068FD70BD70B5CD
:1015D80004000D00160032002900200001F010FE62
:1015E80070BD10B50400200001F05BFE10BD0000C6
:1015F80001002E48C9B2052202FB0100006800283C
:1016080005D02A48C9B2052202FB010007E0274895
:10161800D0F8A000002801D0254800E0002070473D
:1016280010B504002000C0B2FFF7E2FF0100002956
:1016380001D1002000E0086810BD10B504002000AA
:10164800C0B2FFF7D5FF0100002901D1FF2000E05B
:10165800087910BDF8B504000D0016001F00002E13
:1016680002D17FF001001FE0300001F0EFFEE4B28C
:10167800212C0DDA0D48E4B2052101FB04000660B7
:101688000A48E4B2052101FB0400077100200BE0C1
:1016980008480078002805D0E4B222000649002056
:1016A80000F012FA7FF00100F2BD000014D800200B
:1016B800B4D80020000000208CAC0000DFF88013B4
:1016C80008707047DFF878030078704738B5040071
:1016D8002000C0B2FFF7F2FF00F0C3FA0500002DAA
:1016E80001D0280022E001F0EBFE0500002D01D01A
:1016F80028001BE001F03CFF0500002D01D0280068
:1017080014E0DFF8400301F0A1FEFFF7DBFFFF2341
:10171800DFF830230521C0B2FFF79CFFFF23DFF875
:10172800242305212020FFF795FF002032BD38B57E
:101738000400E0060BD5DFF810030078002804D079
:10174800DFF80813002000F0BFF9002035E060073B
:101758000BD5DFF8F4020078002804D0DFF8F01287
:10176800002000F0B1F9002027E0DFF8E802044289
:101778000BD0DFF8D4020078002804D0DFF8D812A4
:10178800002000F0A1F9002017E0012000F029FB5B
:101798000500002D01D100200FE0E00509D5042146
:1017A8006420FFF7D8FE68616869002803D100202B
:1017B80003E000206861EC61280032BD2DE9F043A8
:1017C80087B006000F0090469946002F0AD1DFF82F
:1017D80078020078002804D0DFF88012002000F09A
:1017E80073F98DE0B8F1000F03D0D8F8080000288D
:1017F8000BD1DFF854020078002805D03200DFF85A
:101808006012002000F060F97AE0DFF83C0200790D
:10181800002817D0D8F80000059038890490F0B255
:101828000390B00F0290C6F305200190C6F38530EF
:101838000090C6F30453C6F34462DFF8281204206C
:1018480000F042F9C7F80A60FFF73CFFC6F34461AD
:10185800C9B2C0B281422FD1300000070AD5DFF8E3
:10186800E8014078002804D0DFF8FC11012000F0DE
:101878002BF940E03000C00710D50021380001F0F6
:1018880023FF00280AD0DFF8C0014078002804D0E0
:10189800DFF8D811012000F017F92CE030004007DC
:1018A8000AD5DFF8A4014078002804D0DFF8C01179
:1018B800012000F009F91EE03C89B8F80C50ADB2DF
:1018C800002D03D0ADB2A4B2A54214D34A463900C4
:1018D8004046D8F80830984700280CD1D8F81000AE
:1018E800401CC8F81000D8F82C00A4B22018C8F87A
:1018F8002C00002006E0D8F81800401CC8F8180092
:101908007FF0090007B0BDE8F08338B504000D008A
:10191800002C02D0E069C00501D4002007E00020B7
:1019280000902A0000A96069FFF740FE009832BDC8
:101938002DE9F84F04000D0016001F00DDF828807F
:10194800DDF82C90DDF830A0D9F80A00000A000272
:10195800C9F80A005FEAC8700AD53B480078002831
:1019680003D04449002000F0AFF87FF0010063E0A5
:101978005FEA48700AD534480078002803D03E4909
:10198800002000F0A1F87FF0040055E05FEAC8608D
:101998000AD52D480078002803D03849002000F0E7
:1019A80093F87FF0040047E05FEA486005D5D9F86E
:1019B8000A0050F00100C9F80A00EDB2D9F80A008F
:1019C80065F31850C9F80A00F6B2D9F80A0066F3A8
:1019D8009330C9F80A00FFF775FEC0B2D9F80A10AB
:1019E80060F35D61C9F80A10FFB2D9F80A0067F31D
:1019F8000D20C9F80A00E4B2D9F80A0064F39F7010
:101A0800C9F80A002800C0B2FFF70AFE8346002082
:101A180010EB0901897A00AA8154401C0428F7D3E5
:101A280053465A4649460098FFF7C8FE002802D098
:101A38007FF0040000E00020BDE8F28F0000000005
:101A4800D8DC0020440000200000002040A1000055
:101A580098A10000AAFEFFFF64B3000024AB0000B9
:101A68007CB30000E0A3000080A0000094B3000055
:101A7800E89D000058A50000F0A10000A0A2000009
:101A8800FEB504000D0016001F00002C02D17FF0E7
:101A9800010017E0029701950096D4F80A00800B20
:101AA80010F03F03D4F80A00000A10F03F02D4F8FF
:101AB8000A00400E10F01F01D4F80A00800FC0B2CF
:101AC800FFF736FFFEBD00000CB4F8B504000D00AA
:101AD800F02664B2072C04DA344864B2205C00288B
:101AE80000D13EE064B2002C0CD0022C07D00CD3FD
:101AF800042C10D00CD3062C13D00FD314E01320D1
:101B0800060012E0122006000FE0142006000CE088
:101B18000620060009E00320060006E0052006006E
:101B280003E00720060000E01BE006A807001E48A7
:101B38000068002807D03A002900200040B21A4B5C
:101B48001B6898470DE03000C0B201F021FE390053
:101B5800280001F071FE13A001F07AFEF02001F0D8
:101B680017FEF1BC5DF80CFB10B5040064B2072C3D
:101B780003DB0F4801F06CFE12E00C4864B2205CF5
:101B8800002801D0002000E00120084964B2605418
:101B9800064864B2225C64B22100064801F058FE8F
:101BA80010BD00000D0A000028DC00200000002005
:101BB8004CB400004CB3000010B5002004000A2CFF
:101BC80019DADFF88403582101FB040090F90100B9
:101BD80001280ED1DFF87003582101FB0400007AB8
:101BE800800706D5DFF86003582101FB0400FEF7E3
:101BF80016FE641CE3E710BD32B50400002C02D1C8
:101C08007FF001002CE00098002807D00098D0F859
:101C18000A00800F01000020050001E000200500F7
:101C2800002200A914EB85000069FFF7A3FC012836
:101C380015D0DFF81803007800280DD014EB8500C4
:101C48000069FFF7CEFC030014EB85000269DFF89A
:101C580000130020FFF738FF5FF0FF3000E000209E
:101C680032BD70B5FFF771FC00F0F4F900F002FA2C
:101C7800202190FBF1F202FB110212F12000DFF8A3
:101C8800D4120870DFF8D00200F089F901280CD0CE
:101C9800DFF8B8020078002804D0DFF8C01200206E
:101CA800FFF712FF5FF0FF305FE0002004000A2C0E
:101CB80047DA00200500012D0DDADFF88C025821E3
:101CC80001FB040010EB850604216420FFF743FCA8
:101CD80030616D1CEFE70020DFF86C12582202FB20
:101CE80004114870DFF86002582101FB0400001D50
:101CF80000F048F901280CD0DFF8500200780028DD
:101D080004D0DFF85C120020FFF7DEFE5FF0FF3042
:101D18002BE0DFF83402582101FB0400FFF74AF9F1
:101D280000280CD0DFF824020078002804D0DFF85F
:101D380034120020FFF7C8FE5FF0FF3015E0641C86
:101D4800B5E7DFF8240200F02AF901280CD0DFF803
:101D5800FC010078002804D0DFF810120020FFF7FB
:101D6800B3FE5FF0FF3000E0002070BD30B4020029
:101D7800002003000A2B17DADFF8CC01582505FBF1
:101D88000300040094F9010000280BD094F9000026
:101D9800002807D1A068084011EA0205A84201D12D
:101DA800200002E05B1CE5E7002030BC704738B536
:101DB800040000200500012D11DA002200A914EB0F
:101DC80085000069FFF7F2FB012806D1009800287A
:101DD800F3D00098FFF7FDFAEFE76D1CEBE7002062
:101DE80032BDF8B504006421DFF87C0100F0F6F894
:101DF80001280BD0DFF854010078002804D0DFF860
:101E080070110020FFF760FE00203CE0DFF864015D
:101E180000780700781C0A2190FBF1F201FB1207F9
:101E2800002005000A2D11DADFF81C01582101FBFA
:101E38000700060096F90100002807D0781C0A213F
:101E480090FBF1F201FB12076D1CEBE796F901001C
:101E580001280DD13D480078002804D0DFF818117A
:101E68000020FFF731FE404800F0D6F800200AE0D5
:101E7800012070700020706134703E4807703A4845
:101E880000F0CAF83000F2BD70B504000D00002063
:101E9800FFF7A7FF0600002E07D0B460F560FFF734
:101EA80054FBB0613000FFF782FF300070BD10B501
:101EB8000400002C0AD125480078002803D02F49B7
:101EC8000020FFF701FE7FF001003BE094F90100DC
:101ED800002809D11D484079002803D02849052049
:101EE800FFF7F2FD00202DE0207A800702D4207B46
:101EF800800707D52000FFF7BBF810F10C0F01D1C0
:101F080000201FE06421184800F068F801280AD072
:101F18000E480078002803D015490020FFF7D4FDAB
:101F28007FF002000EE0002060702000FFF73FFF06
:101F3800207A800702D52000FEF7F2FB0A4800F05D
:101F48006BF8002010BD0000CCD10020000000205C
:101F5800D0AF0000D6DC002024DC002074AD0000E7
:101F680098AD000070A6000020DC0020BCAD000089
:101F7800D0B10000D7DC0020ECB10000F0AF0000C9
:101F880038B4000010B50400012000F058FF2060AC
:101F98002068002801D0012000E0002010BD10B505
:101FA800040003220021012000F014FF20602068B3
:101FB800002805D0002300220021206800F06DFFD2
:101FC800012010BD10B50400002C05D020680028A1
:101FD80002D02068FFF7C8FA012010BD38B5040008
:101FE8000D0019488079002804D0220017490620DE
:101FF800FFF76AFD15F1010F02D00520B5FBF0F5DA
:1020080000232A000021206801F048F8012801D1A6
:10201800012000E0002032BD10B504000A48807994
:10202800002804D022000A490620FFF74DFD0023AE
:1020380000220021206800F030FF012801D1012092
:1020480000E0002010BD00000000002090B5000056
:102058009CB5000010B504460448C046C04600219F
:1020680001700348C046C046046010BD4009002006
:1020780044090020F8B5344F3846C046C0460446E7
:10208800381DC046C046054607F10800C046C04690
:10209800064607F10C00C046C04623782B492C4A57
:1020A800002B40D12B6802FB03132B60082702FB8F
:1020B80003132B6002FB03132B6002FB03132B603B
:1020C80002FB03132B6002FB03132B6002FB0313B9
:1020D8002B6002FB03132B600346D5F800C002FBFC
:1020E8000C1CC5F800C043F804CB7F1ED5F800C00F
:1020F80002FB0C1CC5F800C043F804CBD5F800C09F
:1021080002FB0C1CC5F800C043F804CBD5F800C08E
:1021180002FB0C1CC5F800C043F804CBDDD1C36F2B
:102128003360012323702B6802FB03112960317887
:1021380001F01F0150F8212032602A6840F8212060
:10214800306880008008F2BD400900205FF36E3CD3
:102158000D66190010B50400200001F08BFB10BDBE
:1021680010B50400200001F007FC10BD62B38B0716
:1021780008D0521E11F8013B00F8013B00F0248002
:102188008B07F6D1830740F0208000BF103A07D3B1
:1021980030B4B1E83810103AA0E83810F9D230BCA1
:1021A800530724BFB1E80810A0E8081044BF51F84D
:1021B800043B40F8043BD20724BF31F8022B20F837
:1021C800022B44BF0B7803707047083A07D3B1E875
:1021D8000810083A40F8043B40F804CBF7D25307FC
:1021E800E4E700002DE9FA4F83B0040015000E9EC5
:1021F8000F9FDDF84080DDF844902000002802D1D0
:1022080001F089FCFEE7072E02D301F084FCFEE70B
:102218004146280080B200F077FC8246BAF1000FF0
:1022280075D0DAF83000ADB210EB8500001F834698
:102238005FEADB0B5FEACB0B1BF00700002802D03C
:1022480001F069FCFEE7280080B200904B4632009E
:102258000399504600F094FB049A2100584601F077
:1022680085FCCAF80000002F01D0C7F800A001F0D3
:10227800E4FCDFF8B8050068401CDFF8B01508601A
:10228800DFF83806006800280BD1DFF83006C0F800
:1022980000A0DFF898050068012811D100F0A8FB1C
:1022A8000EE0DFF808060068002809D1DFF80C0600
:1022B8000068C06A864203D3DFF80006C0F800A0B1
:1022C800DFF8EC050068401CDFF8E4150860DFF86B
:1022D800E0050068CAF84000DFF8D8050068012169
:1022E800DAF82C2091400843DFF8C81508601AF185
:1022F8000401DFF8C405DAF82C20142303FB0200DC
:1023080001F027FD0120019001F0AFFC02E05FF031
:10231800FF300190019801280CD1DFF89005006882
:10232800002807D0DFF894050068C06AB04201D2DF
:1023380001F07AFC019805B0BDE8F08F2DE9F8436B
:1023480004000D005FF00008002C02D101F0E3FB4F
:10235800FEE7002D02D101F0DEFBFEE7DFF8A00763
:102368000068002802D001F0D6FBFEE700F0A5F8CF
:10237800DFF80806D0F800902068281806002068C2
:10238800814507D2206886420BD2B14509D2012087
:10239800804606E02068864201D3B14501D201207B
:1023A80080462660B8F1000F19D0DFF810050068E4
:1023B800001D01F0F7FC00280ED1DFF800050068C9
:1023C800DFF8F01409680122C06A12FA00F031EA55
:1023D8000000DFF8E0140860300000F06BFB00F04C
:1023E80074F80700002F01D101F01EFCBDE8F1834D
:1023F80070B504000026002C2BD0DFF80407006815
:10240800002802D001F087FBFEE700F056F8DFF85D
:102418006C05006820180500DFF8A0040068001D9E
:1024280001F0C0FC00280ED1DFF890040068DFF846
:10243800841409680122C06A12FA00F031EA000027
:10244800DFF870140860280000F034FB00F03DF855
:102458000600002E01D101F0E7FB70BD1FB500207A
:10246800039000200290002001900020009000239B
:102478004FF48072DFF878180FF2E540FFF7B2FEEC
:102488000400012C13D101F046FB5FF0FF30DFF8A8
:10249800641808600120DFF8141408600020DFF8D1
:1024A800DC14086001F092FC01F07AFB04E0002CD7
:1024B80002D101F030FBFEE71FBDDFF844060068DB
:1024C800401CDFF83C160860704738B50025DFF877
:1024D800E0050068002802D101F01DFBFEE701F0CD
:1024E800ACFBDFF8CC050068401EDFF8C4150860B7
:1024F800DFF8BC050068002857D1DFF83003006812
:10250800002852D0DFF8E407006800282AD0DFF856
:10251800DC07C068C068040014F1180001F042FC30
:10252800201D01F03FFCDFF88C0300680121E26AFE
:1025380091400843DFF87C130860211DDFF8780319
:10254800E26A142303FB020001F003FCE06ADFF8EF
:102558006C130968C96A8842D4D30120DFF8C4170C
:102568000860CFE7DFF890070068002814D0DFF88C
:102578008807006800280FD000F020F8002803D052
:102588000120DFF8A0170860DFF86C070068401E1C
:10259800DFF864170860EAE7DFF8880700680128B1
:1025A80003D10120050001F03FFB01F05EFB28008C
:1025B80032BDDFF8C8130968080070472DE9F041FB
:1025C8000026DFF8EC04006800287AD1DFF8AC03B5
:1025D8000068401CDFF8A4130860DFF8A003076850
:1025E800002F1FD1DFF8340700680068002802D0E8
:1025F80001F091FAFEE7DFF8240700688046DFF86B
:1026080020070068DFF814170860DFF81407C0F81F
:102618000080DFF814070068401CDFF80C1708601A
:1026280000F0A8FADFF8CC06006887423CD3DFF850
:10263800EC0600680068002805D15FF0FF30DFF87D
:10264800B416086030E0DFF8D4060068C068C068D7
:10265800040060680500AF4203D2DFF89806056001
:1026680022E0201D01F09EFBA06A002803D014F18F
:10267800180001F097FB8F4800680121E26A914039
:1026880008438C490860211D8B48E26A142303FB28
:10269800020001F05EFBE06A88490968C96A88425D
:1026A800C5D301200600C2E7834884490968C96A7E
:1026B800142202FB01000068022809D30120060049
:1026C80006E0DFF834060068401CDFF82C160860C6
:1026D800DFF850060068002801D00120060030000D
:1026E800BDE8F08138B5DFF8C8030068002804D0D9
:1026F8000120DFF83016086062E00020DFF82416B9
:10270800086001F073FBDFF824160860DFF8200684
:102718000068DFF81816096888420BD26748006815
:10272800016DDFF8082612685118DFF804261268D0
:10273800891A0165DFF8F4050068DFF8F415086008
:102748005E480068006B05005FF0A530040028684B
:10275800A04208D16868A04205D1A868A04202D169
:10276800E868A04207D05548006810F13401534882
:10277800006801F06DFB4F480068B0FA80F0D0F1B6
:102788001F0004004C48142101FB040000680028C5
:1027980002D101F0C0F9FEE74749142202FB0411F7
:1027A8000800416849684160416810F10802914297
:1027B80002D14168496841604068C0683F49086083
:1027C80031BD70B504000D00002C02D101F0A3F951
:1027D800FEE73A48006810F11801200001F0C5FA38
:1027E80036480068001D01F0DDFA00280BD1334897
:1027F8000068304909680122C06A12FA00F031EA1B
:1028080000002C49086015F1010F07D12B4800681A
:10281800011DDFF8F00201F09CFA06E05748006855
:1028280028180600300000F045F970BD98DC00203B
:1028380070B50400E068C0680500002D02D101F001
:102848006AF9FEE715F1180001F0ACFA984800683B
:10285800002813D1281D01F0A5FA164800680121A7
:10286800EA6A9140084313490860291D1248EA6A38
:10287800142303FB020001F06CFA05E015F11801BE
:10288800DFF8680401F065FA0C480068C06AE96A74
:10289800884206D2012006000120DFF8981408605B
:1028A80001E000200600300070BD0000A4DC00201C
:1028B800B4DC0020A0DC0020BCD8002088DC00208C
:1028C80010B50400002C02D101F025F9FEE7DFF86D
:1028D800580400682060DFF860040068606010BD7C
:1028E800F8B504000D00002C02D101F014F9FEE740
:1028F800002D02D101F00FF9FEE701F09EF91F4803
:102908000768286810F1010F02D1002006001DE0B9
:10291800DFF8140400682168884205D0606887429F
:1029280002D30120060011E06068381A296888423D
:102938000AD22868C01B6168081828602000FFF7C1
:10294800BFFF0020060001E00120060001F08DF91C
:102958003000F2BD0120DFF8DC130860704700008A
:1029680010B5040000F070F8DFF8D40300680228FE
:1029780001D301F059F901F071FAF3E79CDC00206A
:102988002DE9F04104000D0016001F0000208046CC
:10299800B8F10A0F0CD218F8050018EB040181F8F9
:1029A800340018F90500002802D018F10108EFE7F3
:1029B800002084F83D00072E01D306200600E662B9
:1029C800A6640020E064201D0021016114F11800B4
:1029D800002101612461D6F10700A0616462002032
:1029E800206500206065002084F85800BDE8F0816B
:1029F80010B500200400072C08D2DFF84403142186
:102A080001FB040001F096F9641CF4E7DFF83403D5
:102A180001F090F9DFF8300301F08CF9DFF8CC020F
:102A280001F088F9DFF8240301F084F9354801F052
:102A380081F9DFF81003DFF8E4120860DFF8080313
:102A4800DFF8DC12086010BD38B5DFF80403006851
:102A580000282BD0FFF731FDDFF8F00200680028CE
:102A680001D1012400E00024FFF72FFD002CECD158
:102A780001F0E3F8DFF8D402C068C0680500281D3B
:102A880001F090F9DFF8CC020068401EDFF8C412AC
:102A98000860DFF8BC020068401EDFF8B412086066
:102AA80001F0E3F8280000F05CF8CEE731BD000043
:102AB800BCDC002010B50400DFF89C02006844600C
:102AC800DFF874020068844209D2DFF88C020068DB
:102AD800011DDFF84C02006801F047F90EE0DFF84D
:102AE80078020068011DDFF83402006801F03DF942
:102AF80080480068844201D27E48046010BD00000E
:102B0800BCDC0020C8DB00202DE9F84304000D00E0
:102B1800002D04D1A4B2A00000F0ACFE00E0280013
:102B28000700002F0BD05C2000F0A4FE0600002E4A
:102B380001D0376305E0380000F01EFF01E00020F7
:102B48000600002E0AD0A4B2A7005FF0A508D6F8A8
:102B58003090424639004846FEF70EFB3000BDE88B
:102B6800F28310B50400206B00F006FF200000F08F
:102B780003FF10BD694909680968002904D15FF09D
:102B8800FF315C4A116007E064490968C968C9688F
:102B980008004168574A1160704738B5040025009D
:102BA800002C4FD0E86ADFF8B0110968C96A88427A
:102BB80048D2A869002806D4DFF89C010068C06ADA
:102BC800D0F10700A8616869DFF87411EA6A142374
:102BD80003FB0211884230D1281D01F0E3F80028D8
:102BE80012D1DFF85C01E96A142202FB01000068D7
:102BF800002809D1DFF8440100680121EA6A914000
:102C08008843DFF838110860DFF84C010068C06AB3
:102C1800E862DFF8280100680121EA6A9140084368
:102C2800DFF818110860291DDFF81401EA6A142377
:102C380003FB020001F08DF804E0DFF81C010068D6
:102C4800C06AE86231BD70B5040025000026002C7A
:102C58004AD0DFF804010068854202D000F05BFF2B
:102C6800FEE7E86C002802D100F055FFFEE7E86CAB
:102C7800401EE864E86AA96C884235D0E86C0028F0
:102C880032D1281D01F08EF8002812D1DFF8B000EB
:102C9800E96A142202FB01000068002809D1DFF864
:102CA8009C0000680121EA6A91408843DFF88C1093
:102CB8000860A86CE862E86AD0F10700A861DFF84C
:102CC8007C0000680121EA6A91400843DFF86C1033
:102CD8000860291DDFF86800EA6A142303FB020074
:102CE80001F037F801200600300070BDA0DB00209D
:102CF80008B60000B8DC0020A8DC0020DFF8580087
:102D08000068002805D0DFF850000068C16C491C35
:102D1800C164DFF844000068704700008CDC0020C4
:102D280090DC0020ACDC0020B0DC0020C4DC0020FB
:102D3800C0DC0020ACDC00209CDC0020A0DC0020F3
:102D4800BCD8002078DB00208CDB0020B4DB00201E
:102D580094DC002098DC002088DC002070B504009A
:102D68000D002600002E02D100F0D5FEFEE700F08F
:102D780064FF3068F16B326C02FB01007060002068
:102D8800B0633068B0603068F16B491E326C02FB8A
:102D98000100F0605FF0FF3070645FF0FF30B064F6
:102DA800002D0BD13069002810D016F11000FFF764
:102DB8003FFD01280AD100F037FF07E016F11000A7
:102DC80000F0B8FF16F1240000F0B4FF00F04DFF4A
:102DD800012070BD2DE9F84304000D0016005FF0D6
:102DE8000009002C02D100F096FEFEE7002D02D16A
:102DF8000020804603E005FB04F0401C804618F1E3
:102E0800540000F037FD0700002F0FD0002D01D12E
:102E18003F6002E017F154003860FC633D64012113
:102E28003800FFF79BFF87F85060B946B9F1000FEB
:102E380002D100F070FEFEE74846BDE8F28338B5DF
:102E48000400542000F016FD0500002D23D00020BA
:102E58006860002028600020A8600020E86000204A
:102E6800A8630120E863002028645FF0FF306864ED
:102E78005FF0FF30A86485F8504015F1100000F0AD
:102E880059FF15F1240000F055FF0023002200210E
:102E9800280000F002F8280032BD2DE9F7430400AD
:102EA8000D001E005FF00008A146B9F1000F02D125
:102EB80000F031FEFEE7002D03D1D9F840000028CC
:102EC80001D1012000E00020C0B2002802D100F0AA
:102ED80022FEFEE7022E03D1D9F83C00012801D1D9
:102EE800012000E00020C0B2002802D100F013FE4B
:102EF800FEE700F0A2FED9F83800D9F83C10884265
:102F080001D3022E1AD132002900484600F0E4F914
:102F18000700D9F82400002808D019F12400FFF789
:102F280087FC012806D100F07FFE03E0002F01D0C6
:102F380000F07AFE00F099FE01204CE0029800288B
:102F480003D100F092FE002045E0B8F1000F04D153
:102F580000A8FFF7B5FC0120804600F086FEFFF7C9
:102F6800ACFA00F06AFED9F8440010F1010F02D162
:102F78000020C9F84400D9F8480010F1010F02D127
:102F88000020C9F8480000F070FE02A900A8FFF769
:102F9800A7FC002819D1484600F047FA00280ED0AF
:102FA800029919F11000FFF70CFC484600F0F8F9F7
:102FB800FFF78BFA00289CD100F036FE99E74846C7
:102FC80000F0EEF9FFF781FA93E7484600F0E8F9D8
:102FD800FFF77BFA0020BDE8FE832DE9F0470400E7
:102FE8000D0016001F00A246BAF1000F02D100F032
:102FF80092FDFEE7002D03D1DAF84000002801D148
:10300800012000E00020C0B2002802D100F083FDBA
:10301800FEE7022F03D1DAF83C00012801D1012094
:1030280000E00020C0B2002802D100F074FDFEE7E5
:1030380000F04CFE00F06FFD8146DAF83800DAF84F
:103048003C10884201D3022F20D13A002900504673
:1030580000F042F9DAF8480010F1010F0ED1DAF861
:10306800240000280FD01AF12400FFF7E1FB002804
:1030780009D0002E07D00120306004E0DAF84800BB
:10308800401CCAF848000120804601E00020804624
:10309800484680F311884046BDE8F0872DE9F7439C
:1030A80004000D001E000027A146B9F1000F02D14F
:1030B80000F031FDFEE7002D03D1D9F840000028CB
:1030C80001D1012000E00020C0B2002802D100F0A8
:1030D80022FDFEE700F0B1FDD9F83800002834D011
:1030E800D9F80C0080462900484600F041F9002E26
:1030F80019D1D9F83800401EC9F83800D9F80000AD
:10310800002803D1FFF7FAFDC9F80400D9F8100028
:10311800002816D019F11000FFF78AFB012810D1FA
:1031280000F082FD0DE0C9F80C80D9F824000028D1
:1031380007D019F12400FFF77BFB002801D000F02D
:1031480073FD00F092FD012058E00298002803D199
:1031580000F08BFD002051E0002F04D100A8FFF7FC
:10316800AFFB0120070000F080FDFFF7A6F900F093
:1031780064FDD9F8440010F1010F02D10020C9F80C
:103188004400D9F8480010F1010F02D10020C9F815
:10319800480000F06AFD02A900A8FFF7A1FB00287B
:1031A80026D1484600F031F900281BD0D9F8000094
:1031B800002807D100F041FDD9F80400FFF7EDFC25
:1031C80000F053FD029919F12400FFF7FAFA484676
:1031D80000F0E6F8FFF779F900287FF47BAF00F0FC
:1031E80023FD77E7484600F0DBF8FFF76EF971E753
:1031F800484600F0D5F8FFF768F90020BDE8FE83DF
:103208002DE9F84304000D001600A146B9F1000F9E
:1032180002D100F080FCFEE7002D03D1D9F8400070
:10322800002801D1012000E00020C0B2002802D10E
:1032380000F071FCFEE700F049FD00F06CFC8046F0
:10324800D9F83800002824D02900484600F090F822
:10325800D9F83800401EC9F83800D9F8440010F1F0
:10326800010F0ED1D9F8100000280FD019F1100065
:10327800FFF7DEFA002809D0002E07D001203060C1
:1032880004E0D9F84400401CC9F8440001200700B4
:1032980001E000200700404680F311883800BDE8AF
:1032A800F28338B50400002C02D100F034FCFEE7AC
:1032B80000F0C3FCA06B050000F0D7FC280032BD6D
:1032C80038B504002500002D02D100F024FCFEE7EB
:1032D800280000F051FB31BD2DE9F84304000D0032
:1032E80016000027206C002809D12068002839D151
:1032F8006068FFF7A8FC07000020606032E0002E3D
:1033080013D1D4F84080D4F80890424629004846A2
:10331800FEF72CFFA068216C0818A060A0686168FF
:1033280088421FD32068A0601CE0D4F84080D4F8FD
:103338000C90424629004846FEF718FFE068216CC9
:10334800401AE060E0682168884203D26068216C16
:10335800401AE060022E05D1A06B002802D0A06BB5
:10336800401EA063A06B401CA0633800BDE8F28338
:10337800F8B504000D00206C002810D0E068216C1E
:103388000818E060E0686168884201D32068E0605E
:10339800266CE768320039002800FEF7E7FEF1BD29
:1033A80010B5040000F049FCA06C01280EDB606A2F
:1033B80000280BD014F12400FFF73AFA002801D0B6
:1033C800FFF7C8FAA06C401EA064EDE75FF0FF307D
:1033D800A06400F04AFC00F030FC606C01280EDBB1
:1033E800206900280BD014F11000FFF721FA0028FB
:1033F80001D0FFF7AFFA606C401E6064EDE75FF044
:10340800FF30606400F031FC10BD38B5040000F0F6
:1034180014FCA06B002802D10120050001E0002067
:10342800050000F022FC280032BD38B5040000F089
:1034380004FCA06BE16B884202D10120050001E089
:103448000020050000F011FC280032BD0D49096874
:10345800002904D10B4908600021816310E0094963
:103468000968814204D08A6B002A01D0896BF8E789
:10347800814205D08A6B002A02D1886300228263C8
:103488007047000044DC002001000022202901D3FD
:10349800002014E0314810F93100012805D12F48E7
:1034A80010EBC1004068020008E02C4890F90001C8
:1034B800012803D12948D0F8040102001000704700
:1034C80070B54FF484740025244E2A002100300082
:1034D800FDF752FE002070BD38B504000D00002C29
:1034E80002D17FF0010037E0EDB2212D0BDB1C4843
:1034F8000078002804D020221A490020FEF7E4FAB8
:103508007FF0010028E01548EDB210F935000028D9
:103518000CD013480078002805D0EDB22A001249D3
:103528000020FEF7D1FA7FF0030015E00C48807800
:10353800002806D0EDB22B0022000C490220FEF72D
:10354800C3FA0648EDB210EBC500446001200349F8
:10355800EDB201F83500002032BD00003CD5002056
:103568000000002048A3000040B2000090B0000016
:1035780010B500200400012C15DA414850F8240049
:1035880000280ED108210A20FDF7E5FF3C4941F843
:1035980024003B4850F82400002802D15FF0FF3097
:1035A80002E0641CE7E7002010BD10B504006422A7
:1035B800210033480068FDF7F9FF012802D07FF0A9
:1035C800020000E0002010BD2DE9FC4104000D00C0
:1035D8001600002C08D12B484078002803D02A492F
:1035E8000120FEF771FA48E0002D11D125484078F6
:1035F800002803D025490120FEF766FA002E03D1E2
:103608002000FDF7E6FE02E02000FDF7B4FE34E0FE
:10361800009501945FF00008002E08D1002200A94F
:10362800174850F82800FDF7A5FF070007E032000B
:1036380000A9134850F82800FDF7ADFF0700012F37
:1036480014D010484078002803D011490120FEF713
:103658003BFA286A401C2862002E03D12000FDF79F
:10366800B8FE0AE02000FDF786FE06E06869401C07
:103678006861286B218908182863BDE8F381000078
:1036880048DC0020000000204CAB000058A80000D7
:10369800A4A6000010B402005FF0FF3318000B006E
:1036A800591E002B09D0074B14784440E4B253F854
:1036B800243093EA1020521CF1E75FF0FF335840A2
:1036C80010BC70474C9100002DE9F04182B0040015
:1036D8000D00002C02D17FF0010023E0EDB2002D97
:1036E80007D02089011D14F10A00FFF7D3FF0090CD
:1036F80005E0218914F10E00FFF7CCFF0090009837
:10370800FDF711FF0090042600AF2089001910F181
:103718000E08320039004046FEF728FD2089001DBA
:1037280020810020BDE8F68138B504000D00002C8A
:1037380002D17FF001002AE02089042802D27FF01C
:10374800010024E0EDB2002D06D0218914F10A0011
:10375800FFF7A0FF009006E02089011F14F10E007A
:10376800FFF798FF00900098FDF7DDFE0090042217
:1037780000A9208900190A3000F076FB002802D041
:103788007FF0010003E02089001F2081002032BD66
:1037980070B50400E4B214F00F00C0B201280CD0D8
:1037A80023D303280FD00BD3052812D00ED3072814
:1037B80015D011D3082815D017E01E20050016E0F3
:1037C8001F20050013E02020050010E0212005003F
:1037D8000DE0222005000AE02320050007E0242050
:1037E800050004E02520050001E000200500E4B202
:1037F80014F0F000C0B2102806D0202807D03028D6
:1038080008D0402809D00BE0012006000AE0022079
:10381800060007E00320060004E00420060001E09B
:10382800002006002A003100024800F011F870BD9F
:1038380000000000A8B5000002B5024600AB012157
:1038480002487844801D00F041FB02BDB97B0000AE
:103858000EB400B582B003A90091024600AB012165
:10386800034878440A3000F031FB06BC5DF810FBD1
:10387800957B00002DE9F04104005FF00008FEF799
:103888001CFE8E480068002801D100F0ADF88C4875
:10389800006804425FD1002C10D08A4800680419DF
:1038A80014F0070F0AD014F1080014F00701441AA5
:1038B80014F0070F02D000F02EF9FEE7002C4AD0D2
:1038C80081480068A04246D3804806007F480068C7
:1038D80005006868A04205D22868002802D02E009A
:1038E8002D68F6E775480068854234D03068754918
:1038F80009680818804628683060724800684000E7
:103908006968091B88420FD26019070017F0070081
:10391800002802D000F0FFF8FEE76868001B786016
:103928006C60380000F097F8674800686968401ACA
:10393800654908606448006865490968884203D297
:10394800614800686249086068685D490968084319
:10395800686000202860FEF7B8FDB8F1000F01D1BB
:1039680000F07EFA18F00700002802D000F0D3F823
:10397800FEE74046BDE8F08170B504002600002C43
:103988002BD050480068361A350068684C490968D9
:10399800084202D100F0BFF8FEE72868002802D0EC
:1039A80000F0B9F8FEE7686845490968084214D08C
:1039B8002868002811D16868414909688843686007
:1039C800FEF77BFD40480068696808183E490860B2
:1039D800280000F040F8FEF778FD70BD3A4800680E
:1039E80070473B480068704730B44FF44843394C3F
:1039F800220012F0070F05D0D21DD208D2009B1A60
:103A0800344CE3181100314C216000242F4D6C60B8
:103A18005C1822002B4C2468121BD208D200274CB9
:103A280022600024254D2D686C600024234D2D68EC
:103A38002C600800141A4460204C24680460446810
:103A4800234D2C604468204D2C605FF000441C4DD1
:103A58002C6030BC704710B41C4B1A0013688342AA
:103A680001D21268FAE7110053685B18834204D147
:103A780053684468E31853601000010043685B18FA
:103A88001468A34211D113680C4C2468A34208D0CF
:103A9800436814686468E318436013681B6803602C
:103AA80005E0064B1B68036001E01368036082426F
:103AB80000D0106010BC70470000000050DC0020EF
:103AC8005CDC002030B6000054DC0020ECDB002079
:103AD80058DC0020CC090020EFF30980BFF36F8F7A
:103AE800204B1A6820E9F00F106008B54FF0A000CD
:103AF80080F31188FEF7F6FD4FF0000080F311887F
:103B0800BDE8084019680868B0E8F00F80F3098834
:103B1800BFF36F8F7047EFF311804FF0A00181F36F
:103B28001188704780F3118870470E4B1968086830
:103B3800B0E8F00F80F30988BFF36F8F4FF00000F3
:103B480080F311884EF00D0E704707480068006832
:103B580080F3088862B661B6BFF34F8FBFF36F8FEB
:103B680000DF000088DC002008ED00E0001F5FF0A7
:103B780080730360001F0160001F0FF20D030360D4
:103B8800143802602038704780B55F48006810F12B
:103B9800010F02D0FFF7BFFFFEE7FFF7BCFFFEE70C
:103BA80000B583B0594801780191FF21017001786F
:103BB8008DF800109DF8001011F0A001544A117002
:103BC8000721544A11609DF8001009060AD5514989
:103BD8000968491E4F4A11609DF8001049008DF888
:103BE8000010F0E74B49096809024A4A116049493F
:103BF800096811F4E061474A11600199017046486B
:103C0800006850F47000444908604348006850F068
:103C180070404149086000F04CF800203A490860BB
:103C2800FFF793FF00200EBD5FF080503B4908600E
:103C3800BFF34F8FBFF36F8F704780B5FFF76BFFF0
:103C480031480068401C30490860BFF34F8FBFF30C
:103C58006F8F2D480068012806D13048006800069B
:103C680002D0FFF758FFFEE701BD80B5264800687F
:103C7800002802D1FFF74FFFFEE723480068401EE7
:103C88002149086020480068002802D1002080F3FC
:103C9800118801BD80B5FFF73EFFFEF78FFC0028B5
:103CA80003D05FF080501D490860002080F3118820
:103CB80001BD1B480068C821B0FBF1F0401E19493E
:103CC80008600720184908607047000038B5EFF30E
:103CD80005800400102C0BD314480068205C0500F4
:103CE8000B480078EDB2854202D2FFF714FFFEE7D9
:103CF800084800680E49096811F4E061884202D258
:103D0800FFF709FFFEE731BD1C01002000E400E0D9
:103D1800DEDC00207CDC002020ED00E004ED00E08B
:103D28002001002014E000E010E000E03CB60000B4
:103D38000CED00E010F1080141605FF0FF31816097
:103D480010F10801C16010F1080101610021016052
:103D5800704742684A6093688B60936859609160C5
:103D6800086103685B1C0360704710B40B6813F1AB
:103D7800010F02D10469220008E010F108042200B2
:103D880054682468A34201D35268F9E754684C6028
:103D98004C68A1608A60516008610468641C046012
:103DA80010BC7047010008698A684B689A604A68C5
:103DB8008B685A6042688A4201D18A684260002250
:103DC8000A610268521E026000687047194800685C
:103DD80050F080701749086000201749086017489C
:103DE800006850F0010015490860704712490968D9
:103DF800080013490968884204D212490968491C15
:103E0800104A11600E4908600F4909680F4A91422B
:103E180007D2400B0B4909685FF4002202FB01003E
:103E280006E0800B074909685FF4802202FB010065
:103E380070470000FCED00E0041000E0001000E016
:103E480080DC002084DC002020010020801D2C0460
:103E580038B504000D00FFF75EFEFEE730BF70477F
:103E680080B5FFF758FEFEE70300002013F0030FAC
:103E780009D0521E22BF13F8010B11F801CBB0EB89
:103E88000C00F3D07047121F22BF53F8040B51F8EF
:103E980004CB6045F7D0121D0AD200BA9CFA8CFCFC
:103EA800B0EB0C0038BF6FF0000088BF01207047EE
:103EB800521E22BF13F8010B11F801CBB0EB0C0016
:103EC800F6D0521C08BF1046704700002DE9F04F8D
:103ED800A1B08046002017461D4602910B900DF1B7
:103EE800440A6FF000490AE017F8011B0298C0471E
:103EF8000028029000F0AB820B98401C0B90387899
:103F080008B90B98A5E22528EED100200590069067
:103F18000790089009900A9001E040F0010017F816
:103F2800011F2029F9D023290DD02B2904D02D29B0
:103F380006D030290AD00CE040F0020080B2EEE74B
:103F480040F00400FAE740F00800F7E740F01000FE
:103F5800F4E72A290ED12968296051F8042B296031
:103F6800002A0D9204D5514240F004000D9180B210
:103F78007F1C11E000210D9109E00D99494505D0FC
:103F880001EB810302EB430130390D917F1C3A7834
:103F9800A2F130010A29F0D339782E2903D04FF045
:103FA800FF310C911DE017F8011F2A2907D1296854
:103FB80029607F1C51F8042B29600C9211E0002124
:103FC8000C9109E00C99494505D001EB810302EBFE
:103FD800430130390C917F1C3A78A2F130010A294B
:103FE800F0D3ADF838000FF67840397800F046FE87
:103FF80008B117F8010B8DF83A009DF83A006828C7
:1040080002BF39786829622005D06C2804BF387847
:104018006C2803D171208DF83A007F1C11A80490F8
:1040280017F8014BB4F1250029D01C3800F0C280E4
:10403800001F022840F2BE80133800F0E3800938E0
:1040480000F0B880801E00F04A81401E00F02381F5
:10405800401E022840F2AE80001F00F01C81401F65
:1040680079D0401E00F0CE80401E24D0C01E0BD058
:10407800801E00F0C780C01E00F0C48039E12520F2
:104088008DF8440001203DE12868286050F8046B51
:10409800286003960C9C002C04D5304600F0FAFDED
:1040A800044606E022460021304600F00FFE00B12B
:1040B800841B069427E1296829603C2451F8040BE5
:1040C80029600021CDE9000111A80390DDE9000174
:1040D800049E11B908B90C9AB2B10206120FA0EBEE
:1040E80002123032D2B2631E3A2AA8BF2732000920
:1040F80040EA017009099A5508BF00281C4603D0F8
:10410800039AA3199A42E8D3A0190390C4F13C0179
:104118000C980691814209DA401A08904FF6EF711F
:10412800BDF838000840ADF83800ECE0002840F150
:10413800EA809DF8380000F01400102840F0E38071
:104148000D98059A801A089A801A441A012CC0F210
:10415800DA800894D7E09DF83A0062281AD06828D7
:1041680006D06A280CD06C281CD0712808D019E019
:104178002868286050F8041B28600B980880C2E063
:104188002868286050F8042B28600B98C117C2E9EA
:104198000001B8E02868286050F8041B28600B98D4
:1041A8000870B0E02868286050F8041B28600B9855
:1041B8000860A8E02868C01D20F007022A60D2E93C
:1041C800000108322A60CDE90001002902D50598CE
:1041D8002D210AE0BDF83800810702D505982B216A
:1041E80003E0C00705D50598202100F80A10401CF7
:1041F800059011A8059908180390214600A800F019
:10420800E5F980E09DF83A006C280DD0712818BFB8
:104218006A2809D12868C01D20F007022A60D2E95F
:10422800000108322A6005E02968296051F8040B6A
:1042380029600021CDE900019DF83A00682803D1E2
:10424800DDE9000180B20BE0622803D1DDE900015D
:10425800C0B205E0742818BF7A2804D1DDE900014E
:104268000021CDE900019DF8380000072ED5DDE9D1
:104278000001002908BF002828D044F02000782831
:1042880024D10598302100F80A10401C411C0591E2
:1042980000F80A401AE09DF83A00294600F0DCF8D8
:1042A800CDE90001002902DA05982D210AE0BDF8C0
:1042B8003800810702D505982B2103E0C00705D5F2
:1042C8000598202100F80A10401C059011A80599AE
:1042D80008180390214600A800F0F5F813E0012023
:1042E80005902868286050F8041B28608DF8441051
:1042F80009E025208DF84400012005901CB18AF8BA
:104308000140022005900D980599401A0899401A15
:104318000699401A0999401A0799401A0A99441AA5
:104328009DF83800400710D420208DF84000002662
:1043380009E0012310AA00A9404600F07AFC0028F1
:1043480040F08580761CA642F3DB059E0DF1440BF8
:104358000AE01BF8011B0298C0470028029076D09B
:104368000B98401C0B90761E002EF2D130208DF851
:1043780040004FF0000B089E09E0012310AA00A995
:10438800404600F056FC002861D10BF1010BB34503
:10439800F3DB069EDDF80CB00AE01BF8011B02985F
:1043A800C0470028029052D00B98401C0B90761EF4
:1043B800002EF2D130208DF840004FF0000B099EFE
:1043C80009E0012310AA00A9404600F032FC0028A9
:1043D8003DD10BF1010BB345F3DB03980699079E1A
:1043E80001EB000B09E01BF8011B0298C047029083
:1043F80068B30B98401C0B90761E002EF3D130202A
:104408008DF840004FF0000B0A9E08E0012310AA27
:1044180000A9404600F00DFCC8B90BF1010BB345EB
:10442800F4DB9DF8380040077FF569AD20208DF852
:104438004000002600E0761CA642BFF660AD0123CE
:1044480010AA00A9404600F0F4FB0028F3D04FF072
:10445800FF3021B0BDE8F08F622826D068281DD033
:104468006A2808D06C2827D0712804D0742823D053
:104478007A280CD020E00868C01D20F007000860EA
:10448800D0E90023083008601946104670470A68CA
:104498000A6052F8040B0A60002170470A680A6033
:1044A80052F8040B0A6000B20BE00A680A6052F87E
:1044B800040B0A6040B204E00A680A6052F8040B70
:1044C8000A60C11770472DE9FA4E05460A462F695A
:1044D8006F2A08BF082405D041F02000782814BFAF
:1044E8000A2410243C26D5E90001642A18BF692A49
:1044F80081468A4605D1002903DAD9F100096AEB19
:104508004A0ABAF1000F08BFB9F1000F0CD1286BA5
:1045180050B9082C36D195F83800000732D530202C
:104528003B2687F83B002DE0E317484651462246D4
:1045380000F0F8FBA4FB0023A9EB02023032D2B250
:10454800A6F1010B3A2A5E4603DB9DF80030513B89
:104558009A1881465FEA010A0BF8072008BFB9F1EB
:10456800000F03D0E868F1198842DDD3082C09D17F
:1045780095F83800000705D5F05D302802D0761E82
:104588003020F055C6F13C00A861F119E960296BAB
:10459800884208DA081A28624FF6EF71288F084017
:1045A8002887BDE8F38E00290ED595F8381001F05C
:1045B8001401102908D1696B6A69891A2A6A891A4B
:1045C8000E1A012EA8BF2E62BDE8F38E2DE9F24F18
:1045D80004468EB0D4E90001CDE9020104AF9DF88C
:1045E800380040F0200BBBF1610F0AD0206B002887
:1045F80048BF062004D408BFBBF1670F01D10120D2
:1046080020636168C1F30A5040F2FF7290421CD1E6
:10461800080304BF2068002809D10320A0619DF881
:10462800380061381A2836D30FF2486108E00320B1
:10463800A0619DF8380061381A2829D30FF22C613F
:10464800E0680322FDF792FDBEE1012816DA204654
:1046580000F0DFFB012811DB00250020BBF1610F12
:1046680020D1E168302201F8012B4A1CE2609DF854
:104678003820612A0CBF782258220FE0626840F285
:10468800FE3161F31E52451A62604FF0FF30E5E7D4
:104698000FF2D451D4E70FF2D851D1E70A7061690B
:1046A800891C616110B90026002584E1BBF1610F06
:1046B80040F09780206BD4E900AB00284CBF21263E
:1046C800461CDDE902010022002300F0C3FB36B2DC
:1046D8003ABF8BF00040CDE902A0CDE902AB06F16C
:1046E80001082D1F8DF810200DF1110700E0C71DDE
:1046F800B8F1010F33DBDDE902010022002300F0ED
:10470800C1FB2CD21C2102A800F0D4FBDDE9020178
:1047180000F058FCA8F10708B8F1010F814609DB41
:1047280000F07CFC02460B46DDE9020100F08EFC3D
:10473800CDE90201F81D072105E009F00F0200F894
:10474800012D4FEA2919B9F1010F01DB491EF4D5F2
:10475800491E5CBF002200F8012DF9D5C7E70DF10D
:104768001100391AB142B8BF0E4636B230000DF109
:1047780011072FD4884206DA04A941184978082974
:10478800A8BF0F2100DA002104AA821800E0761ED3
:1047980012F80139401E8B42F9D00F2904D104A91F
:1047A80041184A78521C4A70002802D504AF761C7A
:1047B8002D1D36B2701E0DD4C1190A783032D2B20E
:1047C8003A2A03DB9DF838303A3B9A18401E01F824
:1047D8000129F2D5206B002840F1ED80701E20637E
:1047E800E9E0DDE902010022002300F033FB3CBFD1
:1047F80081F00041CDE902012DB247F2975068439C
:104808004B49DFF8309190FBF1F52DB2C5F1070A5D
:10481800BAF1010F90461CDBDDE902675FEACA7056
:1048280007D542464B463046394600F0CFFC06468F
:104838000F464046494642464B464FEA6A0A00F050
:10484800C5FCBAF1000F80468946E7D1CDE9026779
:1048580024E0CAF1000A0026374F14E05FEACA7064
:1048680007D542464B463046394600F0AFFC06466F
:104878000F464046494642464B4600F0A7FC4FEAE1
:104888006A0A80468946BAF1000FE7D1DDE90201DC
:1048980032463B4600F06CFDCDE90201BBF1660FE4
:1048A800216BDFF898900CBF05F10A000620461826
:1048B800142EA8BF132630208DF810000DF1110713
:1048C800012E3DDBDDE9020100F092FB07F1080152
:1048D80004220A23B0FBF3F303EB8307A0EB4700A2
:1048E800303001F8010C0A20B3FBF0F000EB800730
:1048F800A3EB47033033521E01F8023DE9D1083ECD
:10490800012E01F10807DBDBDDE9020100F070FB95
:1049180000F08EFB02460B46DDE9020100F096FB33
:1049280000224B4600F052FCCDE90201CAE700BF65
:10493800A0860100000024400000F03F84D7974182
:104948000DF11100381A0DF1110702E0401E6D1E1D
:104958007F1C39783029F9D0BBF1660F02D12DB20E
:10496800691C04E0BBF1650F0CBF01210021226B1B
:104978008E1836B2B042B8BF064636B231001AD4E5
:10498800814204DAC85D3528A8BF392000DA302012
:10499800CA19521E00E0761E12F80139491E8342D8
:1049A800F9D0392802D1C85D401CC855002902D564
:1049B8007F1E761C6D1C2DB29DF83810009533B201
:1049C8003A46204600F003F80FB0BDE8F08F2DE915
:1049D800F04305461E46D5F83080012E85B089463D
:1049E800174602DA01260FF2902749F02000BDF998
:1049F8003040662808BF641C17D0672840F08280C2
:104A080014F1040FC0F28480444580F2818095F847
:104A18003800641C000702D44645B8BFB04624B22B
:104A2800B8EB040848BF4FF0000824B2E868A96949
:104A3800012C25DA4A1C30230B54B8F1010F03DA94
:104A480095F83810090702D52E211154521C18EB7D
:104A5800040FB8BFC8F1000424B2A0446142B045B5
:104A6800AA616962B8BF4646AB6936B2EE613246A2
:104A780039461818FDF77AFBA8EB0600A862C1E0D2
:104A88000818A64218DA32463946FDF76FFBA969BD
:104A98007118A01BB8F1010FA961686203DA95F8D3
:104AA8003800000705D5EA682E208854E869401CBC
:104AB800E861C5F82880A5E022463946FDF756FB8F
:104AC800A8692018361BB8F1010F03DA95F83810D9
:104AD800090703D5EA682E218154401CA86136B223
:104AE800B045B8BF4646E868AB6936B23246E11908
:104AF8001818FDF73BFBA8693018A861A8EB060059
:104B080068627FE0B9F1610F16D14FF0700918E0C3
:104B1800464504DA95F83810090758BFB046B8F189
:104B2800010848BF4FF00008B9F1670F14BF4FF0F4
:104B380045094FF0650904E0B9F1410F08BF4FF08E
:104B48005009A969E86817F8013B0B544A1CB8F1E9
:104B5800010F05DA95F83810090758BFAA6117D56B
:104B68002E211154531CB8F1010FAB6110DB761ED6
:104B780036B2B045B8BF464636B23246394618183E
:104B8800FDF7F4FAA8693018A861A8EB0600686276
:104B9800E868A9690918200081F8009003D42B203F
:104BA80048708F1C03E02D224A708F1C6442002637
:104BB8000DF1080808E00A2200A800F004FD019899
:104BC80008F8010B761C009C21B20129F3DA022EA9
:104BD80006DA49F02000652804BF302007F8010BE9
:104BE8004EB9302007F8010B07E0761E02A8305CAA
:104BF800303007F8010B012EF7DAE868A9690818C0
:104C0800381AE86195F8380000F0140010280DD122
:104C18006869A9690818696A0818E9690818A96A11
:104C28000818696B8842BCBF081A286205B0BDE83D
:104C3800F083F8B504460D4616461F46002004E0EA
:104C4800E86A401CE8627F1E002047B116F8011B85
:104C5800A868A0470028A860F2D14FF0FF30F2BD45
:104C6800686A6C747A4C00006E616E004E414E00AA
:104C7800696E6600494E4600300000000278C9B2ED
:104C88008A421AB11CBF10F8012FF9E718BF00209B
:104C98007047000000F10103810704D010F8011BE0
:104CA80089B18107FAD10268B2F10131914311F05B
:104CB800803F04BF50F8042FF6E710F8011B11B12C
:104CC80010F8011BFBE7C01A70470000C9B2830740
:104CD80006D0521E22D310F8013B9942F7D11FE0AB
:104CE800083A13D302F1040241EA012141EA0141E1
:104CF80050F8043B121F21BF4B40A3F1013C2CEAA2
:104D0800030C1CF0803FF3D0C9B2001F083210F822
:104D1800013B521E28BF91EA030FF8D818BF0120A3
:104D2800401E70471B4213D1094236D12AB184462E
:104D3800B0FBF2F002FB10C2704700F04BBCFCD392
:104D48000022002370470B0002000021002070475A
:104D5800904271EB030CF6D370B5B1FA81F4B3FA53
:104D680083F52C1BA340C4F1200532FA05F6334322
:104D7800A2405FF00046E64002E05B085FEA3202CC
:104D8800841A71EB030524BF204629467641F4D3E3
:104D980002000B003000002170BD012ACFD970B588
:104DA800140C20D0B1FA81F4B2FA82F5C4F12004CF
:104DB8006419B4F12006D6D3B2405FF00044F44041
:104DC800002502E052085FEA3303C61A71EB020EAF
:104DD80024BF3046714664416D41F3D302000B0095
:104DE8002000290070BD0C46B1FBF2F102FB114511
:104DF8002D0445EA1045B5FBF2F402FB145580B2C8
:104E080040EA0545B5FBF2F002FB105240EA0440C7
:104E180070BD30B4436803F0004201211B031B0B33
:104E2800436004BF0368002B08D10DE00368DD0F61
:104E380045EA440444605B000360491E4468E30299
:104E4800F4D523031B0B436043681A4342600846AA
:104E580030BC70474FF4001C1CEB410F94BF1CEB97
:104E6800430F09E041EA030C50EA4C0C52EA0C0CDF
:104E780003D2994208BF9042704714BF8B428242C6
:104E8800704700004FF4001C1CEB410F94BF1CEB53
:104E9800430F09E041EA030C50EA4C0C52EA0C0CAF
:104EA80003D28B4208BF8242704714BF9942904296
:104EB8007047000070B504460D466068C0F30A509C
:104EC80040F2FF71884207D16068000304BF206880
:104ED800002817D0022070BD20B92046FFF799FF9F
:104EE800012868DA012D0FDB40F2FF71091A8D42A3
:104EF8000AD36068002847BF0020304900203049A5
:104F0800C4E90001012070BD4142A942616806DA86
:104F18006FF31E51401941EA0050606042E0401EA4
:104F280063684519012205F1350062F31F533528DE
:104F380001F00041636003D361600020206070BD10
:104F4800002215F11F0F04DA2268236000202035A3
:104F58006060684214D0521E25689241C0F1200357
:104F6800D2439D4045EAD272256825FA00F6656865
:104F780005FA03F333432360636823FA00F5656099
:104F880060680843B2F1004F606003D80DD1207803
:104F9800C0070AD52068401C2060206828B96068CE
:104FA800401C60604FF0FF3070BD6068884204BFED
:104FB80020680028F6D1002070BD00BF0000F0FF77
:104FC8000000F07FF446400D40EAC120490006D2B7
:104FD80000F014F8004248BF6FF00040604700F04E
:104FE8000DF84FF0004188428CBF084640426047A8
:104FF800400D40EAC120490080F00D8040F000409B
:10500800490DA1F58061491C05D4D1F11F0154BF98
:10501800C840C01770474FF000007047010040F1CA
:105028000980F446404200F005F851F0004160471D
:10503800010000BF09D0B0FA80F18840C91CC1F551
:105048008461090501EBD02140057047F0B44FF0A9
:10505800004591EA030F44BF6B4000F0BDBA00BFA2
:10506800841A71EB030604D26E40001BB141121979
:1050780073414FF4001C1CEB410F34BF7CEB43061B
:1050880084E00C0DA4EB1356362E7DDC012E43DC98
:1050980045EAC32343EA525312BFD20292025B0885
:1050A800240545EAC12141EA5051D2EBC02099417B
:1050B80025D407D1B0FA80F610FA06F164D00020A2
:1050C800203608E0B1FA81F6B140C6F1200220FA94
:1050D80002F21143B0404FEAF474B4EB465434F092
:1050E80001064FEA74040AD8D6F50016760D04F0C6
:1050F8000044F04061FA06F25040F1404840C00ACE
:1051080040EA415021F0004128BF5FEA500550F1C4
:10511800000044EBD12137E045EAC323DB0A45EA26
:10512800C121C90AB6F120050EDD42EA0242120C7D
:10513800C5F1200603FA06F6EB4042EA06056D4281
:10514800984161F100010DE062FA06F5F240554020
:1051580063FA06FC82EA0C02F3405A406D42904121
:1051680061EB030111F4801F05D1641E620502D0B2
:105178006D004041494121F48011430875F1004315
:1051880050F1000041EB0451F0BC70471CEB410F9B
:1051980015D223F0004352EA43060BD04FEA4C0CD9
:1051A800BCEB410F04D80C0D661E342EB7DDEBE7BF
:1051B800801A994150EA410608BF0021E4E708BF78
:1051C8001CEB430F28BF6FF00001DDE7B0B581EAA3
:1051D800030C0CF0004C40F2FF7515EA11541DBF8A
:1051E80015EA1357AC42AF4239E0E41923EA4553B4
:1051F80043F48013C90241F0004141EA505EC702FE
:105208001100A7FB020200284FF00000EEFB01206E
:105218004FF00001E3FB072118BF42F001024018DC
:1052280000214941E3FB0E01A4F580640F0302D27B
:1052380052004041494154F101046CDD470872F1C4
:10524800004250F1000051EB0451A1F580115CBF00
:1052580041EA0C01B0BD4CEA05510020B0BD05EA99
:105268001357AC4214BFAF4241E050EA410E1CBF95
:1052780052EA430E02E061460020B0BD24423C449D
:105288001BD15FEA070EF6D0090302BF01460020D2
:10529800AEF1140EB1FA81F7AEEB070401FA07FE7E
:1052A8000C37C7F1200100FA07F7C8404EEA000E94
:1052B80023EA455343F48013A2E733F00043B3FADB
:1052C80083F704BFB2FA82FE77440B3FE41BB7F1C1
:1052D800200E2FBF02FA0EF3BB40C7F1200E22FAB0
:1052E8000EFE38BF43EA0E03BA40641C82E750EA58
:1052F800410E14BF52EA430E6FF000014FF400173D
:1053080017EB430F8ABF194617EB410FB5E74CEA75
:1053180005510020B0BDD4F10104B4F120070FDA23
:10532800C4F12007520828BF42F0010210FA07F51D
:1053380001FA07F7E1BF2A43E0403843E1400FE0B4
:10534800352C98DCC7F1200452EA400220FA07F213
:1053580018BF42F0010231FA07F0A1400A430021C8
:1053680072F1004250F1000051EB0C01B0BD000099
:105378002DE9F04140F2FF7581EA030C0CF0004C76
:1053880015EA11541DBF15EA1357AC42AF42E9E0C4
:10539800BC41C1F31301C3F31303801A994143F4C9
:1053A800801304D2641E4000494180185941C90243
:1053B80041EA5051B1FBF3F603FB1611A2FB067547
:1053C800D7EBC020A94102D2761E80185941C902E4
:1053D80041EA5051B1FBF3FE03FB1E11A2FB0E750F
:1053E800D7EBC020A94103D2AEF1010E8018594174
:1053F800890241EA9051760546EA8E2EB1FBF3F612
:1054080003FB1611A2FB0675D7EB8020A94102D237
:10541800761E80185941C90241EA50514EEA060EDB
:10542800B1FBF3F603FB1611A2FB0675D7EBC02000
:10543800A94102D2761E80185941C90241EA505149
:10544800B1FBF3F703FB1711A2FB0735D3EBC02021
:10545800A94167F100070CBF004247F0010766F356
:10546800D5274FEA1E31B80814F5806414DDBD074E
:1054780075F1004250EB0E5051EB045111F5801FAD
:105488005CBF41EA0C01BDE8F0814CF07F6141F05E
:10549800E0410020BDE8F081BD076D0840EA0E50EC
:1054A80041F48011D4F10104B4F120060ADAC4F100
:1054B80020060200E04001FA06F3E1401843B2403A
:1054C80015430EE0342C14DCC6F1200445EA4005EF
:1054D8006D0820FA06F2154321FA06F0A1400D43A3
:1054E800002175F1004250F1000051EB0C01BDE8BC
:1054F800F08100205FEA0C01BDE8F081CFB9921875
:105508005B41B3FA83F704BFB2FA82F6BF190B3FC7
:10551800B7F120062FBF02FA06F3BB40C7F12006F9
:1055280022FA06F638BF3343BA401CB1E419641EA8
:105538002FE77F4231F00041B1FA81F404BFB0FA9D
:1055480080F6A4190B3CB4F120062FBF00FA06F12F
:10555800A140C4F1200620FA06F638BF3143A04026
:105568003C1B16E7AC421ABF05EA1357AF4214E0DA
:1055780050EA41061CBF52EA4306BFE750EA41071A
:10558800304661461CBF41EA0551BDE8F08152EA48
:10559800430C08BFC143BDE8F08100204FF400165A
:1055A80016EB410F98BF16EB430F08BF16EB410FE0
:1055B80024BFC14305E016EB430F0CBF61464CEA1C
:1055C8000551BDE8F08191FBF2F303FB1211C0E92C
:1055D8000031704770470000841A71EB030603D24C
:1055E800001BB141121973414FF4001C1CEB410F11
:1055F80034BF7CEB430443E00C0DA4EB1356352E6B
:1056080050DC45EAC323DB0A45EAC121C912B6F1D9
:1056180020050DDD63FA05F6EB4086EA0305124224
:1056280018BF45F00105C01851F100010CD213E074
:1056380062FA06F5F2405540F3415A40B340F34050
:105648005A408018594107D349085FEA30005FEA99
:10565800350528BF45F0010501F58011420875F1AF
:10566800004250F1000041EB0451F0BC4FF4001C23
:105678001CEB410F38BF70470020090D0905704722
:105688001CEB410F10D252EA43060BD0BCEB410F82
:1056980005D80C0DAB43661E342EB5DD02E0AB43D6
:1056A80080185941F0BC7047F0BC704780B5FBF7D3
:1056B8004CFFFCF7CFFCFCF7DDFC8005800DDFF824
:1056C80074170860DFF87007FCF769FC012801D13E
:1056D80000200BE0DFF864070078002804D0DFF82A
:1056E80060170020FCF7F0F95FF0FF3002BD10B53D
:1056F8004FF47A71DFF84007FCF770FC012802D0FC
:105708007FF0020017E0DFF82C0700680400DFF8DC
:1057180024070068401CDFF81C170860DFF814072E
:1057280000688005800DDFF80C170860DFF80807AF
:10573800FCF772FC200010BD002001000A2913DAD2
:10574800DFF80007182303FB010002000020108087
:10575800002090600020D06000201074002050616C
:1057680000205060491CE9E70020704710B504008C
:10577800FBF7EBFE606110BD10B50400E06800287F
:1057880002D0E068FBF725FE0020E06000202074CE
:10579800002020800020A060002060610020606060
:1057A800002010BDF8B504000027002005000A2DD0
:1057B80015DADFF89006182101FB0500060096F9B6
:1057C8001000002809D101203074B46000207060F6
:1057D8003000FFF7CBFF370001E06D1CE7E738002A
:1057E800F2BD2DE9F04104000D005FF00008002033
:1057F80006000A2E16DADFF84C06182101FB06000F
:10580800070097F9100001280AD1B868284015EA5E
:105818000401884204D13800FFF7A8FFB84601E028
:10582800761CE6E74046BDE8F08170B5002004002C
:105838000A2C21DADFF80C06182101FB0400050008
:1058480095F91000012815D1FBF77FFE060068695D
:10585800301A42F2117188420CD3DFF8E005407823
:10586800002804D0DFF8E0150120FCF72DF9280006
:10587800FFF782FF641CDBE770BD2DE9F84F0400D9
:105888002768DFF8C8153800FFF7ABFF0500002DC3
:1058980031D1C7F38040002819D13800FFF782FFC3
:1058A8000500002D27D1DFF894054078002804D0A2
:1058B800DFF89C150120FCF707F9DFF89805C069A7
:1058C800401CDFF89015C8615FF0FF3009E1DFF890
:1058D8006C054078002804D0DFF87C150120FCF71F
:1058E800F3F8DFF87005806A401CDFF868158862F5
:1058F8007FF00100F5E000200600B80C10F0010070
:10590800002802D0012879D0DDE02079062814D2B9
:10591800DFF828054078002804D0DFF8401501207A
:10592800FCF7D2F8DFF82C05806A401CDFF8241554
:1059380088622800FFF720FFD2E0E868002811D02D
:10594800DFF8F8044078002804D0DFF814150120A7
:10595800FCF7BAF8DFF8FC04806A401CDFF8F4149E
:1059680088621CE04FF48070FBF7BAFCE860E868D6
:10597800002814D1DFF8C4040078002804D0DFF828
:10598800E4140020FCF7A0F8DFF8C804806A401C83
:10599800DFF8C01488622800FFF7EEFEA0E05FF091
:1059A800040814F108000090E86810F10A0942465A
:1059B80000994846FCF7DAFBE868D0F80A00FBF7DC
:1059C800BEFDE968C1F80A005FF0020914F10C0A8B
:1059D800E86810F1080B4A4651465846FCF7C6FBE2
:1059E800E8680089FBF798FDE968088100202880AD
:1059F80006200600C7F38720401C6860C7F387208D
:105A08006968491E884214D0DFF8300400780028FD
:105A180004D0DFF854140020FCF756F82800FFF7EC
:105A2800ABFEDFF83004806A401CDFF82814886277
:105A380056E06868401E6860E8680089298822790D
:105A48005118F6B2891B884214DADFF8F00300789F
:105A5800002804D0DFF814140020FCF735F8DFF82C
:105A6800F403806A401CDFF8EC1388622800FFF713
:105A780083FE35E02079F6B2B0EB0608F6B23019AD
:105A880010F10809E8682988081810F10E0A42463A
:105A980049465046FCF76AFB288821790818F6B26F
:105AA800801B28802888E9680989884218D1002243
:105AB800DFF8A013E868FDF787FD0020E8602800FC
:105AC800FFF75AFE0CE0DFF874034078002804D092
